:020000040015E5
:100000000000042099401500494115004B4115009E
:100010004D4115004F411500514115005341150048
:10002000000000000000000000000000CD051500E9
:10003000574115000000000059411500A50E15009C
:1000400000000000000000000000000000000000B0
:1000500000000000000000000000000000000000A0
:100060000000000000000000000000000000000090
:100070000000000000000000000000000000000080
:100080000000000000000000000000000000000070
:100090000000000000000000000000000000000060
:1000A0000000000000000000000000000000000050
:1000B000652B1500310C15005D4115005D411500E3
:1000C0000000000000000000000000000000000030
:1000D0000000000000000000000000000000000020
:1000E0000000000000000000000000000000000010
:1000F0000000000000000000000000000000000000
:1001000000000000000000000000000000000000EF
:1001100000000000000000000000000000000000DF
:1001200000000000000000000000000000000000CF
:1001300000000000000000000000000000000000BF
:100140005D4115005D411500000000000000000049
:1001500000000000000000005D4115005D41150039
:100160005D41150000000000713F15005D41150064
:100170005D411500000000000000000000000000CC
:1001800000000000000000005D41150000000000BC
:100190005D4115005D4115000000000000000000F9
:1001A000000000000000000000000000000000004F
:1001B000000000000000000000000000000000003F
:1001C000000000000000000000000000000000002F
:1001D000000000000000000000000000000000001F
:1001E000000000000000000000000000000000000F
:1001F00000000000000000000000000000000000FF
:1002000000000000000000000000000000000000EE
:1002100000000000000000000000000000000000DE
:1002200000000000000000000000000000000000CE
:1002300000000000000000000000000000000000BE
:100240005D411500000000000000000000000000FB
:10025000000000005D411500000000005D41150038
:1002600000000000000000005D4115005D41150028
:10027000000000000000000000000000000000007E
:10028000000000000000000000000000000000006E
:10029000000000000000000000000000000000005E
:1002A000000000000000000000000000000000004E
:1002B000000000000000000000000000000000003E
:1002C000000000000000000000000000000000002E
:1002D000000000000000000000000000000000001E
:1002E000000000000000000000000000000000000E
:1002F00000000000000000000000000000000000FE
:1003000000000000000000000000000000000000ED
:1003100000000000000000000000000000000000DD
:1003200000000000000000000000000000000000CD
:1003300000000000000000000000000000000000BD
:100340005D411500000000000000000000000000FA
:1003500000000000000000005D4115005D41150037
:100360005D4115005D411500A92A15005D4115008C
:100370005D4115005D4115005D4115000000000064
:100380005D4115005D4115005D4115005D411500A1
:100390005D4115005D4115005D4115005D41150091
:1003A00000000000000000005D4115005D411500E7
:1003B0005D4115005D4115000000000000000000D7
:1003C0005D4115005D4115005D4115005D41150061
:1003D0005D4115005D4115000000000000000000B7
:1003E000000000000000000000000000000000000D
:1003F00000000000000000000000000000000000FD
:1004000000000000000000000000000000000000EC
:1004100000000000000000000000000000000000DC
:1004200000000000000000000000000000000000CC
:1004300000000000000000000000000000000000BC
:100440005D411500000000000000000000000000F9
:100450005D4115005D4115005D4115000000000083
:100460005D4115005D411500000000000000000026
:080470005D4115005D4115001E
:1004780000000000000000000338FDD870470000AD
:1004880000A0105000820D5000040550000000002C
:1004980000000000000000000338FDD8704700008D
:1004A800FFFFFFFFFFFFFFFFFFFFFFFFFFFFFFFF54
:1004B80000000000000000000338FDD8704700006D
:1004C800005B0020416461444655004E6F726469C8
:1004D80063006E524635344C31352D444B0076302E
:1004E8002E322E312D322D67653935666139352D1D
:1004F8006469727479207331343520392E302E3086
:1005080000000000000000000000000000000000E3
:100518000023D1BCEA5F782315DEEF121200000039
:100528000000000025000000240000002600000054
:1005380027000000010000000000D60158850020B7
:10054800FFFFFFFFFFFFFFFFFFFFFFFFFFFFFFFFB3
:1005580000000000000000000000D60107010000B4
:1005680000A0105000820D5000040550E0850020C6
:08057800BC430000010000007B
:1005800010B50C46E0B90968C1B10E48814207D0E8
:10059000431A3B2B0ED83C235A5CC254013BFBD27E
:1005A00000223C21074802F0C7FD074B18800023BA
:1005B000236010BD3C2204F077FBF1E70E23F7E740
:1005C0000123F5E702480020004800206FF00203F5
:1005D000064A9E4502D1EFF3098101E0EFF308815D
:1005E0008869A0F102000078104700BF810515005E
:1005F00038B50446A8B13C2100220C4802F09CFD0D
:100600000B490B8883420ED1084A02F13C0052F894
:10061000045B824244F8045BF9D1002001330B8073
:1006200038BD0E20FCE70B20FAE700BF024800208F
:10063000004800200B2970B5044615462ED90389C1
:100640000144053300EB4303CA1AD2B2012A25D96B
:100650008B4223D81946134804F026FB2388542BD9
:1006600011D1AB070AD100234FF6FE704FF440556D
:1006700034F8081F994208D80B2070BD4DF263333F
:1006800062889A42EFD00F20F7E734F8022F8242B7
:1006900006D0AE89964203D00133EBE70920ECE7A0
:1006A0000020EAE76848002008B5002202F044FD77
:1006B000034B1B88834214BF0B20002008BD00BFE2
:1006C00068480020024AD2F80034002BFBD0704763
:1006D00000B0045010B5ADF5805D4FF48052044673
:1006E000FF21684604F0D8FAFFF7ECFF6B460022C2
:1006F00053F8041BA1500432B2F5805FF8D1FFF724
:10070000E1FF0DF5805D10BD70B500254C1E20F495
:100710007F66240B26F00F06013406EB0530013509
:10072000FFF7D8FFAC42F8D870BD000038B5104CC8
:10073000054621684B1C1AD04FF480520D4804F036
:100740009BFA88B115B12068FFF7C4FF2168FFF755
:10075000B9FF0023074A52F8040BC8500433B3F51D
:10076000805FF8D1FFF7AEFF4FF0FF33236038BD55
:1007700040480020D04800202DE9F04705460F46AC
:1007800014469A46DFF85080DFF850900CB9BDE867
:10079000F087D8F8003025F47F6626F00F06B342C4
:1007A0000AD05046FFF7C2FF4FF480523146484608
:1007B000C8F8006004F078FAC5F30B00C0F5805665
:1007C000A64228BF264639463246484404F06CFA11
:1007D000A41B35443744D9E740480020D0480020C6
:1007E00008B50003FFF776FF002008BDFFF772BFD2
:1007F00010B501EB8204FFF765FF401AA14203D157
:10080000BDE81040FFF75EBF431851F8042B1A6093
:10081000F4E70000BFF34F8F0549064BCA6802F4A6
:10082000E0621343CB60BFF34F8F00BFFDE700BF13
:1008300000ED00E00400FA0510DF704711DF70479B
:1008400012DF704718DF704749DF70478DDF704750
:1008500060DF70476ADF704761DF704768DF7047AD
:1008600008B54FF0E023D3F8F03DDB0700D500BE1C
:10087000FFF7D0FF014B1878704700BFD358002016
:1008800040F201222DE9F04FB34B8BB0C3F8402565
:1008900000F052FA00F040FD002000F00BFB00F0E9
:1008A000A3FD48B1052000F005FB00F0AFFD00F00E
:1008B000DDFD062000F0FEFAA84BDFF8D092D3F859
:1008C0000055DFF8CC82A5F1B1025442544189F8B9
:1008D0000040A82D08BF44F0010488F80040D3F878
:1008E00000669F4F06F00106002C40F01E814E2D41
:1008F00026D03A6811689B4A914202D1002E40F0FE
:1009000018816D2D1FD10022944BC3F8002500F0F3
:10091000FBFC044600F05EFA4CB900F03FFC30B13D
:1009200000F062FD18B93B68186000F041FD8E4B85
:100930001B781BB1A822894BC3F80025FFF76AFF7B
:10094000C3F80045012400F029FCDFF848A28346E3
:100950003A6820B11CB9136884498B4218D04FF40F
:100960008053D3F80032534500F0E9808CB9BBF1D5
:10097000000F0DD066B17B4B7D4813607D4B7E4AE6
:100980001B68B3FBF2F358437C4B43F001039847D9
:1009900000244FF48053D3F8001203F19E43A3F5D3
:1009A000D513A3F68203514518BF00233A6813609C
:1009B00014B9BBF1000FAAD198F80030002B00F059
:1009C000C080082000F076FA99F800303BB9CDE9F4
:1009D00007330993022306A80693FFF733FF4FF46A
:1009E000A81201264FF0E02389F800600024C3F824
:1009F000082D4FF40433624902A8CDE90234FFF711
:100A00001BFF4FF000525F4B1A605F4B0C222146D8
:100A100006A8019304F040F940F20113019A06A9D7
:100A200040200693FFF716FF0C22214606A804F08B
:100A300033F99DF81830019A334306A9A0208DF8A8
:100A40001830FFF707FF0C22214606A804F024F90E
:100A5000F7234FF00C09019A06A92320ADF81A30AC
:100A60008DF81860FFF7F6FE0C22214606A804F068
:100A700013F9019A06A920208DF818608DF81A60E4
:100A8000ADF81C90FFF7E6FE4A46214606A804F0A2
:100A900003F9019A06A922208DF818608DF81A90A2
:100AA000FFF7D8FE4A46214606A804F0F5F88DF86F
:100AB00018600226019A06A921208DF81A60FFF716
:100AC000C9FE01A8FFF7C4FE2146082204A804F0CD
:100AD000E3F89DF81030304643F0010304A98DF887
:100AE0001030FFF7BBFE4FF48053D3F8003298F874
:100AF0000000534501D04E2D2AD1012240F6B831D5
:100B000000F022FC98F80030002B3FF400AF0023E7
:100B100006A88DF81830FFF793FE9DF81830012BCA
:100B20007FF4F5AEFFF78AFEF1E60022C3F8002558
:100B300008E76D2DC3F800453FF4E9AE02E7012454
:100B400027E7022000F0B6F9012000F0B3F9CAE768
:100B500000221146D4E700BF00C00C5000E0105046
:100B600044480020D51A5A00D15800207E67E54E2F
:100B700020A107004848002040420F0080041500D3
:100B80006108150000E100E040480020D058002036
:100B9000D35800207CB0EE8770B54FF4FA7300266E
:100BA000FEB00DF1020101A8ADF80230ADF804600D
:100BB000FFF752FE054640B9BDF80430102B07D0B0
:100BC000112B15D001A800F0E7FE28467EB070BDBD
:100BD000ADF800006946BDF80800FFF737FE0123B5
:100BE0000720054A1370054A137000F063F9E9E71E
:100BF000014B08201E70F8E7D2580020D158002081
:100C0000002313B501A80193FFF71EFE044610B997
:100C1000019801F005FE204602B010BD08B5FFF7AF
:100C2000BBFF0528FBD1FFF7EBFF0528F7D108BD77
:100C30000021024A084602F0D5B900BF1D0C15007C
:100C40007047704730B50025134B85B00446C0F897
:100C500000550FCB8DE80F006B462A4602F5AC71AC
:100C600053F8040B0132042A44F82100F6D1002382
:100C700040F2FF32C4F80C35C4F80435C4F8082536
:100C8000064AC4F81035C4F81435C4F80427C4F86B
:100C9000083705B030BD00BFA8041500D85A0020A1
:100CA0000022214B5F29F0B5C3F8002501F01F0495
:100CB0004FEA511633D81D4D00F5AC7055F826603B
:100CC0001B4D06EB8407D7F880C00CEA050545F0FC
:100CD0000305C7F88050012505FA04F4746043F851
:100CE00020100421C3F80C15FF21C3F80425C3F814
:100CF00008150221C3F810150E49C3F81425C3F8CE
:100D000004170821C3F80817C3F82825C3F82C25B1
:100D1000C3F80055C3F81021D3F81031F0BD2034CA
:100D200052F82430FFDE00BF00200D50880415006B
:100D3000F0F0FCFFD05A002038B500251C4B1D4CAC
:100D4000C3F8405420681C4BB0FBF3F064235843B5
:100D50001A4B43F00103984729462846FFF7A0FFA6
:100D600001210846FFF79CFFFFF76AFF1E210820BC
:100D7000134A02F013F908B102F0C6F902F050F874
:100D8000E0204FF47A720F4981F823002368B3FB07
:100D9000F2F3013BB3F1807F08D24FF0E0225361C0
:100DA000002381F8230093610723136138BD00BF3E
:100DB00000E010504848002040420F00A0041500F9
:100DC000D458002000ED00E00148FFF73BBF00BF12
:100DD00000200D504FF0E02310B500241C61FFF7F8
:100DE000F3FF02F0CFF823460A4C590954F82110BA
:100DF00003F01F0201EB8201D1F88000064A0133A3
:100E0000024042F00202232BC1F88020EDD1FFF70F
:100E100018FF10BD88041500F0F0FCFF0022054B00
:100E200023F81010044BC3F81021D3F8102101222D
:100E30001A617047D05A002000200D5010B5164B93
:100E400000201C68154B1B68B4FBF3F103FB114138
:100E5000B1EB530F4FEA530288BF591A4F2359433E
:100E6000B1FBF2F189B2FFF7D9FF0D4B01201B68EE
:100E7000B4FBF3F203FB1244B4EB530F4FEA5302FB
:100E800088BF1C1B8F235C43B4FBF2F1BDE810400C
:100E900089B2FFF7C3BF00BFDC5A0020CC5A002044
:100EA000C85A0020024A136801331360FFF7C6BF17
:100EB000DC5A00201A490A6808281FD8DFE800F029
:100EC0000F050F1E1E161A23290040F6B830154BC9
:100ED00018604FF480539A4218BF0B6070474FF46C
:100EE0009670104B18604FF48013F4E764220D4B9A
:100EF0001A60704740F6B8300A4B186002F01033A1
:100F000023F08053E7E740F6B830074B1860102312
:100F1000E1E74FF49670044B18604FF01013DAE7D6
:100F2000C45A0020CC5A0020C85A0020064BD3F8DF
:100F300040231C2A05D1D3F84403431E584258418C
:100F400070470020704700BF00C0FF0003689A0789
:100F50000CD50368DB070DD50922074BC3F80C2518
:100F60000F22C3F8042501221A60FEE7034B036039
:100F7000EF3B0360704700BF00801050F000FA5054
:100F800008B50123454A4648C2F80038454AD2F818
:100F900040231C2A04BF444AC2F80C34FFF7D6FF92
:100FA0000830FFF7D3FF0830FFF7D0FF0830FFF716
:100FB000CDFF00F5F470FFF7C9FF3C4AD2F88C3042
:100FC00043F44063C2F88C300022D30003F57F0362
:100FD00003F54043D3F8001401310AD0D3F80014CC
:100FE00039B1D3F800140132D3F80434402A0B602D
:100FF000EBD12A4BD3F84024002A4BD0FFF796FFC1
:1010000048B1284BD3F83423294B9A429EBF234B37
:10101000284AC3F84026FFF789FF18B1264B274A14
:10102000C3F8AC27FFF782FF48B134221B4BC3F84B
:101030002426D3F83C2622F40022C3F83C26204B79
:10104000D3F80026D20744BF6FF00102C3F8002690
:101050001C4BD3F8182522F00302C3F81825D3F847
:10106000182542F00302C3F81825104AD2F88C1054
:1010700041F44061C2F88C10D2F8881041F470013C
:10108000C2F88810BFF34F8FBFF36F8F0022C3F8F1
:10109000A02508BDC822C3F84024AFE700001250C5
:1010A00000C50D5000C0FF000030055000ED00E00D
:1010B000001D0A1840E0A91E00A0085078000A048C
:1010C00000E0105000B00450064B1878012803D1FE
:1010D000012904BF0221197012B1104602F014B8A0
:1010E000704700BF205B002038B50B4C0B4DD4F887
:1010F0000034DB0707D5002303F5C0720133082B4A
:1011000044F82250F8D101F0D1FF054B1B78023B87
:10111000DBB2032BEBD838BD009010503546526E31
:10112000205B002008B5FFF7A5FBF8B11C2117488C
:1011300001F000FC042804D1FFF762FD0528FBD173
:10114000F4E708B101F0E0FF00231C2210490F482A
:1011500001F0E0FB042804D1FFF752FD0528FBD184
:10116000F2E788B1BDE8084001F0CEBF0948FFF7BB
:101170003DFB072206490748FFF73AFB064B1A7862
:10118000012A04BF02221A7008BD00BF245B0020A0
:10119000E05A002000F01700205B002007B501A8EE
:1011A00000F094F94FF480531A68013202D15B6861
:1011B000013312D0019B1A88012A0ED1588828B118
:1011C00000224FF48050996801F0B6FF019B5B88C4
:1011D0001B1A5842584103B000BD0020FBE7000035
:1011E00084B02DE9F34108AC84E80F009DF820801D
:1011F00001A80E4615461C46BDF8227000F066F99F
:10120000B8F1060F51D8DFE808F004102F21584537
:1012100061000122FF21304B5F809C601A80998021
:101220002E4B1A70FFF77EFF3FE02B4BAA1922448A
:101230009A60A5221A80FF22C3E903659A800C9A5E
:101240005F805C619A610122244BEAE7019A224B9C
:10125000118819805188926859809A60AA22C3E93E
:1012600003659A805C61EEE7019A1B4B1188A52902
:101270000AD100229A60FF221A60FF229A8000227F
:10128000C3E903225A61DEE71980518892685980C8
:101290009A60F2E7FFF7EEFA60B100F093FD08B153
:1012A00001F032FF03220D4B1A7002B0BDE8F0418D
:1012B00004B0704700F004FAF1E70022064B9A6090
:1012C000FF221A60019A92889A80ABE79DF8343029
:1012D000024A04331370E8E7E05A0020205B002044
:1012E00000B5084B89B01B7853B9DDE90601052329
:1012F0008DE803008DF8083002AB0FCBFFF770FFCD
:1013000009B000BDFC5A0020024B1878431F584218
:1013100058417047205B00201FB50023CDE9023300
:10132000064B019301F0C6FA30B9054A054B114648
:1013300001A8536001F0DCFA05B000BDC91015002A
:10134000245B002000F0170070B505460E4603F040
:101350004FF8044628B935B100F090FC0446FFF779
:10136000C3FE204670BDBEB10D4B29460D4A0E4846
:101370001D704FF4004401F095FD4FF4FA702946BA
:101380004FF47A720023E6FB040103F0BBFA2A460D
:101390000146064801F098FD00F06EF9DEE700BF57
:1013A000FC5A0020E1121500C8041500005B002063
:1013B00000224FF0FF31930003F16043013203F547
:1013C0006143102AC3F88010C3F88011F3D14FF4A1
:1013D0008050044B9860BFF34F8FBFF36F8F00F0C6
:1013E000A1B800BF00ED00E007B501A800F06EF85D
:1013F000019B1A88A52A06D09888A0F1AA03584212
:10140000584103B000BD0120FBE7000010B503F018
:1014100047FAD8B1114B124A1B681248B3FBF2F3DA
:101420005843114B43F00103984703F0A1F908B169
:1014300001F06AFE03F034FA08B101F065FE03F032
:10144000E5F9044638B101F05FFE04E003F0F6F977
:1014500004460028DED1204610BD00BF48480020C9
:1014600040420F00A0860100C004150000B589B0FD
:101470001822002102A803F00FFC02220346DDE936
:1014800006018DE803008DF808200FCBFFF7A8FEBA
:10149000FFF72AFE002009B000BD13B5044601A8DD
:1014A00000F014F8019B1A8822805A8862809A689A
:1014B000A2609A88A280DA68E2601A6922615A6999
:1014C00062619B69A36102B010BD0000014B036023
:1014D000704700BF00F017000346F0B5002585F304
:1014E000148885F3108885F3118885F313881868AC
:1014F00080F308885868FF2464B2EFF30585002D57
:1015000001D1A64600472546064621273FBAF0B43A
:101510000024002500260027F0B4F92040B200473F
:10152000F0BD00BFFFF7D8BF0023F7B50DF10201F2
:1015300001A8ADF80230019302F048FA0346F8B969
:101540000198057855B3174A92F83010032927D02F
:101550000C2707FB03F411591619D9B992F830304A
:101560000430013382F83030BDF8023015519B0849
:10157000013BB0600C4A0846736001F033FD03463E
:10158000019828B123B102F03DFA08B101F0BCFD89
:1015900003B0F0BD0133042BDBD1F1E70723EFE704
:1015A0000423EDE72C5B0020F115150011B108466E
:1015B00001F0AABD704700000C2310B543430B4A4D
:1015C000D058D11878B192F830408868013C82F840
:1015D000304000240438C1E90144D45002F012FA2A
:1015E00008B101F091FD002010BD00BF2C5B002070
:1015F00001221F4B70B51F4E1A7096F8303003B998
:1016000070BD00251B4C23686BB1013B042B07D830
:10161000DFE803F019060F032500204602F084FFDF
:10162000E8B2FFF7C9FF0135042D04F10C04EAD13B
:10163000E3E7A3682046636002F022FF0028EFD0B2
:1016400001F062FDECE7204602F0FAFF02F0D6FF5F
:1016500008B101F059FD0520FFF72CFCE0E703F08D
:1016600021F803F043F8BDE870400620FFF722BCE4
:10167000FC5A00202C5B00200022042108B50D4BF1
:1016800083F830200139C3E901221A6003F10C0309
:10169000F8D1094802F0EEFE02F030F908B101F08D
:1016A00033FD064802F016F908B101F02DFD0020C7
:1016B00008BD00BF2C5B0020AD15150029151500D5
:1016C00010B50024E0B20134FFF776FF042CF9D105
:1016D000BDE8104002F05AB9006870476CDF7047EF
:1016E0006DDF70476FDF704770DF704773DF7047E3
:1016F00074DF704775DF704776DF704777DF7047BC
:1017000078DF70477BDF70477DDF704780DF704791
:1017100087DF70478DDF70478EDF7047B4DF70471B
:10172000B5DF7047B6DF7047B7DF7047BADF704785
:1017300065DF704767DF70470C280AD8DFE800F0E4
:101740000709090909090B091409090F0D000120EE
:101750007047062070470320704704207047042913
:101760000CBF0520062070470220704701F0CCBC5A
:1017700010B5044608460321FFF7DEFF0246204667
:1017800000F012FE18B1BDE8104001F0BDBC10BD64
:10179000032810B5144620D0042824D169B1124B77
:1017A00018884FF6FF7398421DD01321FFF7A6FF4C
:1017B000C8B1BDE8104001F0A7BC104601F016FD0D
:1017C00008B101F0A1FC094B1B689C420BD101221E
:1017D0000321074800F0E8FDEAE708460121FFF78A
:1017E000ABFF0246F5E710BD54480020985B00208F
:1017F000F05B0020F8B50A4D1446AB889E181D2EEC
:101800000DDC2F6802F1010CFE1807F803C07070A0
:10181000B01C03F049FAAB8802331C44AC80F8BD1D
:10182000805B0020F0B5504E93B03478002C40F02F
:101830009780102221464D4803F02EFA4C4B4B4A1C
:10184000214613600CA8182203F026FA01238DF814
:10185000303028230E93474B1B78002B00F08280FA
:10186000454B02AC03F1100522461868596808334D
:1018700003C2AB421446F7D11022404802A903F03C
:10188000FBF900286ED03E4B3E4C012118461C60EF
:10189000FFF728FF08B101F037FC06AA1746374BBF
:1018A00003F1100C154618685968083303C56345E1
:1018B0002A46F7D1A3792068A2888DF82E30324BC2
:1018C0000A90ADF82C200021012218461F60FFF776
:1018D0000BFF08B101F018FC03238DF844300423FA
:1018E0008DF8063000238DF80B3041F23053ADF8FF
:1018F0000830264B06AA9B790DF1070102A88DF846
:101900000A30FFF715FF01220DF106011046FFF71F
:1019100071FF1F4803F0D5F91D49C2B20920FFF736
:1019200069FF1022062006A9FFF764FF0F49194836
:101930000CAAFFF7DBFE08B101F0E6FB154C042210
:1019400001202178FFF7DCFE08B101F0DDFB012169
:101950002078FFF7CDFE08B101F0D6FB01233370EC
:1019600013B0F0BD0623BBE7DA5B0020805B0020EC
:10197000605B00209C5B002009051500A55B002032
:10198000945B00209E5B0020905B0020F05B0020B9
:10199000CC0415004C480020F0B504460146AFB019
:1019A000AC4800F03DFD2388262B3BD80F2B04D8F4
:1019B000012B00F0D8802FB0F0BD103B162BFAD8C9
:1019C00001A252F823F000BF511A15007D1A15002C
:1019D000B7191500AF1A1500A51B1500B71915008A
:1019E000B7191500B7191500B7191500B719150063
:1019F000BB1B1500B7191500B7191500B71915004D
:101A0000B7191500B7191500B71915002D1C1500C9
:101A1000B71915001F1C1500B7191500B7191500C7
:101A2000251B1500513B9AB2052AC4D8052BC2D8F4
:101A300001A252F823F000BF731B1500BB1B150059
:101A4000B7191500B71915003F1C15000B1B150021
:101A50000022814BA0880EA91880804B1A70236940
:101A60000E930423ADF83C30E38AADF83E30FFF727
:101A700043FE00289FD001F047FB9CE780233222E1
:101A8000754CADF82030764B20881A600EA90123E2
:101A900008AAFFF749FE08B101F036FB714B1B782D
:101AA0000BB9FFF7BFFE4FF6FF73238083E702AC4D
:101AB00026466D4B9A79186899888DF81E200690F5
:101AC000DA1DADF81C10173325461068516808322E
:101AD00003C59A422C46F7D10EAA1546634B03F173
:101AE0001807144618685968083303C4BB422246D5
:101AF000F7D118680521206057485D4A08AB008877
:101B0000CDE90B56FFF702FEB3E7A379002B7FF474
:101B100052AF514B13211888FFF7F0FD00283FF416
:101B20004AAF77E0237A012B7FF445AF00224B4B7D
:101B30001A704B4B19680139196079B918220EA82F
:101B400003F0AAF805220346DDE912018DE803003F
:101B50008DF838200FCBFFF743FB2CE72FB0BDE803
:101B6000F040FFF75FBE3C4B00211888FFF7E2FD15
:101B7000D4E7A379002B3FF41EAFA27B043AD2B284
:101B8000022A3FF618AF022B18BF01238DF8383018
:101B90004FF4C173ADF83C302F4B0EA91888FFF7F6
:101BA000BFFD66E73049228A4B8D18319A4218BF33
:101BB0000021A088FFF7ACFDB0E74FF6FF75264C7B
:101BC0002088A84225D02B4B1B78EBB1012308229B
:101BD0002949FFF7A7FDE8B90246014602232088FC
:101BE000FFF7A0FDB0B92A460C212088FFF796FD2B
:101BF000A0F54053023B012B7FF6DDAE08283FF4F1
:101C0000DAAE11288AD1D6E61A461946FFF78AFDC0
:101C100084E708202FB0BDE8F04001F075BA00223B
:101C20000D4B11461888FFF777FD77E70023ADF8D5
:101C30003830094B0EA91888FFF76CFDBBE6E18828
:101C4000054BF72928BFF721188841F00301FFF75A
:101C50006DFD63E7F05B002054480020DA5B002054
:101C600050480020DC5B00209E5B0020B65B00201B
:101C7000205C00209C5B0020D25B0020002330B55C
:101C8000414A95B01370414A4148137002F0F2FB8B
:101C900001F06CFA0446002860D13E48FEF7A8FC2B
:101CA00000285ED101223C4B1A7011233B488DF86D
:101CB000043003F006F8394982B201A8FFF724FD89
:101CC00008B101F021FA0822002104A802F0E4FF83
:101CD000334A344B04A8CDE90423FFF713FD08B1C0
:101CE00001F012FA00210C2201A802F0D5FF08230E
:101CF000ADF804302C4B2D4802932D4B01A90393D2
:101D000000F0BEF908B101F0FFF92A4D4022002190
:101D100004A802F0C1FF284602F0D3FF0595264D26
:101D2000ADF81000284602F0CCFF0795234DADF822
:101D30001800284602F0C5FF1123ADF8300004A8B2
:101D4000ADF84C300D9500F07DFC30221C4B1A7024
:101D500007225A7010229A70FFF764FD204615B0D2
:101D600030BD04A8FFF7BCFC08B101F0CDF99DF827
:101D7000113004A801338DF81130FFF7AFFC0028B3
:101D800093D001F0C1F990E7DC5B0020ED5B00200F
:101D9000911715009E5B00209C5B0020CC04150071
:101DA0000C00180004002003151E1500F05B002035
:101DB0006D171500D3041500DA041500E6041500AC
:101DC000205C0020012210B50E4B1A700E4B1888B3
:101DD0004FF6FF73984207D01321FFF78FFC08B12D
:101DE00001F092F9002010BD084C2378002BF9D0A7
:101DF000074B1878FFF77EFC08B101F085F9002346
:101E00002370EFE7DC5B002054480020DA5B002001
:101E10004C480020F0B50B7805460C4689B0092BDC
:101E20002ED8DFE813F026002F003A000A00190030
:101E30002300FD0006013D000B0102F033FC0421EC
:101E4000FFF77AFC0246284600F0AEFAC0B109B0AE
:101E5000BDE8F04001F058B9FFF7B4FF02F046FCCE
:101E600070B109B0BDE8F04002F058BCFFF7AAFF1E
:101E7000F7E70122744B1A704B681A78734B1A708B
:101E800009B0F0BD0226704B1E704B681B78012B09
:101E9000F6D102F0B3FB3146D2E703226A4BEEE7FC
:101EA0000520FFF707F8684B1E78022E34D0032E6A
:101EB00056D0012EE4D11022002104A802F0ECFE3D
:101EC000624A237A12780C2B8DF810204FF003020F
:101ED000CDE9012008D03146284600F065FA0028F7
:101EE000CED001F011F9CBE763681846FFF7F4FB99
:101EF0000590181DFFF7F0FB069003F10800FFF7AF
:101F0000EBFB079001A802F0BBFA0028B8D03146DD
:101F1000FFF712FC0246DFE7237A13F0030012D02A
:101F200019464FF0000CC0F104021A44D2B20E461A
:101F300001316768C9B2914207F806C0F7D11B1A90
:101F40000433DBB223720122049262689B0804A866
:101F50000692059302F074FB002891D00221D7E786
:101F6000207A830702D0324631466CE7384E019022
:101F7000314601F011F9014618B12846FFF7F8FB88
:101F80007EE76168019A306802F08EFE019801F0E8
:101F900067F901460028F0D101A9304601F070F937
:101FA00001460028E9D104230493019B04A89B085F
:101FB00005933368069302F0B7FA074640B9254AFD
:101FC000237A11680B4413603268234B1A6057E779
:101FD00009281BD11F4B217A1A68114419601F4B25
:101FE0001B78002B3FF44CAF1D4C2388013B9BB268
:101FF0002380002B7FF444AF284600F08DF908B110
:1020000001F082F8174B1B88238039E7306801F014
:10201000EDF8014610B12846FFF7AAFB3946ACE7B8
:1020200001220E4B1A700F4A8B8813800C4A1380C2
:1020300026E70023094A13700A4AF8E7054B196896
:1020400000F020F902E700BFED5B0020EC5B002010
:10205000E05B0020E85B0020985B0020DB5B002059
:10206000E45B0020E65B0020ADDF7047AFDF704728
:10207000B2DF7047B3DF7047B5DF704762DF70478C
:102080002DE9F04305460F4695B0002800F0F38097
:10209000002900F0F0804B68002B00F0EC804FF638
:1020A000FF730380754B04AA03F1100614461868E9
:1020B0005968083303C4B3422246F7D141F2305382
:1020C0000DF10A0104A80293FFF7D8FF0446002887
:1020D00040F0CD8001202A1D02A9FFF7C5FF04466C
:1020E000002840F0C4809DF80A3001461C22AB71E4
:1020F0000DA802F0D1FD9DF834304FF4885943F01B
:102100000C038DF83430AB7901AE8DF80E3041F20E
:102110003253214603223046CDE91044CDE9124422
:102120000E94ADF80C3002F0B7FD9DF80630214654
:1021300023F01F0343F00303142208A88DF8063090
:10214000ADF8049002F0A8FDF423A888ADF82C3077
:102150000DF10C0805F1080308AA0DA90A940C94C6
:10216000CDE90886FFF782FF044600287FD10146AB
:102170001C220DA802F090FD9DF83430214643F05A
:1021800018038DF83430AB7903228DF80E3041F20C
:1021900031533046CDE91044CDE912440E94ADF8E8
:1021A0000C3002F079FD9DF80630214623F01F0324
:1021B00043F01303142208A88DF80630ADF80490FC
:1021C00002F06AFD1723A888ADF82C3008AA05F1A3
:1021D00010030DA90A940C94CDE90886FFF746FF79
:1021E0000446002843D101461C220DA802F054FDEC
:1021F0009DF83430214643F002038DF83430AB793A
:1022000003228DF80E3041F234533046CDE91044AC
:10221000CDE912440E94ADF80C3002F03DFD1123CF
:10222000ADF804309DF80630214623F01F0343F03B
:102230000303142208A88DF8063002F02DFD0223B6
:10224000A8880A93ADF82C3008AA05F120030DA93F
:10225000CDE908860C97FFF709FF044638B97B687B
:10226000AB62BB6803B1EB620122054B1A702046DA
:1022700015B0BDE8F0830E24F9E700BF190515007D
:102280002C5C00202DE9F04F05460E4687B0002853
:1022900039D04FF6FF7302889A4236D01C4B1B7818
:1022A0009BB34FF0100A1B4C4FEA11294FEA11481B
:1022B0000F0E07234FF0010B1022002102A86370BC
:1022C000ADF8063084F800A084F802B0E67084F817
:1022D000049084F80580A77102F0DEFC2B8A288820
:1022E000ADF80830002302A9ADF80C300DF106035B
:1022F000CDE904348DF80AB0FFF7BCFE1328D8D01E
:1023000007B0BDE8F08F0E20FAE70820F8E700BF1D
:102310002C5C0020255C00202DE9F04F05460E4680
:1023200087B0002837D04FF6FF7302889A4234D026
:102330001B4B1B788BB34FF0110B0027194C4FEA46
:10234000112A4FEA11494FEA116805231022002192
:1023500002A8ADF8063084F800B0667084F802A0D8
:1023600084F8039084F8048002F096FC2B8A288875
:10237000ADF80830012302A98DF80A300DF10603EB
:10238000CDE90434ADF80C70FFF774FE1328DCD0EF
:1023900007B0BDE8F08F0E20FAE70820F8E700BF8D
:1023A0002C5C0020255C00202DE9F04104460F46FE
:1023B000164686B060B34FF6FF7302889A4229D062
:1023C000154B1B7833B34FF01008144D0323102224
:1023D000002102A8ADF8063085F800806F70AE705D
:1023E00002F05AFC238A2088ADF8083001238DF8CA
:1023F0000A30002302A9ADF80C300DF10603CDE937
:102400000435FFF737FE1328E0D006B0BDE8F081B1
:102410000E20FAE70820F8E72C5C0020255C00205D
:1024200070B504460D4688B050B149B1826A3AB1E0
:102430000B88502B4AD005D8102B44D0112B54D0E8
:1024400008B070BD512BFBD18E79022EF8D10A89CC
:10245000038A9A42F4D18B7B043BDBB2022BEFD987
:102460009DF81630082243F001038DF816300B8AD0
:1024700001A8ADF818304B8A8DF81060ADF81A300D
:1024800001F114030021079302F006FCA18A2088C1
:1024900001AA0196CDF808D0FFF7EAFD40B3E36A40
:1024A00003B1984740F2FD13208804A9ADF8143019
:1024B000FFF7E2FD0028C3D0E36A002BC0D008B0CC
:1024C000BDE8704018478B882380B9E7C988038925
:1024D0009942B5D108238DF810302B8A12358DF82A
:1024E0001830059504A99047AAE74FF6FF73EBE76C
:1024F0009DF80030DB07D5D50026208804A9ADF86B
:102500001460FFF7B9FD0028D6D1297D4B1E072B9B
:102510003ED8DFE803F004192226282A3B2C6B8AD8
:102520008DF80460012B05D8062201212046FFF713
:102530003BFFBFE7012315358DF80C30029520468F
:10254000A36A01A998477BE701236A8A8DF80430C2
:102550009A42F0D806220221E8E702238DF80430DF
:10256000EDE70323FAE70423F8E70523F6E76B8A90
:10257000022B02D803220821D8E7B5F81530002B2A
:10258000ADF8083014BF06230723E7E70923E5E782
:102590000322CBE7ADDF7047AFDF70472DE9F04195
:1025A00007460D46164698468EB011B9084600F00B
:1025B000ABFD1C2200210DEB020002F06DFB9DF82B
:1025C0001C30002443F002038DF81C300123ADF8C9
:1025D00004706F462146032268468DF80630CDE927
:1025E0000A44CDE90C44089402F056FB98F80030F8
:1025F00021468DF8003098F8013014228DF8013012
:102600009DF8023002A823F01F0343F002038DF867
:10261000023002F041FB0A4801ABCDE9023702AAC1
:10262000149B07A90088ADF81060ADF81240ADF812
:1026300014600695FFF7B0FF0EB0BDE8F08100BF53
:102640004E5C002030B541F60A030446012087B0F5
:102650002C4A03A98DF80E00ADF80C30FFF79AFF55
:102660000546D8B92288E2B922894AB1264B42F6FA
:1026700024200093E16804F13C03FFF78FFFD8B9F1
:10268000228C4AB1214B42F626200093616A04F164
:102690003C03FFF783FF78B9A36B7BB9284607B0EB
:1026A00030BD1B4B42F629200093616804F13C03C6
:1026B000FFF774FF0028D7D00546EFE71A7842F6F7
:1026C00050208DF810205A8804A98DF81120120A84
:1026D0008DF812209A88DB888DF813208DF815303C
:1026E0001B0A8DF816300B4B120A8DF8142000933C
:1026F000072204F13C03FFF751FF002818BF0546ED
:10270000CCE700BF4E5C00203E5C0020365C002021
:10271000465C00202E5C002029DF70471822064B03
:1027200002FB0030002304220371C0E9042383600C
:102730008361C360704700BF685C002013B5024628
:1027400008464B68CC680093044B53F824404B690F
:1027500010F80C1BA04702B010BD00BF585C002051
:10276000182238B5174C237802FB03430122A270CC
:102770001A795869012A05D0032A1BD00F2000239B
:10278000A37016E0104A996915689A68DB68A2EB95
:102790000532B2F5805F184428BF4FF4806201EB28
:1027A000053100EB053038BF9208FFF7B5FF002870
:1027B000E5D138BD044B1B6803EB1030FEF710F871
:1027C000F5E700BF685C0020505C002070B5134D39
:1027D0006C78122C1FD02E783444E4B2A4F1120687
:1027E000F6B2112C88BF3446182606FB045420711B
:1027F000A26103C9A360049BC4E90401E360AB7850
:1028000023B100206B7801336B7070BDFFF7A8FF18
:102810001128F7D1F5E70420F7E700BF685C002036
:10282000F8B5831E012B40D8204CA378002B3CD058
:10283000002203282578A27031D0182169431C4E4C
:102840006018336880680133B0EB033F336014D8FD
:102850006B1CA5F11107DBB2FFB2112B88BF3B4601
:102860006078043101386070214410463260237072
:10287000FFF764FF2846FFF751FF6378ABB1A378F9
:102880009BB9FFF76DFF80B111280ED01823217876
:1028900003FB01410431BDE8F840FFF74FBF1823A7
:1028A00003FB05410D200431F5E7F8BD685C00200D
:1028B000505C0020002108B5094B1960094B1980B4
:1028C000997008460131FFF729FF1229F9D100203C
:1028D000054B1860054BC3E90000C3E9020008BDC1
:1028E000505C0020685C0020545C0020585C002094
:1028F000064A1368042B07D00B60591C116001684D
:10290000034A42F82310002318467047545C002005
:10291000585C002013B5CC180C43A40708D10093D1
:1029200013460A4601460120FFF750FF02B010BDD2
:102930001020FBE707B500220B460092014603205A
:10294000FFF744FF03B000BD0122034B5A64D3F8E4
:10295000440520F07F40704700A00C50082910B5B6
:10296000044602D0002000F0CFFBD4E90030BDE8DF
:1029700010401847204B21491A682F2300BF00BF81
:1029800000BF00BF00BF00BF00BF00BF8A422FD002
:1029900000BF00BF00BF00BF00BF00BF00BF00BF3F
:1029A00000BF00BF00BF00BF00BF00BF00BF00BF2F
:1029B00000BF00BF00BF00BF00BF00BF00BF00BF1F
:1029C00000BF00BF00BF00BF00BF00BF00BF00BF0F
:1029D00000BF00BF00BF00BF00BF00BF00BF00BFFF
:1029E00000BF00BF00BF00BF00BF00BF00BF00BFEF
:1029F000013BC3D1704700BF484800200024F400C9
:102A00004FF480620C4B10B5C3F89820BFF34F8F82
:102A1000BFF36F8F4FF4803301240848C0F80833A8
:102A20004460FFF7A7FFC4600020054B1860FFF764
:102A3000A1FF044B187010BD00E100E000A00C5095
:102A4000285E00201D5E002073B5002405460DF1B0
:102A500007000E468DF8074000F063FB104A5078DF
:102A60009178431CDBB2994208BF23461178994202
:102A700017BF1821042401FB0020067118BF8560D0
:102A80009DF8070018BF537000F053FB24B94FF0B6
:102A90008052044BC3F80021204602B070BD00BF35
:102AA000305E002000E100E0F7B50025254BC3F8BB
:102AB0004051D3F84021C3F84451D3F84421C3F81E
:102AC0004851D3F84821C3F84C51D3F84C311E4B30
:102AD0001968002931D0FFF737FF2F461B4B1C68C0
:102AE000041B24F07F440B68A34212D8E41A1D444F
:102AF0000B7CCE6963B14B690F7400938B69684698
:102B00000821134A019300F06DFA08B100F0FCFAB5
:102B1000AEB9104A104913780978994205D10133AA
:102B2000DBB2022B08BF002313700C4A42F823507B
:102B30004FF080520A4BC3F8002103B0F0BD31467C
:102B4000D1E700BF00A00C502C5E0020285E0020C2
:102B50005D2915001E5E00201F5E0020205E002003
:102B600000E100E02DE9F74F9F48A04A0378127872
:102B70009F4C9A423DD00133DBB2022B0ABF0022A8
:102B80001A46134602709B4A9B4952F823000022C2
:102B90001646154694460F683B1823F07F430B609A
:102BA000236813B942B1236006E0196881420ED947
:102BB00002B12360091A19604FF001094FF00008B3
:102BC00023688E4F0093BEB94FF0180A44E0401AB4
:102BD0000D44D968D3F81CE0C3F800C031B1DE6100
:102BE0001E467A1922F07F42C3E901217346012271
:102BF000D7E70026B146E1E73046F6697E4B4168EB
:102C00001A68DFF80CE28D1A25F07F457545836858
:102C100000F2CA802B440125002205742568C0E912
:102C200001220360C261002D40F0C6802060CAE727
:102C3000B878531CDBB2984208BF00230AFB02722B
:102C40003B7013799068022B256866D0032B00F047
:102C50009580012B00F095803A787B789342E7D1FC
:102C60002368B8F1000F05D1009A9A4202D1B9F158
:102C7000000F41D0002B00F0CF801F68FFF764FEEB
:102C80005D4B5F4E1C6805463378001B20F07F408B
:102C9000033093B94FF480324FF48061594BC3F83D
:102CA0000423594AC2F8981191614FF00108C3F802
:102CB0000080FFF75FFE86F8008087422CBFE11995
:102CC0002118504C21F07F41C4F84015FFF73CFE1D
:102CD000401B20F07F40491B033021F07F41884298
:102CE0000AD9FFF731FEC4F84005FFF743FE4FF461
:102CF0008062454BC3F818210022444B1A7003B080
:102D0000BDE8F08F58450BD05A46DBF81CB0BBF13C
:102D1000000FF7D1002303749EE7AB462A46F6E77F
:102D2000904212D1D5F81CC0C4F800C0BCF1000F0D
:102D30000BD10121334B0192D9602F4BC3F800C056
:102D4000324B1970FFF716FE019ADBF81C10DBF806
:102D50000030D16111B10A6813440B602368AB42A3
:102D600018BF48F00108D5E701232A74ED69002D4A
:102D7000FAD1002B3FF470AF25606DE700231A46AF
:102D8000F5E7057C002D7FF467AFD36843601169D8
:102D900081605169C160926982611C4A1278AA42BD
:102DA00008BF1D46456029E7521A22F07F429A4229
:102DB0002CBF00239B1A2EE72A689A422AD3D21AE4
:102DC0002A60C56132E75B1AD169154639B10A46F6
:102DD00011688B42F7D8C91A116011462A46036060
:102DE000C161D061EFE600BF1F5E00201E5E0020C3
:102DF0002C5E0020205E0020285E0020305E002037
:102E00001D5E002000A00C5000E100E01C5E0020D0
:102E1000FEFF7F002A46DBE7FFF7F2FD6CE700BF0D
:102E200010B5FFF7EDFD00210B22174BE0241980B0
:102E30009A70164B16481960164B1970164B19707C
:102E40004FF08053C0F8803180F81C4303600122AA
:102E5000124B5A60DA60D3F8082522F0030242F0E0
:102E60000202C3F808250C22C3F81025D3F8042564
:102E700022F00302C3F8042580F8CA43FFF764FD7B
:102E8000074B1860084610BD305E00202C5E002005
:102E900000E100E01F5E00201E5E002000A00C503C
:102EA000285E0020074B9B784BB132B128B10368F4
:102EB000187C20B959745A61704707207047082060
:102EC000704700BF305E00202DE9F74F234F80464A
:102ED000BB788B469146002B3CD000283AD0042981
:102EE00036D94369002B35D00024437C0DF107000F
:102EF000012B0CBF8A46A2468DF8074000F011F95D
:102F00007D78BB786E1CF6B2B34208BF26463B788C
:102F1000B3421BD0182303FB05750123C5F80880B5
:102F20002B71FFF711FDC5E905A9C5E9030B7E70FB
:102F30009DF8070000F0FDF874B94FF08052084B7F
:102F4000C3F80021204603B0BDE8F08F0424EFE76A
:102F50000724F7E70824F5E70424F3E7305E0020B0
:102F600000E100E0064A92783AB130B1426922B1FC
:102F7000002202210274FFF767BD0820704700BFDE
:102F8000305E0020044B9B781BB103210020FFF72B
:102F90005BBD0820704700BF305E002010B50446BE
:102FA00012F0030010D1094B1A604B1CDB0012FA1F
:102FB00083F3074A1360074B1870074B1870074BD1
:102FC0001C80074B198010BD0720FCE7485F0020DC
:102FD000445F0020405F0020415F00203E5F0020F2
:102FE0003C5F00202DE9F7432A4F06463B880D46FB
:102FF0008B42904649D300240DF107008DF807401D
:1030000000F08FF8244B25481A78254B008893F858
:1030100000C0D2B284455FFA8CF13CBF0131CCB222
:10302000A2422CD01C781978E4B28842CAB294BF6C
:10303000002201321A709DF8070000F07AF84FF66E
:10304000FF739C4223D0DFF86090D9F8003003EB87
:10305000C40243F83480AEB1A5B1124B38881B6866
:103060002A4604FB0030314601F01EFED9F800303C
:1030700003EBC4039D80002003B0BDE8F0834FF64E
:10308000FF74D8E700239380F5E70920F4E70420D4
:10309000F2E700BF3E5F0020415F00203C5F002060
:1030A000405F0020445F0020485F002070B5104C56
:1030B000104D22782B789A4200D170BD0E480F4AED
:1030C00006880F4823781268006802EBC30103FBEF
:1030D000060052F83320898890470A4922780988E7
:1030E000D3B2914294BF002301332370E1E700BFC4
:1030F000415F0020405F00203E5F0020485F0020CD
:10310000445F00203C5F00201FB5002101AACDE9EB
:10311000021044F20100ADF80410FDF7A1FB05B068
:1031200000BDEFF3108372B6003B18BF012303709C
:10313000704700B962B670472AB1138801448842CB
:1031400004D1184670474FF6FF73F7E710F8012BCC
:103150005BBA5A40C2F30313534083EA03335A0164
:1031600002F4FF5253409BB2E9E700000020064BF7
:10317000064A1870064B1A601022C3E90300C3E91F
:103180000120C3E90500704728850020685F002002
:103190004C5F00200020704730B5F1B10022124B87
:1031A0000A605C68DCB1B0F5167F1AD84FF4177569
:1031B000D868013C01305C60D8601C68186905FB68
:1031C00000440C6001248440013000F00F001861BD
:1031D000104699692143996130BD0E20FCE7042017
:1031E000FAE70C20F8E700BF4C5F0020F0B51B4B5E
:1031F0009A688AB35D694FF41777AC1A04F00F042C
:1032000021461E6807FB016C60450ED101259869B7
:103210008D406840986100204FF0010E5E680025E7
:10322000D3F818C0164471440BE0013101F00F01CE
:103230008D42E7D11020EFE752B10125013A01F0AC
:103240000F040EFA04F414EA0C0FA6EB0207F3D0F5
:103250000DB1C3E90172F0BD0420FCE74C5F002012
:103260004FF41771054A13691268013B03F00F030D
:1032700001FB0323C3F85802002070474C5F002075
:1032800030B5C0B1B9B10E4BDA68B2B14FF41775B1
:10329000013ADA609A681C6801329A605A6905FB43
:1032A00002440460D4F8580201320860002002F0A1
:1032B0000F025A6130BD0E20FCE70420FAE700BF80
:1032C0004C5F00203FB40C49086890B10B4B1C6860
:1032D0007CB100230A4A8DF8043015680B60CDE9F3
:1032E0000250136004AB13E90700234604B030BC5E
:1032F000184704B030BC70472C850020448500205E
:1033000034850020DC2810B509D0DD2810D0C02875
:1033100016D1FFF7D7FF0E4B0E4A1A6010BD0E4AAA
:103320000E4B19681368581C1060C022CA54F2E78B
:10333000094A0A4B19681368581C1060DB22F5E72C
:10334000064B054A196813685C1C1460C854E2E710
:103350005C480020913315002C8500203485002026
:10336000C02802BF014B024A1A6070475C48002027
:103370009133150008B5DB2000F0C8FB10B9024BF3
:10338000024A1A6008BD00BF58480020AD3415003D
:10339000C02810B409D0DB280AD0084B084A1968A5
:1033A00013685C1C1460C85405E010BCFFF78ABFAA
:1033B000044B054A1A6010BC704700BF34850020DA
:1033C0002C8500205C4800200533150010B5064A06
:1033D000064C12682368D05C00F098FB10B9236893
:1033E0000133236010BD00BF4085002038850020D8
:1033F00008B5C02000F08AFB28B9034B1B6813B93D
:10340000024B034A1A6008BD388500205848002046
:10341000CD3315007FB51C4C1C4E1D4D2268336802
:103420009A4219D31B4B2B60FFF7E2FF002829D1EA
:103430000122194B1A70194B1B681BB38DF804201D
:10344000174A126802922268039204AA12E907003E
:1034500004B0BDE870401847114B22681B689A5CA5
:10346000C02A03D022689B5CDB2B05D10D4B2A6858
:103470009A4204BF0C4B2B602B689847042801D05C
:103480001128CBD104B070BD388500203C850020C8
:1034900058480020F133150048850020448500205D
:1034A00040850020CD3315007533150010B50C4A4A
:1034B0000C4C12682368D35CC02B03D0DB2B0DD0DF
:1034C000042010BDDC2000F021FB0028F9D1236886
:1034D000054A01332360054B1A60F2E7DD20F2E76D
:1034E0004085002038850020CD3315005848002045
:1034F0001FB503780446032B05D1164B1B78022B0E
:1035000025D1FFF787FF2378042B20D1124B1A68AF
:1035100062B1124B1968124B1B68994206D2114BCB
:1035200020791B6804B0BDE8104018470E4B1B689B
:103530006BB102210292094A8DF8041012680392BD
:1035400004AA12E9070004B0BDE81040184704B00F
:1035500010BD00BF48850020348500202C85002048
:10356000308500205C48002044850020014B186015
:103570000020704744850020F0B50C4E87B03778A6
:1035800097B96C460A4D0FCD0FC495E80300072389
:1035900084E80300074A3946684600F069FA08B92A
:1035A0000123337007B0F0BD0020FBE74885002001
:1035B0002C051500F13415000022024B1A7000F0A2
:1035C000B9BA00BF4885002010B5C0B10D4B1A78BC
:1035D000012A04D0022A0CBF0420082010BD0024B8
:1035E000094A1460094A1160094A106002221A70DF
:1035F000084B094A1A60FFF70DFF2046EEE710203E
:10360000ECE700BF48850020388500203C8500207D
:103610004085002058480020F1331500054B064A2C
:1036200018600020054B1960054B1860054B1A60A7
:10363000704700BF348500206133150030850020BD
:103640002C8500205C4800200022064B06481B7891
:103650000421DB00DBB203705B4242708270C370F6
:10366000FFF7B2BF8885002049850020024610B5CB
:10367000294C2378012B11D0022B1DD00BBB02BB90
:103680002648FFF76FFC08B1FFF73EFD244B1B688F
:10369000BBB1BDE81040234A10781847012A10D169
:1036A000214B1968214B06311868FFF78DFF08B1CF
:1036B000FFF72AFD02230CE0022A1AD0032A01D0C8
:1036C00052B110BD1A4A1368013303F007031360A7
:1036D000002300222370CCE7164B41F6E1210F486E
:1036E0001A60FFF7F1FB0028EBD0BDE81040FFF7B0
:1036F0000BBD104A1368052B0AD0013313600A4B27
:10370000BDE810401968094B06311868FFF75CBF27
:103710000122044B1A70DBE79885002058850020B1
:1037200094850020528500207C8500208085002023
:103730008485002054850020F0B585B004AB03E9F2
:1037400007009DF80400032878D8DFE800F008029D
:10375000AAAD012005B0BDE8F040FFF787BF039E8A
:10376000534C032E40F28480029D6B7813F00F02BD
:1037700069D00E2A7CD1042E59D02A7802F0C001DB
:10378000C02954D11A44AB781A44EB781A4412F089
:10379000FF024CD1B71E39462846FFF7CDFCEB5B44
:1037A000834244D143492A780B6802F00702D8B219
:1037B00082422FD1013303F007030B60FFF744FF70
:1037C00001223D4B30461A70FFF74AFD08B1FFF762
:1037D0009BFC4FF416703649FFF7DEFCB0B10428AD
:1037E00010D105213548FFF719FF08B1FFF78CFC10
:1037F000334B1B68002B59D04FF0000005B0BDE8DB
:10380000F04018470020FFF77FFCEAE74FF41671FD
:103810002068E8E74FF416712068FFF7FFFE08B153
:10382000FFF772FC05B0BDE8F040FFF70DBF4FF4A5
:1038300016712068FFF7F2FE002837D005B0BDE80A
:10384000F040FFF761BC2A78A97813440B44E9786B
:103850000B44DBB263B91B4B1B78013383EAD20301
:1038600013F0070304D1184A03201370FFF7FEFE7C
:1038700025681DB14FF416712846DBE74FF416702A
:103880000B49FFF789FC18B94FF416712068D1E78E
:10389000042802D105210948CCE72846FFF734FC6B
:1038A000F8E705210548C5E70320C7E705B0F0BDE7
:1038B0008C85002088850020788500204D8500209B
:1038C0009085002084850020528500200220FFF78B
:1038D000CDBE0000074B10B5044618600648FFF740
:1038E00045FE08B1FFF710FC002C0CBF0E20002095
:1038F00010BD00BF9085002039371500002301213D
:10390000174A10B51360174A17481360174A136017
:10391000174A1370174A1370174B184A1960184B3F
:103920001960184B1970FFF7BDFA08B1032010BDDC
:10393000FFF71CFC0028FAD1FFF71EFE0028F6D185
:10394000114C4FF416702146FFF726FC0028EDD1EC
:1039500020684FF41671BDE81040FFF75FBE00BF4E
:10396000808500207C8500204405150054850020BA
:10397000788500209885002088850020CD381500A6
:1039800084850020528500208C85002008B5002306
:103990000B4A13600B4A1360FFF7FCFB08B1FFF7FB
:1039A000B3FBFFF709FE08B1FFF7AEFB0648FFF7D0
:1039B000D9FA042802D10020FFF7A6FB002008BD99
:1039C00094850020908500205885002037B5044656
:1039D0000D4698B191B10022094B0192197859B165
:1039E00001A91A70FFF74CFC019B063B2B80236852
:1039F0000433236003B030BD0420FBE70E20F9E759
:103A0000788500200438FFF7F1BB000013B5047877
:103A1000012C13D104238DF80030436822461B7813
:103A20000F4910488DF8043000F032FA0E4B1C702C
:103A30000E4B68461B68984702B010BD022C09D196
:103A4000C3680122064907488DF80040019300F041
:103A50001FFAEDE7002CEFD103238DF80030E7E7E4
:103A6000A185002060480020A08500209C850020C2
:103A7000F0B589B06C4606461E4D17469C460FCDE4
:103A80000FC495E80F0084E80F00736900220693C5
:103A9000337C8DF81CC0003B18BF01238DF8143017
:103AA000737C6946002B0CBF00230E238DF8153064
:103AB000F36811480293B368039333680193736802
:103AC00000930E4B1F600E4B1A700E4A00F0B4F8B4
:103AD00068B9336801330AD09DF81D3013B9064820
:103AE00000F044FA01220849034800F0D1F909B076
:103AF000F0BD00BF48051500604800209C850020EF
:103B0000A08500200D3A1500A1850020074908B5C1
:103B100001220870064800F073F9112803D000282C
:103B200018BF032008BD0420FCE700BFA2850020C9
:103B30006048002008B5024800F0FEF8002008BDEB
:103B4000604800201FB501238DF80030044B8DF82C
:103B5000080001916846D3E90012904705B000BD06
:103B6000A48500205F2800F01F034FEA50110BD8F6
:103B7000084A52F8212002EB8303D3F88010064A4A
:103B80000A40C3F8802070470022203352F82330C7
:103B9000FFDE00BF68051500F0F0FCFF5F2800F0B5
:103BA0001F014FEA501206D8044B53F8222001237C
:103BB0008B405360704700235B60FFDE6805150093
:103BC0005F2800F01F034FEA50110DD8094A52F840
:103BD000212002EB8302D2F88010074B0B4043F008
:103BE0000303C2F8803070470022203352F823309C
:103BF000FFDE00BF68051500F0F0FCFF5F2800F055
:103C00001F034FEA50110DD8094A52F8212002EB48
:103C10008302D2F88010074B0B4043F00203C2F836
:103C2000803070470022203352F82330FFDE00BF7F
:103C300068051500F0F0FCFF1C232DE9F0413C4E17
:103C40000779054603FB0763DB7E0C469046002B95
:103C50006CD10868431C04D0FFF7A0FF2068FFF771
:103C6000AFFF6068411C01D0FFF77CFF2A68A169A3
:103C7000237D607DC2F824152A680343C2F86C35A1
:103C80002B68D4E90012C3F80416C3F80C26237D70
:103C9000012B13D1A068421C01D0FFF763FFE0683D
:103CA000431C04D0FFF77AFFE068FFF789FFD4E9EF
:103CB00002212B68C3F81016C3F808261C237B4387
:103CC000F218C2F804802269F250B8F1000F1ED039
:103CD00000232A68217FC2F84C31D2F84C212A688F
:103CE000C2F86831D2F868212A68C2F81431D2F8D3
:103CF00014212A68C2F82431D2F824312B680D4AE5
:103D0000C3F804232868C0F3073000F0A5F908229F
:103D10002B680020C3F800251C2303FB07664FF423
:103D20008073F08230767383BDE8F0810820FBE772
:103D3000A48500202002080400212DE9F04102683A
:103D40000579C2F800151C22244C034602FB0542EB
:103D500052689AB102682249C2F808130268012029
:103D6000C2F34241C2F30432904001F120021D49E6
:103D700041F82200BFF34F8FBFF36F8F4FF0FF3139
:103D80001A68D2F80406D2F80C86D2F81066D2F877
:103D90000876C2F80416C2F80C161B688842C3F8ED
:103DA0001016C3F8081601D0FFF728FFB8F1FF3F3F
:103DB00002D04046FFF722FF7A1C02D03846FFF7B8
:103DC0001DFF731C02D03046FFF718FF1C2303FBB6
:103DD00005440023E3766360BDE8F081A4850020FC
:103DE0002002080400E100E01C210279034B01FBE2
:103DF0000233987D003818BF01207047A485002049
:103E000001F06043B3F1005F2DE9F04104460F4635
:103E1000904637D1FFF7E8FF002835D11C232679DB
:103E20001A4D03FB0656B082B76086F816802279D9
:103E3000216803FB0253C1F86801D1F868112168B9
:103E40009E7DC1F83001D1F830119F6821685B6810
:103E5000C1F83C77C1F84067012621680E657BB93F
:103E60002168D1F86831D1F830010343F9D01C231F
:103E7000002803FB02554FF0000318BF0F20AB755D
:103E8000BDE8F0811020FBE71120F9E7A4850020B0
:103E900001F06043B3F1005FF0B561D11C230579F7
:103EA000304C03FB05435F681FB103682E4EC3F817
:103EB00008631C2303FB0543DE7D4EB11E7E002EEE
:103EC0003ED01FB10368284AC3F804231120F0BD77
:103ED0003746DA75D9605E761C2303FB05452E76DE
:103EE00000250368C3F84C51D3F84C310368C3F87C
:103EF0002451D3F824310368C3F80417C3F8082702
:103F000003680FBB01229A621C220579036802FB39
:103F100005425268FAB9D3F84C21D3F82411D3F8EA
:103F200014010A430243F6D01C2303FB054400237B
:103F3000984218BF0320E375994218BF0F20C6E7C7
:103F4000164601271961C7E7D3F8002242F0200284
:103F5000C3F80022D8E7044A0020C3F80423B6E7D8
:103F60001020B4E7A485002020000800704700005E
:103F70007FB5374BD3F81451002D47D00022C3F83A
:103F80001421D3F8141102218DF80010D3F88014F5
:103F90006846C3F880140391D3F80C378DF80830C5
:103FA0002C4BD968DA7501911A76D3E90012904743
:103FB000274BD3F8242172B10021C3F82411D3F880
:103FC0002421244AD07D30B1D175D3F80C07D168B3
:103FD000C0B2FFF7B7FD1E4AD2F86831A3B1002185
:103FE000C2F86811D2F868311A4B987D60B1D2F8E6
:103FF000442768468DF808209A688DF800100192D1
:104000009975D3E90012904704B070BDD3F84C21E4
:10401000002ACDD0C3F84C51D3F84C210D4AD3F827
:104020000C17D07DC9B28842C2D1147ED16864B168
:10403000D3F8006226F02006C3F800621369D47535
:10404000D3601576FFF77EFDB2E7D475FAE700BFBF
:1040500000A00450A485002000284FEA411113DB82
:1040600000F1604303F5614383F80013012300F07E
:104070001F024009800000F16040934000F561405C
:10408000C0F8803103607047024B00F00F001954F4
:10409000704700BF14ED00E019491A4A1A4B00F0AE
:1040A00010F81A491A4A1B4B00F00BF81A491B4A20
:1040B0001B4B00F006F81B491B4A1C4B00F001F893
:1040C00006E0521A03DD043A98588850FBDC70472A
:1040D0001749184A00F009F81749184A00F005F87E
:1040E0001749184A00F001F806E00020521A02DDD4
:1040F000043A8850FCDC7047FCF742FFFCF7C0FB39
:1041000040480020684800201C4D150068480020E9
:1041100068480020444D1500684800206848002089
:10412000444D15006848002068480020444D1500A3
:1041300068480020A0860020A0860020A0860020DD
:10414000A0860020A0860020FEE7FEE7FEE7FEE74F
:10415000FEE7FEE7FEE7FEE7FEE7FEE7FEE700BF5D
:1041600018DF70470129F8B50D4614461F4607D0E1
:10417000032912D014B32046BDE8F840FEF7C4BFAF
:104180000F4B1B78052BF5D10E4B1B68002BF1D084
:104190003A46214604209847ECE7094E3378022B33
:1041A000E8D1094B5B689847064B35701E68002EB6
:1041B000E0D03A4621462846B047DBE7F8BD00BFCD
:1041C00098860020CC850020C0850020012200B503
:1041D000074B89B01A700523DDE906018DE803005D
:1041E0008DF8083002AB0FCBFCF7FAFF09B000BD29
:1041F000DC85002000B589B01822002102A800F05B
:104200004BFD032203468DF808200A4A1288ADF8B8
:104210000A20094A516803919168D2680491DDE946
:1042200006018DE8030005920FCBFCF7D9FF0020B3
:1042300009B000BD0086002084860020012300B55F
:1042400089B08DF808300C4B1B88ADF80A304FF45C
:1042500080530693094BDDE906015A6803929A6878
:10426000DB688DE803000593049202AB0FCBFCF7EB
:10427000B7FF002009B000BD008600208486002022
:1042800000B589B01822002102A800F005FD042223
:104290000346DDE906018DE803008DF808200FCB09
:1042A000FCF79EFF09B000BD30B5002589B002AC17
:1042B00018220021204600F0EFFC182200212046A1
:1042C00000F0EAFCDDE90601084B8DF808501B8878
:1042D000ADF80A30064BDB688DE80300059394E8DF
:1042E0000F00FCF77DFF284609B030BD0086002096
:1042F00084860020022273B5144B154D154E1D60A7
:10430000154B1A70FCF7B6FA044680B1284631689E
:10431000FEF710FB042804D1FCF772FC0528FBD142
:10432000F4E780B102B0BDE87040FEF7EDBE4FF497
:1043300080503168FCF7E8F92346224603212846DD
:104340000094FFF70FFF02B070BD00BFD0850020C2
:10435000D4850020948600209886002010B50B4B51
:104360001B788BB90A48FEF7FDFD08B1FEF7CCFEBD
:1043700000224FF434010648FEF7A6FD044608B1BA
:10438000FEF7C2FE204610BD0824FBE7DC850020B6
:10439000E0850020F0B51F46032385B00646CDE931
:1043A0000030940868460D4602910394FFF7D8FE4A
:1043B000E0B1B5F5805F11D801236846CDE900363C
:1043C000CDE90254FFF7CCFE80B903236846CDE95E
:1043D0000036CDE90254FFF7C3FE07E03B463A46FC
:1043E000E91BF01BFFF7D6FF0028E5D005B0F0BDB4
:1043F00030B50024164B85B00193164B16491C703E
:10440000164B01A8CDE902441C80FEF771FA05465F
:10441000C0B94FF48053104A014653601048114A06
:10442000FEF740FD08B1FEF76FFE00224FF43401A5
:104430000D48FEF749FD08B1FEF766FE0022012493
:104440000A4B1A6028460A4B1C7005B030BD00BFED
:104450006541150002860020D485002000860020DA
:1044600074051500CD411500E08500209C860020D4
:1044700098860020014B1860704700BFCC85002053
:1044800070B51F4C43680FCB84E80F0022785607A5
:1044900001D595072ED1D4E90131E46843EA010042
:1044A0002043800726D1174E0B442344B1F5383FF3
:1044B000336021D814498B421ED8D30718D412F088
:1044C000020F124A124B08BF1346124D124A2A60BD
:1044D000124AC5E90123124B1B78012B0ED1FFF7BD
:1044E0003DFF044610B92B6830689847204670BDE0
:1044F0000C4BEAE70624F9E70C24F7E70824F5E774
:10450000848600209486002000501400A9421500E3
:10451000F5411500C0850020F542150081421500C7
:10452000988600203D4215002DE9F74307460028F4
:1045300054D083689B0753D12C4B1B78052B51D14A
:104540002B4E42683368DFF8AC8003EB82039500A2
:10455000D8F80020934207D94FF0FF330C24336082
:10456000204603B0BDE8F083FFF7F8FE04460028BC
:10457000F6D1BF68FCF77EF9DFF87C9080B12A465F
:1045800039463368D9F80000FEF7C4F9042804D18D
:10459000FCF736FB0528FBD1F1E788B10446DFE7DD
:1045A000306823462A46394600F58050FCF7E4F887
:1045B00000953B4622460121D9F80000FFF7D2FDC5
:1045C00033681D44D8F8003035609D420CD1FCF7AB
:1045D00051F90028C4D1FCF7A9F8C1E70E24BFE7C0
:1045E0001024BDE70824BBE70924B9E7988600201A
:1045F0009C86002094860020D085002070B50B4B4F
:104600001D6885B90A4E3378042B0CD1094C0A4B2E
:1046100021781A780948FCF70DF810B90523337092
:1046200070BD2570FCE70820FAE700BF9C860020DB
:1046300098860020028600208486002003860020C1
:10464000F8B5144B07461A78032A04D0042A04D07C
:1046500008242046F8BD04221A700F4B1B68002B5B
:10466000F6D1FFF77BFE04460028F2D10B4E7B68A3
:1046700030789D0000EB8303802B09D8084B2A4635
:104680001844B96800F010FB33781D443570E0E73A
:104690000924DEE7988600209C8600200286002000
:1046A0000386002038B50D4C2378052B14D10C4B14
:1046B0000C4D1A682B689A420ED106232370FFF71F
:1046C0004DFE40B9084B29681B685868FBF7ECFFA2
:1046D00008B90723237038BD0820FCE7988600201E
:1046E0009C86002094860020D085002010B5084BC1
:1046F0001B78072B0AD10748FEF734FC08B1FEF7F8
:1047000003FDBDE81040044B9B681847082010BD0E
:1047100098860020E0850020C085002000B589B083
:104720001822002102A800F0B7FA06228DF808200E
:104730000C4A03461278052A11D10B4A0B4912681C
:104740000968521A18BF01228DF81C20DDE9060104
:104750008DE803000FCBFCF743FD09B000BD00223C
:10476000F2E700BF988600209C86002094860020F7
:104770002DE9F0418CB005A8FCF78FFE089C002CB9
:1047800040D00B9E04F58053B3422FD94FF44053D1
:104790009B681D4FA6F580589C4207EA58070DD824
:1047A0006FF30C083B46A4EB080208F5805106EBBA
:1047B0000800FFF7EFFD0CB0BDE8F081012507F51B
:1047C000805301A8CDE90153CDE90335FFF7C8FCBB
:1047D0000028F0D14FF4805301A8CDE902330195B0
:1047E0000495FFF7BDFC0028E5D1D9E70123CDE909
:1047F00001364FF48053A40801A803930494FFF7F3
:10480000AFFCD8E72046D6E700F0FFFF00B58DB03B
:1048100005A8FCF742FE099858B1089B5BB10B9ABA
:10482000134400228008039001A8CDE90123FFF77B
:1048300097FC0DB000BD4FF48053F2E700B591B086
:1048400009A8FCF72AFE0D9A12B9002011B000BD8C
:104850000C9BFBB10F990B4403204FF4A811920855
:10486000CDE9010101A803930492FFF779FC002828
:10487000EBD00C9B8BB10F9A134403214FF4A81279
:1048800007930D9B05A89B08CDE905120893FFF738
:1048900067FCDBE74FF48053DEE74FF42323ECE7BC
:1048A00030B58DB005A8FCF7F8FD0898C0B10B9C99
:1048B00000F58053A34215D94FF440539B689842AA
:1048C0001CD8A4F580530E4A23F4FF5525F01F058C
:1048D00002EA530305F58051421B6019FFF75AFDA8
:1048E0000DB030BD03224FF480538008049001A81E
:1048F000CDE901230394FFF733FCF1E70E20EFE746
:1049000000F0FFFF53B94AB9002908BF00281CBFB7
:104910004FF0FF314FF0FF3000F0ACB9ADF1080CB3
:104920006DE904CE00F006F8DDF804E0DDE90223CD
:1049300004B070472DE9F047064682B01746084696
:104940000A9AB4460D46002B4DD18F42BE4665D91A
:10495000B7FA87F149B1C1F120038D4007FA01FE92
:1049600006FA01FC26FA03F31D434FEA1E461FFA1E
:104970008EF04FEA1C43B5FBF6F406FB145543EAF0
:10498000054304FB00F59D4206D91EEB030302D24A
:104990009D4200F24C81013C5B1B1FFA8CFCB3FB77
:1049A000F6F506FB153305FB00F04CEA034C6045B9
:1049B0000AD91EEB0C0C2CBF01230023604502D941
:1049C000002B00F03781013DACEB000C45EA0440C0
:1049D000002422B12CFA01F30021C2E90031214662
:1049E00002B0BDE8F0878B4208D90AB1C2E9006184
:1049F00000242046214602B0BDE8F087B3FA83F4D4
:104A0000002C4DD18B42C0F00581B74240F20281AB
:104A10002046002AE3D0C2E900C5E0E7002F00F0FD
:104A2000A2801946B7FA87F3002B40F0B480C31B6D
:104A30001FFA8EF83F0C01244FEA1C40B3FBF7F538
:104A400007FB153340EA034308FB05F098420AD9F7
:104A50001EEB03032CBF01260026984202D9002E2C
:104A600000F0E280013D1B1A1FFA8CFCB3FBF7F04B
:104A700007FB10334CEA034C08FB00F363450AD9EB
:104A80001EEB0C0C2CBF01260026634502D9002E1C
:104A900000F0C7800138ACEB030C40EA054098E712
:104AA000C4F12008A34006FA04FAA14027FA08FC42
:104AB00020FA08F007FA04F94CEA030C26FA08F386
:104AC0004FEA1C460B431FFA8CFE190CB0FBF6F79D
:104AD00006FB170041EA004107FB0EF088420AD9A5
:104AE0001CEB01012CBF01250025884202D9002DB5
:104AF00000F0B280013F091A9BB2B1FBF6F006FB51
:104B0000101100FB0EFE43EA01439E450AD91CEB3F
:104B100003032CBF012100219E4502D9002900F08A
:104B20009E80013840EA0740A3EB0E03A0FB09E199
:104B30008B4276460F4602D307D1F24505D2BEEB33
:104B4000090661EB0C0101380F4652B1BAEB0601C0
:104B500063EB070303FA08F5E140E3400D43C2E9C4
:104B6000005300243BE77308B8464908019743EA1D
:104B7000C0734FEAC67C1C0C9BB244EA014443EA72
:104B80000443B4FBF7F4B1FBF7F51F21019844EAA5
:104B900005441B1A50E7194607FA03FEC3F1200328
:104BA00000FA01F44FEA1E47D84026FA03F31FFA31
:104BB0008EF806FA01FC2343B0FBF7F51C0C07FB4B
:104BC000150044EA004005FB08F484424AD91EEB74
:104BD00000002CBF01260026844200D98EB3001BA2
:104BE000013DB0FBF7F404FB08F6A146019607FB74
:104BF00019009BB2019E43EA0043B342C6D21EEBAA
:104C000003032CBF01200020B34200D2A8B109F158
:104C1000FF34BBE7B6EB070C60EB030301201D4636
:104C2000F7E6F444023836E7023D73441BE7023CE2
:104C30007344B1E6F444023DC6E6A9F102047344AC
:104C4000A4E7AEEB0404023D2044B0FBF7F404FB00
:104C500008F6A1460196CAE7023F61444BE70238D5
:104C600063445FE7001BB0FBF7F404FB08F6A146C2
:104C70000196BCE7704700BF0139024410B590426D
:104C800001D1002005E0037811F8014FA34201D0C3
:104C9000181B10BD0130F2E702440346934200D1D5
:104CA000704703F8011BF9E70A44431E914200D103
:104CB000704710B511F8014B914203F8014FF9D13B
:104CC00010BD034613F8012B002AFBD1181A013836
:044CD0007047000029
:104CD4001C4D1500404800200A000000444D1500FA
:104CE4006848002000000000444D1500684800207A
:104CF40000000000444D150068480020000000003A
:104D0400684800208E0F0000A086002000000000EC
:084D1400A08600200000000051
:104D1C00FFFFFFFFF84700200090D003FF000000CA
:104D2C0032000000FFFF0000CD3315006133150089
:084D3C0000A00450000000007B
:107C0000F1109E1E797A222003000000640000001B
:107C1000CC00000000001800CD00000000000400AF
:107C2000D200000020000000000000000000000062
:107C30000000000000000000000000000000000044
:087C400000000000000000003C
:020000041000EA
:0410140000001500C3
:0410180000E01700DD
:040000050015409909
:00000001FF
