:1000000080FF0320E95C0000995D00009B5D00001B
:100010009D5D00009F5D0000A15D0000A35D0000EC
:100020000000000000000000000000002517000094
:10003000A75D000000000000A95D00007D21000018
:1000400000000000000000000000000000000000B0
:1000500000000000000000000000000000000000A0
:100060000000000000000000000000000000000090
:100070000000000000000000000000000000000080
:100080000000000000000000000000000000000070
:100090000000000000000000000000000000000060
:1000A0000000000000000000000000000000000050
:1000B000491700002D1E0000AD5D0000C14000008A
:1000C0000000000000000000000000000000000030
:1000D0000000000000000000000000000000000020
:1000E0000000000000000000000000000000000010
:1000F0000000000000000000000000000000000000
:1001000000000000000000000000000000000000EF
:1001100000000000000000000000000000000000DF
:1001200000000000000000000000000000000000CF
:1001300000000000000000000000000000000000BF
:10014000AD5D0000AD5D000000000000000000009B
:1001500000000000000000005117000059170000C7
:10016000AD5D000000000000AD5D000081240000D6
:10017000AD5D000000000000000000000000000075
:100180000000000000000000AD5D00000000000065
:10019000AD5D0000AD5D000000000000000000004B
:1001A000000000000000000000000000000000004F
:1001B000000000000000000000000000000000003F
:1001C000000000000000000000000000000000002F
:1001D000000000000000000000000000000000001F
:1001E000000000000000000000000000000000000F
:1001F00000000000000000000000000000000000FF
:1002000000000000000000000000000000000000EE
:1002100000000000000000000000000000000000DE
:1002200000000000000000000000000000000000CE
:1002300000000000000000000000000000000000BE
:10024000AD5D0000000000000000000000000000A4
:10025000000000006117000000000000AD5D00001C
:10026000000000000000000069170000AD5D000004
:10027000000000000000000000000000000000007E
:10028000000000000000000000000000000000006E
:10029000000000000000000000000000000000005E
:1002A000000000000000000000000000000000004E
:1002B000000000000000000000000000000000003E
:1002C000000000000000000000000000000000002E
:1002D000000000000000000000000000000000001E
:1002E000000000000000000000000000000000000E
:1002F00000000000000000000000000000000000FE
:1003000000000000000000000000000000000000ED
:1003100000000000000000000000000000000000DD
:1003200000000000000000000000000000000000CD
:1003300000000000000000000000000000000000BD
:10034000AD5D0000000000000000000000000000A3
:100350000000000000000000F1540000AD5D00004E
:10036000AD5D0000AD5D0000AD5D0000FD3F000033
:10037000AD5D0000AD5D0000AD5D0000000000005F
:10038000AD5D0000AD5D0000AD5D0000AD5D000045
:10039000AD5D0000AD5D0000AD5D0000AD5D000035
:1003A0000000000000000000AD5D0000AD5D000039
:1003B000AD5D0000AD5D0000000000000000000029
:1003C000AD5D0000AD5D0000AD5D0000AD5D000005
:1003D000AD5D00007117000000000000000000008B
:1003E000000000000000000000000000000000000D
:1003F00000000000000000000000000000000000FD
:1004000000000000000000000000000000000000EC
:1004100000000000000000000000000000000000DC
:1004200000000000000000000000000000000000CC
:1004300000000000000000000000000000000000BC
:10044000AD5D0000000000000000000000000000A2
:10045000AD5D000079170000AD5D000000000000F8
:10046000AD5D0000AD5D0000000000000000000078
:08047000AD5D0000AD5D000070
:10047800FFFFFFFFFFFFFFFFFFFFFFFFFFFFFFFF84
:10048800FFFFFFFFFFFFFFFFFFFFFFFFFFFFFFFF74
:10049800FFFFFFFFFFFFFFFFFFFFFFFFFFFFFFFF64
:1014780000208000010000010107000000000000BA
:1014880000000000000000000338FDD8704700107D
:101498000200DC053C00000000A0105000820D5046
:1014A80000040550000000000338FDD87047000014
:1014B80000000000000000000338FDD8704700005D
:1014C800D05A0020416461444655005365656564FF
:1014D800005849414F206E524635344C313520531F
:1014E800656E73650076302E352E302D6465763145
:1014F80020733134352031302E302E310000000079
:101508000000000000000000000000000023D1BC23
:10151800EA5F782315DEEF121200000000000000D9
:101528002800000029000000FFFFFFFFFFFFFFFF6A
:10153800010000000000D60128850020FFFFFFFF02
:10154800FFFFFFFFFFFFFFFFFFFFFFFF000000009F
:10155800000000000000D6010701000000A01050A4
:0C15680000820D5000040550B0850020EA
:081574006C48000001000000BA
:10157C0010B50C46E0B90968C1B10E48814207D0DC
:10158C00431A3B2B0ED83C23CA5CC254013BFBD202
:10159C0000223C21074803F06CF8074B188000230D
:1015AC00236010BD3C2204F089FDF1E70E23F7E720
:1015BC000123F5E780FF0320BCFF032038B5044668
:1015CC00A8B13C2100220C4803F053F80B490B88BE
:1015DC0083420ED1084A02F13C0052F8045B82426D
:1015EC0044F8045BF9D1002001330B8038BD0E2088
:1015FC00FCE70B20FAE700BF80FF0320BCFF0320B1
:10160C000B2970B50446154608462AD9238920446F
:10161C00053304EB4301431ADAB2012A21D9814282
:10162C001FD8134804F04AFD2388542B1BD1AB0759
:10163C0004D04DF2633362889A4214D100234FF6E2
:10164C00FE7034F8081F0B4D994201D80B2070BD69
:10165C0034F8022F824208D0AE89964205D001336D
:10166C00F2E70920F3E70F20F1E70020EFE700BFD6
:10167C002C48002000C8150008B5002202F0F9FF24
:10168C00034B1B88834214BF0B20002008BD00BFF6
:10169C002C48002010B5044C23781BB900F036F808
:1016AC000123237010BD00BF94480020002208B510
:1016BC000B4B83F88A2383F8852383F8E523802258
:1016CC0083F8462383F8052483F8472383F81C23E7
:1016DC0083F81F2CFFF7DEFF024B034A1A6008BD8C
:1016EC0000E100E098480020C14BF3470022014B79
:1016FC001A607047984800201E4A12681E498A4298
:10170C0003D11E49096809580847704700B51B49A1
:10171C0009680968884700BD1EF0040F0CBFEFF381
:10172C000881EFF30981886910F8020C102801D2A6
:10173C00134A1047114A1268926810474FF00C0078
:10174C00DAE700BF4FF01000D6E700BF4FF01400EF
:10175C00D2E700BF4FF01800CEE700BF4FF01C00DF
:10176C00CAE700BF4FF02000C6E700BF4FF02400CF
:10177C00C2E7000098480020C14BF3470048002006
:10178C007D15000012DF704729DF70472DE9FF41FE
:10179C00134F044697F800C00D461646BCF1000FD7
:1017AC0010D14FF001080F4A01AB10685168128933
:1017BC0003C3614601A81A808DF8048000F044FE32
:1017CC0087F800802021012000F03AFE324629469D
:1017DC00204600F00DFE04B0BDE8F04100F044BE20
:1017EC009C480020781400004FF480620149FFF7F8
:1017FC00CDBF00BF7804000070B500264C1E20F44D
:10180C007F65240B25F00F05013405EB06300136FE
:10181C00FFF7EAFFA642F8D370BD000038B50C4CB8
:10182C00054621684B1C12D04FF48052094804F035
:10183C005AFC48B115B12068FFF7D6FF4FF480620F
:10184C0004492068FFF7A2FF4FF0FF33236038BD37
:10185C0004480020A04800202DE9F84F05460F460B
:10186C0014469846DFF850B0DFF85090DFF850A0DF
:10187C000CB9BDE8F88FD9F8003005EA0B06B34275
:10188C000AD04046FFF7CAFF4FF48052314650460B
:10189C00C9F8006004F012FCC5F30B00C0F58056CB
:1018AC00A64228BF264639463246504404F006FC70
:1018BC00A41B35443744DBE700F0FFFF044800204D
:1018CC00A048002013B5002304460DF107008DF845
:1018DC000730FFF757FF20039DF8074034B14FF452
:1018EC0080620449FFF750FF02B010BDFFF77CFF88
:1018FC002046F9E778040000FFF776BFFFF746BFF4
:10190C00BFF34F8F0549064BCA6802F4E0621343DC
:10191C00CB60BFF34F8F00BFFDE700BF00ED00E0D1
:10192C000400FA0510DF704711DF704712DF7047B3
:10193C004FDF704749DF70478DDF704760DF7047BE
:10194C006ADF704761DF704768DF7047002307B5B7
:10195C000DF107008DF80730FFF7E8FF9DF8073011
:10196C00012B01D1FFF7E0FF03B05DF804FB08B5D4
:10197C004FF0E023D3F8F03DDB0700D500BEFFF7B6
:10198C00BFFF0000014B1878704700BFA358002020
:10199C004FF4AE132DE9F04FDFF85892D3F804381A
:1019AC0093B04B4501D1FFF775FE4FF4A062814B0C
:1019BC00C3F8402500F0EAFA00F0FCFE002000F02D
:1019CC00DFFB00F056FF48B1052000F0D9FB00F01A
:1019DC0063FF00F091FF062000F0D2FB0022764B53
:1019EC00DFF814A2D3F80045744DB12C744E754F2A
:1019FC008AF800202ED0A82C2CD02A70D3F80016F0
:101A0C004E2C01F0010101912AD1C3F8002500F000
:101A1C0009FE4FF0010803464FF40041D1F80022B3
:101A2C0069493068BA4218BF002101604FF4AE1109
:101A3C00D1F80418494500F0828000212970B8F1D2
:101A4C00000F00D1D3B9022000F09AFB012000F066
:101A5C0097FB72E101222A70D3F800260022D4E70A
:101A6C003168DFF898B10968594501D1019949BB32
:101A7C006D2C2CD10022504BC3F8002500F092FEA7
:101A8C00044600F023FBA4B900F0CCFD88B100F0B3
:101A9C00F0FE70B94FF4AE13D3F804384B4503D1B4
:101AAC00FFF754FFFFF722FE002233681A6000F0A4
:101ABC00CDFE464B1B781BB1A8223F4BC3F800252B
:101ACC00FFF71EFF6D2CC3F80025D7D09FE7002031
:101ADC0000F0D6F9804618B100F0A4FD03469BE750
:101AEC0000F0A0FD034648B94FF40042D2F80022A2
:101AFC00D21BD2F1000848EB02088DE73168324A5C
:101B0C000868904288D04FF40040D0F80002B842E8
:101B1C0013D0019A002A3FF47FAFC1F800B02C49D2
:101B2C002C4809680193B1FBF0F12B4848432B4931
:101B3C0041F001018847019B6EE798466CE7B8F1CC
:101B4C00000F01D1002B99D12B78002B3FF47BAFE8
:101B5C00082000F015FB01238AF80030FFF7A6FDE2
:101B6C001F4A03AB1068516803C31E4903A8FFF753
:101B7C00D9FE08B102F064FD1B4A1420D2F80034DF
:101B8C001A4943F00203C2F800344FF00113184A0B
:101B9C000B600B6BC3F3420320FA03FC1CF0010F28
:101BAC0040F0E080052B01D0013AF2D1032002F085
:101BBC0047FD41E000C00C5000E01050A35800203D
:101BCC00084800207CB0EE877E67E54EA1580020C7
:101BDC000C48002040420F0020A107009014000088
:101BEC00961400007B1900000080045000108051F6
:101BFC00A0860100DBE5B151A0580020D51A5A008F
:101C0C00013BD3D0DBF80420002AF9D0C8F1200A1C
:101C1C00BAF1040F28BF4FF0040ADBF880305246AB
:101C2C0007930AAB03EB080007A9D04404F046FA6B
:101C3C00B8F11F0F40F29A800AA8FFF779FE08B19D
:101C4C0002F0FEFCC0224C4B83F81D234FF00052D7
:101C5C001A604A4B0C22002107A8029304F053FA95
:101C6C0040F20113029A07A940200793FFF768FE80
:101C7C000C22002107A804F046FA9DF81C30029AA9
:101C8C0043F0010307A9A0208DF81C30FFF758FE84
:101C9C000C22002107A804F036FA4FF00108F723B4
:101CAC004FF00C0A029A07A92320ADF81E308DF8CC
:101CBC001C80FFF745FE0C22002107A804F023FA34
:101CCC00029A07A920208DF81C808DF81E80ADF893
:101CDC0020A0FFF735FE5246002107A804F013FAA6
:101CEC00029A07A922208DF81C808DF81EA0FFF700
:101CFC0027FE5246002107A804F005FA02232120F2
:101D0C00029A07A98DF81C808DF81E30FFF718FE7B
:101D1C0002A8FFF713FE08B102F092FC0021082282
:101D2C0005A804F0F0F99DF81430022043F00103EB
:101D3C0005A98DF81430FFF707FE4FF40043D3F8D4
:101D4C0000322878BB4201D04E2C11D1012240F632
:101D5C00B83100F047FD2B78002B3FF48FAEFFF726
:101D6C00F5FD8BE64FF00008DFF818B0044B49E79F
:101D7C0000221146EDE700BF00E100E00048002022
:101D8C00A0860100001080514FF4FA7310B5FEB01C
:101D9C00ADF8023000230DF1020101A8ADF80430BA
:101DAC00FFF7D0FD044640B9BDF80430102B07D026
:101DBC00112B15D001A801F0CDF920467EB010BD35
:101DCC00ADF800006946BDF80800FFF7B5FD01232A
:101DDC000720054A1370054A137000F0D1F9E9E7A2
:101DEC00014B18700820F8E7A2580020A1580020D9
:101DFC00002313B501A80193FFF79CFD044610B90D
:101E0C00019801F099FF204602B010BD08B5FFF70C
:101E1C00BBFF0528FBD1FFF7EBFF0528F7D108BD69
:101E2C000021024A084602F079BB00BF191E0000CF
:101E3C00036803F01F025F2B02604FEA53129ABF34
:101E4C00024B53F822000020704700BFA014000082
:101E5C0007B5019001A8FFF7EBFF019B00EB830096
:101E6C00D0F88020054B134043F4403343F00C036F
:101E7C00C0F8803003B05DF804FB00BFF0F0FCFF4D
:101E8C0007B5019001A8FFF7D3FF019BC068D840AC
:101E9C00C04300F0010003B05DF804FB70477047CD
:101EAC0000234FF0FF32C0F80035C0F86025C0F8B1
:101EBC006425C0F86825C0F86C2540F2FF32C0F8E4
:101ECC000C35C0F80435C0F80825D0F8102522F4DC
:101EDC00817222F00102C0F81025044AC0F81435B2
:101EEC00C0F80427C0F80837704700BFA05A00207C
:101EFC0073B50025224C0646C4F8005501A8019183
:101F0C00FFF796FF019B019100EB8300D0F8802036
:101F1C001C4B06F5AC76134043F00303C0F880303D
:101F2C0001A8FFF785FF0122019B02FA03F343602E
:101F3C00042344F82610C4F80C35FF23C4F80455C8
:101F4C00C4F80835D4F8103523F4817323F0010359
:101F5C0043F00203C4F810350B4BC4F81455C4F805
:101F6C0004370823C4F80837C4F82855C4F82C558E
:101F7C00C4F80025C4F81051D4F8103102B070BD6B
:101F8C0000200D50F0F0FCFF985A00200022444B2A
:101F9C0010B5C3F8402401221A61A3F53033D3F8ED
:101FAC00102512F002023FD1D3F8101503F5C073BF
:101FBC0021F00201C3F8901340F6FF71C3F8A81189
:101FCC0038491A60A3F5807004338B420260F8D153
:101FDC000123354C354A2366354B5D201B68B3FB1A
:101FEC00F2F35843334B43F001039847D4F81035C0
:101FFC0043F00203C4F81035D4F8483713F001034A
:10200C0002BFD4F8482742F00102C4F84827D4F89C
:10201C004027D4F844275200F9D42BB9D4F84837C8
:10202C0023F00103C4F848371F4A214CD2F810356D
:10203C00002043F00103C2F81035FFF709FF2068B8
:10204C001A4BB0FBF3F0642358431A4B43F00103D3
:10205C00984740210020FFF74BFFFFF71FFF1E2181
:10206C000820154A02F036FA08B102F0E9FA02F03B
:10207C0077F9E0204FF47A72104981F82300236835
:10208C00B3FBF2F3013BB3F1807F08D24FF0E022B7
:10209C005361002381F8230093610723136110BD62
:1020AC0000E01050B0210E5000200E5040420F00A6
:1020BC000C480020B0140000A458002000ED00E0F3
:1020CC000148FFF7EDBE00BF00200D5013B54FF0D7
:1020DC00E02300241C61FFF7F3FF02F0EFF901226B
:1020EC000C4B21460C4C5A6101A80191FFF7A0FE44
:1020FC00019B013100EB8300D0F88030232903EAE7
:10210C00040343F00203C0F88030EDD1FFF7C7FEA3
:10211C0002B010BD00E01050F0F0FCFF0022054BA7
:10212C0023F81010044BC3F81021D3F8102101220E
:10213C001A617047985A002000200D500A4A0B4B28
:10214C0011681B680020B1FBF3F203FB1211B1EB19
:10215C00530F4FEA530288BF591A4F235943B1FB0F
:10216C00F2F189B2FFF7DABFA45A0020945A00208A
:10217C00024A136801331360FFF7E0BFA45A002032
:10218C00082811D8012340F20512834013420CD1C8
:10219C0013F0C20F04D1052806D16422054B02E0CE
:1021AC0040F6B832034B1A6070474FF49672014BED
:1021BC00F9E700BF945A0020064BD3F840231C2AA1
:1021CC0005D1D3F84403431E5842584170470020B0
:1021DC00704700BF00C0FF0003689A070CD5036866
:1021EC00DB070DD50922074BC3F80C250F22C3F8CA
:1021FC00042501221A60FEE7034B0360EF3B0360EA
:10220C00704700BF00801050F000FA5008B5012351
:10221C00454A4648C2F80038454AD2F840231C2AA1
:10222C0004BF444AC2F80C34FFF7D6FF0830FFF75E
:10223C00D3FF0830FFF7D0FF0830FFF7CDFF00F5D4
:10224C00F470FFF7C9FF3C4AD2F88C3043F440637A
:10225C00C2F88C300022D30003F57F0303F5404312
:10226C00D3F8001401310AD0D3F8001439B1D3F8E3
:10227C0000140132D3F80434402A0B60EBD12A4B02
:10228C00D3F84024002A4BD0FFF796FF48B1284BD7
:10229C00D3F83423294B9A429EBF234B284AC3F8C8
:1022AC004026FFF789FF18B1264B274AC3F8AC2705
:1022BC00FFF782FF48B134221B4BC3F82426D3F816
:1022CC003C2622F40022C3F83C26204BD3F80026EF
:1022DC00D20744BF6FF00102C3F800261C4BD3F8A1
:1022EC00182522F00302C3F81825D3F8182542F05C
:1022FC000302C3F81825104AD2F88C1041F440613F
:10230C00C2F88C10D2F8881041F47001C2F8881011
:10231C00BFF34F8FBFF36F8F0022C3F8A02508BD0A
:10232C00C822C3F84024AFE70000125000C50D507E
:10233C0000C0FF000030055000ED00E0001D0A1841
:10234C0040E0A91E00A0085078000A0400E01050DC
:10235C0000B0045070B54378047841880679C2887F
:10236C00057A44EA0324194B41EAC67142EA054254
:10237C00C3F80045C3F80C15C3F81025D3F8042492
:10238C00D207FBD5124A1268F2B10021427AC3F887
:10239C000C11D3F80C01C3F80411D3F80401C3F8E1
:1023AC000811D3F80801C3F80011D3F80011520139
:1023BC000849D2B281F84B234FF40062C1F888214E
:1023CC008A600F22C3F80423002070BD00B00450B3
:1023DC00A85A002000E100E0044B40EA0120C3F8B9
:1023EC000005D3F80024D207FBD5704700B0045089
:1023FC002DE9F04104460D461646DFF840800120D9
:10240C00D8F80075D8F8001507F00107C1F30521BD
:10241C00FFF7E2FF04EB86062B1FA64204D13846D9
:10242C00BDE8F041FFF7D8BF53F8042FD8F80404E7
:10243C00C007FBD544F8042BEFE700BF00B00450F5
:10244C00C9B2FFF7C9BF000010B5064C237933B9E8
:10245C002160FFF77FFF08B90123237110BD6FF0D6
:10246C007700FBE7A85A00200122014B9A607047C5
:10247C0000B0045010B5244BD3F80C212AB1002223
:10248C00C3F80C21D3F80C210822D3F804412CB149
:10249C0000210224C3F80411D3F804311A4B14435D
:1024AC00D3F808212AB10022C3F80821D3F8082157
:1024BC0004221443D3F800212AB10022C3F80021CE
:1024CC000122D3F800311443200704D50F4B4FF4ED
:1024DC0086701B689847A10704D50C4B4FF482708B
:1024EC001B689847620704D5084B4FF484701B682F
:1024FC009847E30706D5BDE81040044B4FF48070B5
:10250C001B68184710BD00BF00B00450A85A00202B
:10251C00064B10461A78012A03D1012904BF022266
:10252C001A7008B102F08CB8704700BFF05A002046
:10253C0070B5194D194C1A4ED5F80034DA070FD571
:10254C00C5F80046C5F80446C5F80846C5F80C465B
:10255C00C5F81046C5F81446C5F81846C5F81C460B
:10256C00D6F80034DB070FD5C6F80046C6F804468B
:10257C00C6F80846C6F80C46C6F81046C6F8144607
:10258C00C6F81846C6F81C4602F02CF8054B1B780A
:10259C00023B032BD0D870BD008010503546526ED4
:1025AC0000901050F05A002038B5FFF7EBF910B33B
:1025BC00184C1C21204601F04DFC042804D1FFF7D7
:1025CC0017FC0528FBD1F4E708B102F039F8124CDE
:1025DC00104D00231C222146284601F02BFC042818
:1025EC0004D1FFF705FC0528FBD1F2E788B1BDE863
:1025FC00384002F025B80948FFF77EF90722064952
:10260C000648FFF77BF9064B1A78012A04BF022211
:10261C001A7038BDF45A0020B05A002000F0140093
:10262C00F05A002007B501A800F098F94FF40043C8
:10263C001A68013202D15B68013319D04FF6FF7171
:10264C00019B1A888A4211D0012A11D1588828B1CD
:10265C0000224FF40040996802F00BF8019B5B8854
:10266C001B1A5842584103B05DF804FB0120FAE7ED
:10267C000020F8E784B02DE9F34108AC84E80F00A2
:10268C009DF8204001A80F4616461D46BDF8228035
:10269C0000F064F964B90122FF21354BA3F80280E4
:1026AC009D601A809980334B1A70FFF77DFF48E0CC
:1026BC00013C052C45D8DFE804F00323154C3955B3
:1026CC002B4BBA192A449A60A5221A80FF22C3E91F
:1026DC0003769A800C9AA3F802805D619A610122BC
:1026EC00244BE1E7019A224B11881980518892689A
:1026FC0059809A60AA22C3E903769A805D61EEE75D
:10270C00019A1B4B1188A5290AD100229A60FF223D
:10271C001A60FF229A800022C3E903225A61DEE785
:10272C0019805188926859809A60F2E7FFF72AF96C
:10273C0060B100F0C1FD08B101F082FF03220D4B26
:10274C001A7002B0BDE8F04104B0704700F010FA06
:10275C00F1E70022064B9A60FF221A60019A9288D8
:10276C009A80A2E79DF83430024A04331370E8E7EC
:10277C00B05A0020F05A002000B5094B89B01B78E4
:10278C005BB905238DF8083008AB13E903008DE81D
:10279C00030002AB0FCBFFF76DFF09B05DF804FB34
:1027AC00CC5A0020024B1878431F584258417047AE
:1027BC00F05A00201FB50023CDE90233064B0193DC
:1027CC0001F008FB28B90549054B01A84B6001F045
:1027DC001FFB05B05DF804FB1D250000F45A00201A
:1027EC0000F0140070B505460E4603F043F804469D
:1027FC0028B935B100F0BCFC0446FFF799FE204621
:10280C0070BDBEB10D4B29460D4A0E481D704FF4DC
:10281C00004401F0E7FD4FF4FA7029464FF47A7248
:10282C000023E6FB040103F0BDFA2A4601460648E4
:10283C0001F0EAFD00F078F9DEE700BFCC5A002089
:10284C0085270000C8140000D05A002000224FF049
:10285C00FF31930003F16043013203F56143102A09
:10286C00C3F88010C3F88011F3D14FF4004000F08E
:10287C00A1B807B501A800F071F8019B1A88A52A28
:10288C0007D09888A0F1AA035842584103B05DF8CC
:10289C0004FB0120FAE7000010B503F0F1F9D8B100
:1028AC00114B124A1B681248B3FBF2F35843114BFD
:1028BC0043F00103984703F09FF908B101F0C0FE03
:1028CC0003F0DEF908B101F0BBFE03F0C1F90446D8
:1028DC0030B101F0B5FE04E003F0C6F90028DFD1F9
:1028EC000024204610BD00BF0C48002040420F00C1
:1028FC00A0860100C014000000B589B002AB1822FC
:10290C000021184603F0FFFB022203468DF8082035
:10291C0008AA12E903008DE803000FCBFFF7AAFE0B
:10292C00FFF706FE002009B05DF804FB13B5044662
:10293C0001A800F013F8019B1A8822805A88628043
:10294C009A68A2609A88A280DA68E2601A692261A9
:10295C005A6962619B69A36102B010BD014B0360AF
:10296C00704700BF00F014000346F0B5002585F356
:10297C00148885F3108885F3118885F313881868FB
:10298C0080F308885868FF2464B2EFF30585002DA6
:10299C0001D1A64600472546064621273FBAF0B48A
:1029AC000024002500260027F0B4F92040B200478F
:1029BC00F0BD00BF034A9060BFF34F8FBFF36F8F22
:1029CC00FFF7D2BF00ED00E00023F7B50DF10201D7
:1029DC0001A8ADF80230019302F09CFA0346019C69
:1029EC00204613B15CBB03B0F0BD26783EB3174A4A
:1029FC0092F83010032922D04FF00C0C0CFB03F58D
:102A0C0051595719C1B992F8303056510133DBB2D4
:102A1C0082F83030BDF8023008469B08013B0C4A66
:102A2C0004347B60BC6001F079FD034601980028FA
:102A3C00D9D0002BD7D002E00133042BDED102F029
:102A4C0085FA0028CFD001F0FBFDCCE7FC5A002022
:102A5C00A52A0000084609B101F0F2BD704700003C
:102A6C000C2310B543430B4AD158D418A06879B144
:102A7C0092F8301004380139C9B282F830100021B4
:102A8C00C4E90111D15002F061FA08B101F0D8FD8E
:102A9C00002010BDFC5A00200122214B70B5214EA4
:102AAC001A7096F8303003B970BD00251D4C2368A0
:102ABC0083B1013B042B07D8DFE803F01C0612039B
:102ACC002800204602F072FFE8B2FFF7C9FF08B1F8
:102ADC0001F0B6FD0135042D04F10C04E7D1E0E75B
:102AEC00A3682046636002F00BFF0028ECD001F0D5
:102AFC00A7FDE9E7204602F0E5FF02F0C1FF08B1AF
:102B0C0001F09EFD0520FFF73BFBDDE703F00CF821
:102B1C0003F02EF8BDE870400620FFF731BB00BF74
:102B2C00CC5A0020FC5A00200022114608B50D4B4F
:102B3C0083F830200132042AC3E90111196003F132
:102B4C000C03F7D1084802F0D5FE02F07BF908B16E
:102B5C0001F076FD054802F061F908B101F070FD55
:102B6C00002008BDFC5A0020612A0000D529000075
:102B7C0008B50020FFF774FF0120FFF771FF02205A
:102B8C00FFF76EFF0320FFF76BFFBDE8084002F074
:102B9C00A1B9006870476CDF70476DDF70476FDF5D
:102BAC00704770DF704773DF704774DF704775DFF5
:102BBC00704776DF704777DF704778DF70477BDFD1
:102BCC0070477DDF704780DF704787DF70478DDF90
:102BDC0070478EDF7047B4DF7047B5DF7047B6DFE4
:102BEC007047B7DF7047BADF704765DF704767DF44
:102BFC00704768DF70470C280AD8DFE800F0070937
:102C0C00090909090B091409090F0D000120704766
:102C1C00062070470320704704207047042914BF16
:102C2C000620052070470220704701F009BD10B541
:102C3C00044608460321FFF7DEFF0246204600F05B
:102C4C003DFE18B1BDE8104001F0FABC10BD00000B
:102C5C000346032B10B50846144620D0042B23D171
:102C6C0069B1124B18884FF6FF7398421CD0132190
:102C7C00FFF7A1FFC0B1BDE8104001F0E1BC104668
:102C8C0001F052FD08B101F0DBFC094B1B689C42C2
:102C9C000AD101220321074800F010FEEAE70121C6
:102CAC00FFF7A9FF0246F6E710BD00BF1848002049
:102CBC00685B0020C05B0020F8B50A4D1446AB8859
:102CCC009E181D2E0DDC2F6802F1010CFE1807F862
:102CDC0003C07070B01C03F0F1F9AB8802331C44D4
:102CEC00AC80F8BD505B0020F0B54D4E93B03478FD
:102CFC00002C40F091804B4D10222146284603F0C9
:102D0C0002FA494B182221460CA82B6003F0FBF960
:102D1C0001238DF8303028230E93444B1B78002B65
:102D2C007CD0434B02AC03F110052246186859685D
:102D3C00083303C2AB421446F7D110223D4802A916
:102D4C0003F0D1F9002869D03B483C4C01210460C8
:102D5C00FFF725FF08B101F073FC06AA1746354BA7
:102D6C0003F1100C154618685968083303C5634500
:102D7C002A46F7D12068A288A3790A903048ADF88A
:102D8C002C20002101228DF82E300760FFF709FF5F
:102D9C0008B101F055FC03238DF8443004238DF861
:102DAC00063041F23053ADF80830264B06AA9B7919
:102DBC000DF1070102A88DF80A30FFF716FF01226A
:102DCC000DF106011046FFF777FF1F4803F083F95A
:102DDC001D49C2B20920FFF76FFF1022062006A979
:102DEC00FFF76AFF0F4919480CAAFFF7DCFE08B180
:102DFC0001F026FC154C082201202178FFF7DDFE9E
:102E0C0008B101F01DFC01212078FFF7CEFE08B1BE
:102E1C0001F016FC0123337013B0F0BD0623BEE79E
:102E2C00AA5B0020505B0020305B00206C5B002014
:102E3C0005150000755B0020645B00206E5B0020B4
:102E4C00605B0020C05B0020CC1400001048002008
:102E5C00F0B502880346262AAFB03BD80F2A04D817
:102E6C00012A00F0EC802FB0F0BD103A162AFAD8E7
:102E7C0001A151F822F000BF0D2F0000552F0000CA
:102E8C00732E0000872F000087300000732E000087
:102E9C00732E0000732E0000732E0000732E0000A2
:102EAC009D300000732E0000732E0000732E000066
:102EBC00732E0000732E0000732E00000F310000E3
:102ECC00732E000001310000732E0000732E0000E1
:102EDC0007300000513A91B20529C4D8052AC2D84E
:102EEC0001A151F822F000BF573000009D300000C6
:102EFC00732E0000732E000021310000ED2F000016
:102F0C0000218B4A808811701A698A4C089204221D
:102F1C00DB8A08A92080ADF82420ADF82630FFF715
:102F2C0048FE08B101F08CFB082200210EA803F02A
:102F3C00EAF823880EA9ADF83830012325208DF846
:102F4C003A30FFF756FE8EE780233222794CADF8EB
:102F5C002030794B20881A600EA9012308AAFFF7AC
:102F6C0040FE08B101F06CFB744B1B780BB9FFF7FA
:102F7C00BBFE4FF6FF73238075E702AC2646704B01
:102F8C009A79186899888DF81E200690DA1DADF88C
:102F9C001C101733254610685168083203C59A4235
:102FAC002C46F7D10EAA1546664B03F118071446AA
:102FBC0018685968083303C4BB422246F7D1186815
:102FCC00052120605B48604A008808ABCDE90B56B0
:102FDC00FFF7F9FD00283FF446AF01F031FB42E763
:102FEC009B79002B7FF43FAF524B13211888FFF7CE
:102FFC00E2FD00283FF437AF77E0037A012B7FF432
:10300C0032AF00224A4B1A704B4B196801391960C8
:10301C0081B90EAB1822184603F075F80522034649
:10302C00DDE912018DE803008DF838200FCBFFF796
:10303C0021FB18E72FB0BDE8F040FFF755BE3D4B24
:10304C0000211888FFF7D3FDD3E79A79002A3FF4C3
:10305C000AAF9B7B043B022B3FF605AF4FF4C173C9
:10306C00022A18BF0122ADF83C30324B0EA9188849
:10307C008DF83820FFF7B1FDACE73149008A4A8D55
:10308C001831904218BF00219888FFF79EFDB0E7D9
:10309C004FF6FF75274C2088A84225D02B4B1B7868
:1030AC00EBB1012308222A49FFF799FDE8B9024642
:1030BC00014602232088FFF792FDB0B92A460C2165
:1030CC002088FFF788FDA0F54053023B012B7FF6CB
:1030DC00CAAE08283FF4C7AE11288AD1C3E61A46F7
:1030EC001946FFF77CFD84E708202FB0BDE8F040BF
:1030FC0001F0A6BA00220F4B11461888FFF769FDA4
:10310C0077E70023ADF838300A4B0EA91888FFF783
:10311C005EFDA8E6D988074BF72928BFF72121F0D7
:10312C000301188841F00301FFF75DFD61E700BF63
:10313C00AA5B00201848002014480020AC5B00203B
:10314C006E5B0020865B0020F05B00206C5B002037
:10315C00A25B002010B504460146044800F0EAFBCF
:10316C002046BDE81040FFF773BE00BFC05B0020D7
:10317C00002330B5414A42481370424A95B013704F
:10318C0002F0B8FB01F090FA0446002860D13E48EA
:10319C00FEF714FA00285ED101223C4B1A70112361
:1031AC003B488DF8043002F096FF394982B201A8F1
:1031BC00FFF707FD08B101F043FA0822002104A82B
:1031CC0002F0A1FF334A344B04A8CDE90423FFF7E6
:1031DC00F6FC08B101F034FA00210C2201A802F02F
:1031EC0092FF0823ADF804302C4B2D4802932D4B45
:1031FC0001A9039300F0C8F908B101F021FA2A4D96
:10320C004022002104A802F07EFF284602F063FF52
:10321C000595264DADF81000284602F05CFF079589
:10322C00234DADF81800284602F055FF1123ADF8D8
:10323C00300004A8ADF84C300D9500F08FFC302216
:10324C001C4B1A7007225A7010229A70FFF74CFD13
:10325C00204615B030BD04A8FFF79FFC08B101F063
:10326C00EFF99DF8113004A801338DF81130FFF7F8
:10327C0092FC002893D001F0E3F990E7AC5B0020BE
:10328C005D2C0000BD5B00206E5B00206C5B0020A1
:10329C00CC1400000C0018000400200315330000AF
:1032AC00C05B0020372C0000D3140000D9140000A0
:1032BC00ED140000F05B0020012210B50E4B1A70CB
:1032CC000E4B18884FF6FF73984207D01321FFF767
:1032DC0072FC08B101F0B4F9002010BD084C237841
:1032EC00002BF9D0074B1878FFF761FC08B101F0FF
:1032FC00A7F900232370EFE7AC5B002018480020EF
:10330C00AA5B002010480020F0B50B7805460C464F
:10331C0089B0092B35D8DFE813F02D0036004100B9
:10332C000A0019002600080111014400160102F0E0
:10333C00FBFB0421FFF75FFC0246284600F0BEFAB7
:10334C00F8B109B0BDE8F04001F07AB9FFF7B4FF6D
:10335C0008B101F075F902F00BFC90B109B0BDE8B1
:10336C00F04002F01DBCFFF7A7FF0028F6D001F0DB
:10337C0067F9F3E70122764B1A704B681A78754B94
:10338C001A7009B0F0BD0226714B1E704B681B7889
:10339C00012BF6D102F074FB3146CBE703226C4BC8
:1033AC00EEE70520FEF7ECFE694B1E78022E38D0B6
:1033BC00032E5AD0012EE4D104AB10221846002162
:1033CC0002F0A1FE634A237A12780C2B8DF81020A0
:1033DC004FF0000203924FF00302CDE9012008D018
:1033EC003146284600F06AFA0028CAD001F028F9C4
:1033FC00C7E763681846FFF7CCFB0590181DFFF76D
:10340C00C8FB069003F10800FFF7C3FB079001A867
:10341C0002F076FA0028B4D03146FFF7ECFB0246F6
:10342C00DFE7237A13F0030011D019464FF0000C9C
:10343C00C0F104021A44D2B20E4601316768C9B217
:10344C00914207F806C0F7D11B1A043323720123EB
:10345C000493636804A80693237A9B08059302F0EF
:10346C0031FB00288DD00221D7E7207A830702D0C8
:10347C003246314661E7384E0190314601F02AF967
:10348C00014618B12846FFF7D2FB7AE76168019A2A
:10349C00306802F013FE019801F082F90146002811
:1034AC00F0D101A9304601F08BF901460028E9D191
:1034BC0004230493019B04A89B080593336806938B
:1034CC0002F074FA074640B9244A237A11680B4477
:1034DC0013603268224B1A6053E709281BD11F4B2B
:1034EC00217A1A68114419601E4B1B78002B3FF48B
:1034FC0048AF1D4C2388013B9BB22380002B7FF4EB
:10350C0040AF284600F092F908B101F099F8174B3A
:10351C001B88238035E7306801F006F9014610B1AD
:10352C002846FFF784FB3946ACE701220D4B1A7095
:10353C000E4A8B8813800C4A138022E70023094A19
:10354C0013700A4AF8E7054B196800F025F9F7E6FD
:10355C00BD5B0020BC5B0020B05B0020B85B002092
:10356C00685B0020AB5B0020B45B0020B65B0020E6
:10357C00ADDF7047AFDF7047B2DF7047B3DF704726
:10358C00B5DF704762DF70472DE9F0430E46054604
:10359C0095B0002800F0F980002900F0F6804B6807
:1035AC00002B00F0F2804FF6FF7304AA174603803D
:1035BC00774B03F1100C144618685968083303C490
:1035CC0063452246F7D141F2305338460DF10A01DA
:1035DC000293FFF7D7FF0446002840F0D280012069
:1035EC002A1D02A9FFF7C4FF0446002840F0C98039
:1035FC009DF80A3001461C22AB710DA802F083FD28
:10360C009DF834304FF4885923F00C0343F00C032D
:10361C008DF83430AB7901AF8DF80E3041F2325366
:10362C00214603223846CDE91044CDE912440E94CC
:10363C00ADF80C3002F067FD9DF80630214623F002
:10364C001F0343F00303142208A88DF80630ADF8CD
:10365C00049002F058FDF423A888ADF82C300DF13D
:10366C000C0805F1080308AA0DA90A940C94CDE9DD
:10367C000887FFF77FFF0446002840F08280014650
:10368C001C220DA802F03FFD9DF83430214623F09A
:10369C00180343F018038DF83430AB7903228DF8FE
:1036AC000E3041F231533846CDE91044CDE9124485
:1036BC000E94ADF80C3002F026FD9DF80630214634
:1036CC0023F01F0343F01303142208A88DF80630CF
:1036DC00ADF8049002F017FD1723A888ADF82C3034
:1036EC0008AA05F110030DA90A940C94CDE90887DA
:1036FC00FFF740FF0446002843D101461C220DA8C9
:10370C0002F001FD9DF83430214643F002038DF8A0
:10371C003430AB7903228DF80E3041F234533846F5
:10372C00CDE91044CDE912440E94ADF80C3002F002
:10373C00EAFC1123ADF804309DF80630214623F045
:10374C001F0343F00303142208A88DF8063002F07F
:10375C00DAFC0223A8880A93ADF82C3008AA05F1EC
:10376C0020030DA9CDE908870C96FFF703FF04464B
:10377C0038B97368AB62B36803B1EB620122054BD5
:10378C001A70204615B0BDE8F0830E24F9E700BF8F
:10379C0015150000FC5B00202DE9F04F0E46054688
:1037AC0087B0002839D04FF6FF7302889A4236D082
:1037BC001C4B1B789BB34FF0100A1B4CC1F3072911
:1037CC00C1F307480F0E07234FF0010B1022002105
:1037DC0002A86370ADF8063084F800A084F802B03B
:1037EC00E67084F8049084F80580A77102F08BFCD5
:1037FC002B8A2888ADF80830002302A9ADF80C30CC
:10380C000DF10603CDE904348DF80AB0FFF7B6FECE
:10381C001328D8D007B0BDE8F08F0E20FAE70820A7
:10382C00F8E700BFFC5B0020F55B00202DE9F04FB2
:10383C000E46044687B0002837D04FF6FF73028837
:10384C009A4234D01B4B1B788BB34FF0110B0027D3
:10385C00194DC1F3072AC1F307494FEA1168052333
:10386C001022002102A8ADF8063085F800B06E7069
:10387C0085F802A085F8039085F8048002F043FCDB
:10388C00238A2088ADF80830012302A98DF80A306C
:10389C000DF10603CDE90435ADF80C70FFF76EFEA3
:1038AC001328DCD007B0BDE8F08F0E20FAE7082013
:1038BC00F8E700BFFC5B0020F55B00202DE9F04130
:1038CC000F461646044686B060B34FF6FF73028867
:1038DC009A4229D0154B1B7833B34FF01008144D76
:1038EC0003231022002102A8ADF8063085F80080D1
:1038FC006F70AE7002F007FC238A2088ADF8083098
:10390C0001238DF80A30002302A9ADF80C300DF11B
:10391C000603CDE90435FFF731FE1328E0D006B0DD
:10392C00BDE8F0810E20FAE70820F8E7FC5B0020E8
:10393C00F55B002070B50D46044688B050B149B116
:10394C00826A3AB10B88502B49D005D8102B43D042
:10395C00112B53D008B070BD512BFBD18E79022E98
:10396C00F8D10A89038A9A42F4D18B7B043B022B4F
:10397C00F0D99DF81630082243F001038DF816306B
:10398C000B8A01A8ADF818304B8A8DF81060ADF891
:10399C001A3001F114030021079302F0B4FBA18A41
:1039AC00208801AA0196CDF808D0FFF7E5FD40B3B9
:1039BC00E36A03B1984740F2FD13208804A9ADF8DF
:1039CC001430FFF7DDFD0028C4D0E36A002BC1D012
:1039DC0008B0BDE8704018478B882380BAE7C988C7
:1039EC0003899942B6D108238DF810302B8A1235F1
:1039FC008DF81830059504A99047ABE74FF6FF7387
:103A0C00EBE7BDF800302088DB07D4D5002604A9ED
:103A1C00ADF81460FFF7B4FD0028D6D1297D4B1EFC
:103A2C00072B3ED8DFE803F004192226282A3B2C6A
:103A3C006B8A8DF80460012B05D8062201212046E3
:103A4C00FFF73CFFBFE7012315358DF80C300295CD
:103A5C002046A36A01A998477CE701236A8A8DF85E
:103A6C0004309A42F0D806220221E8E702238DF8AE
:103A7C000430EDE70323FAE70423F8E70523F6E720
:103A8C006B8A022B02D803220821D8E7B5F815302F
:103A9C00002BADF8083014BF06230723E7E70923F2
:103AAC00E5E70322CBE7ADDF7047AFDF70470000DF
:103ABC002DE9F041804615461F460E468EB011B9D1
:103ACC00084600F0BDFD15B9284600F0B9FD1C22D2
:103ADC0000210DEB020002F016FB9DF81C300024B7
:103AEC0043F002038DF81C30012321460322684663
:103AFC008DF80630CDE90A44CDE90C440894ADF8B4
:103B0C00048002F000FB3B7821468DF800307B7876
:103B1C0014228DF801309DF8023002A823F01F0307
:103B2C0043F002038DF8023002F0EDFA0A4801ABC3
:103B3C00029302AA149B07A90088CDF80CD0ADF80B
:103B4C001050ADF81240ADF814500696FFF7ADFFCB
:103B5C000EB0BDE8F08100BF1E5C002030B541F610
:103B6C000A030446012087B02C4A03A98DF80E00E5
:103B7C00ADF80C30FFF797FF0546D8B92288E2B9AB
:103B8C0022894AB1264B42F624200093E16804F1C5
:103B9C003C03FFF78DFFD8B9228C4AB1214B42F67A
:103BAC0026200093616A04F13C03FFF781FF78B98A
:103BBC00A36B7BB9284607B030BD1B4B42F62920BE
:103BCC000093616804F13C03FFF772FF0028D7D023
:103BDC000546EFE71A7842F650208DF810205A88E7
:103BEC0004A98DF81120120A8DF812209A88DB880E
:103BFC008DF813208DF815301B0A8DF816300B4BF1
:103C0C00120A8DF814200093072204F13C03FFF7ED
:103C1C004FFF002818BF0546CCE700BF1E5C0020F4
:103C2C000E5C0020065C0020165C0020FE5B002071
:103C3C0029DF70471822064B02FB003000230422B8
:103C4C000371C0E9042383608361C360704700BFC4
:103C5C00385C002013B5024608464368C9680093D7
:103C6C00044B53F82140436910F80C1BA04702B0D9
:103C7C0010BD00BF285C0020182238B5174C2378E3
:103C8C0002FB03430122A2701A795869012A05D05C
:103C9C00032A1BD00F200023A37016E0104A996949
:103CAC0015689A68DB68A2EB0532B2F5805F1844A0
:103CBC0028BF4FF4806201EB053100EB053038BFB3
:103CCC009208FFF7B5FF0028E5D138BD044B1B68FF
:103CDC0003EB1030FDF7F6FDF5E700BF385C002074
:103CEC00205C002070B5134D6C78122C1FD02E78F0
:103CFC0034441826E4B2112C84BF123CE4B206FB07
:103D0C000454A261207103C9A360049B04F1100246
:103D1C00E360AB7882E8030023B100206B780133B9
:103D2C006B7070BDFFF7A8FF1128F7D1F5E70420E1
:103D3C00F7E700BF385C002038B5831E012B44D850
:103D4C00224CA378002B40D0002303282578A370A5
:103D5C0035D0182202FB05421D4992680B680133CD
:103D6C00B2EB033F0B6018D80020086018216B1CC5
:103D7C0001FB0541DBB26278112B88BFA5F1110361
:103D8C0002F1FF32D2B288BFDBB204316270237011
:103D9C00FFF760FF2846FFF74DFF6378ABB1A378C0
:103DAC009BB9FFF769FF80B111280ED01823217839
:103DBC0003FB01410431BDE83840FFF74BBF18232A
:103DCC0003FB05410D200431F5E738BD385C0020BC
:103DDC00205C0020002108B5094B1960094B1980A3
:103DEC00997008460131FFF725FF1229F9D10020FF
:103DFC00054B1860054BC3E90000C3E9020008BD80
:103E0C00205C0020385C0020245C0020285C002012
:103E1C00064A03461068042807D00860411C11604C
:103E2C001A68034B43F8202000207047245C0020C4
:103E3C00285C002013B5CC180C43A40708D10093C0
:103E4C0013460A4601460120FFF74CFF02B010BD95
:103E5C001020FBE707B500220B4600920146032019
:103E6C00FFF740FF03B05DF804FB00000122034B99
:103E7C005A64D3F8440520F07F40704700B00C50D2
:103E8C00094B5A7899780132D2B2914208BF00227C
:103E9C00197891421FBF182102705A7801FB023029
:103EAC0014BF043000207047005E0020082910B5B4
:103EBC00044602D0002000F0C3FBD4E90030BDE87A
:103ECC001040184773B5002405460DF107000E4647
:103EDC008DF8074000F0C2FB0DF10600FFF7D0FF94
:103EEC0030B99DF8070000F0C1FB042002B070BD92
:103EFC009DF80620074B067045609DF807005A7028
:103F0C0000F0B4FB4FF00042034B2046C3F80021F5
:103F1C00ECE700BF005E002000E100E0204B2149EF
:103F2C001A682F2300BF00BF00BF00BF00BF00BF37
:103F3C0000BF00BF8A422FD000BF00BF00BF00BF30
:103F4C0000BF00BF00BF00BF00BF00BF00BF00BF6D
:103F5C0000BF00BF00BF00BF00BF00BF00BF00BF5D
:103F6C0000BF00BF00BF00BF00BF00BF00BF00BF4D
:103F7C0000BF00BF00BF00BF00BF00BF00BF00BF3D
:103F8C0000BF00BF00BF00BF00BF00BF00BF00BF2D
:103F9C0000BF00BF00BF00BF013BC3D1704700BFD3
:103FAC000C4800200024F4004FF400620C4B10B5B8
:103FBC00C3F89820BFF34F8FBFF36F8F4FF480334C
:103FCC0001240848C0F808334460FFF7A7FFC46019
:103FDC000020054B1860FFF7A1FF044B187010BDB3
:103FEC0000E100E000B00C50F85D0020ED5D002019
:103FFC002DE9F3410025274BC3F84051D3F840215C
:10400C00C3F84451D3F84421C3F84851D3F848219C
:10401C00C3F84C51D3F84C311F4B1968002934D0DC
:10402C00FFF724FF2F461D4BDFF884801C68041B10
:10403C0024F07F440B68A34212D8E41A1D440B7C75
:10404C00CE6963B14B690F7400938B6942460821AA
:10405C006846019300F062FA08B100F0F1FABEB9BB
:10406C000F4A104B11781B788B4205D10133DBB210
:10407C00022B08BF0023137012780B4B43F822500D
:10408C004FF00042094BC3F8002102B0BDE8F081AB
:10409C003146CFE700B00C50FC5D0020F85D0020ED
:1040AC00EE5D0020EF5D0020F05D002000E100E0FF
:1040BC00B93E00002DE9F74F9E499F4A0B781278C4
:1040CC009E4C9A423CD00133DBB2022B08BF00233A
:1040DC009B4A0B709B49176851F823003B1823F03F
:1040EC007F4313600022164615469446236813B985
:1040FC0042B1236006E0196881420FD902B12360F6
:10410C00091A19604FF001094FF0000A2368DFF813
:10411C004C820093BEB94FF0180B5EE0401A0D4470
:10412C00D968D3F81CE0C3F800C031B1DE611E467B
:10413C007A1922F07F42C3E9012173460122D6E7A6
:10414C000026B146E0E73046F6697D4B47681968B2
:10415C007D4A7D1A25F07F459542836800F2A58043
:10416C002B440125002105742568C0E90111036069
:10417C00C161002D40F0A1802060CBE798F80200CF
:10418C004B1CDBB2984208BF00230BFB018188F863
:10419C0000300B798868022B256877D0032B00F050
:1041AC008180012B19D1057CBDB9CF6847600B69A3
:1041BC0083604B69C3608B698361644B1B78002BF4
:1041CC0018BF2F464760C0E7B84200F092803946CE
:1041DC00FF69002FF8D10023037498F8001098F8A9
:1041EC0001308B42CAD12368BAF1000F05D1009A75
:1041FC009A4202D1B9F1000F42D0002B76D01F6841
:10420C00FFF734FE4E4B524E1C6805463378001BAC
:10421C0020F07F40033093B94FF480324FF40061AB
:10422C004C4BC3F804234C4AC2F8981191614FF0DF
:10423C000108C3F80080FFF771FE86F80080874202
:10424C002CBFE1192118434C21F07F41C4F84015D3
:10425C00FFF70CFE431B23F07F43491B033321F074
:10426C007F418B420CD9FFF701FE20F07F40C4F850
:10427C004005FFF753FE4FF40062374BC3F818218B
:10428C000022324B1A7003B0BDE8F08F2F4629463E
:10429C009FE701232974ED69002DFAD1002B9CD0E6
:1042AC0025609AE700231946F6E7C91B21F07F41E8
:1042BC008B4294BF00235B1A53E72968994213D3AE
:1042CC00C91A2960C56157E7DB1BCF690D463FB1A1
:1042DC0039460F68BB42F7D8FF1A0F600F462946C4
:1042EC000360C761C86115E72946F2E7FFF75CFE7A
:1042FC00C6E7884211D1EB69236073B90122DFF85C
:10430C0054E00191CEF80C20DFF834E0CEF8003008
:10431C000E4B1A70FFF702FE01993B68FF69CF61E3
:10432C0017B13A6813443B602368AB4218BF4FF097
:10433C00010A50E7EF5D0020EE5D0020FC5D0020DF
:10434C00F85D0020F05D0020FEFF7F00EC5D00209A
:10435C00ED5D002000B00C5000E100E0005E00209C
:10436C0010B5FFF721FE00210B22174BE02419801A
:10437C009A70164B16481960164B1970164B19701B
:10438C004FF00043C0F8803180F81F4303600122D6
:10439C00124B5A60DA60D3F8082522F0030242F07F
:1043AC000202C3F808250C22C3F81025D3F8042503
:1043BC0022F00302C3F8042580F8CB43FFF756FD27
:1043CC00074B1860084610BD005E0020FC5D002005
:1043DC0000E100E0EF5D0020EE5D002000B00C502D
:1043EC00F85D0020074B9B784BB132B128B10368C4
:1043FC00187C20B959745A617047072070470820FF
:10440C00704700BF005E00202DE9F347DFF888906D
:10441C00064699F802300F469046C3B3B8B3042948
:10442C0033D943699BB30024437C0DF10700012B66
:10443C000CBF8A46A2468DF8074000F00FF90DF12B
:10444C000600FFF71DFD054638B99DF8070000F082
:10445C000DF9042002B0BDE8F0870123466003701B
:10446C00FFF704FD9DF80630C5E90207C5E904A86D
:10447C009DF8070089F8013000F0F8F84FF0004281
:10448C00044B2046C3F80021E4E70720E2E70820AC
:10449C00E0E700BF00E100E0005E0020064A9278F1
:1044AC003AB130B1426922B1002202210274FFF705
:1044BC0009BD0820704700BF005E0020044B9B78AC
:1044CC001BB103210020FFF7FDBC0820704700BF83
:1044DC00005E00204B1C30B5DB00044612F00300DC
:1044EC009BB20DD1074D2A601A44074B1A60074B3B
:1044FC001870074B1870074B1C80074B198030BD88
:10450C000720FCE7185F0020145F0020105F0020DC
:10451C00115F00200E5F00200C5F00202DE9F34797
:10452C00DFF8B4800646B8F800300C468B421746CC
:10453C0049D300250DF107008DF8075000F08EF8D7
:10454C00224B234ADFF894C01B78BCF800C01078CB
:10455C00DBB26045C1B23CBF0131CDB2AB429DF87C
:10456C00070005D100F082F8042002B0BDE8F08706
:10457C0015781178DFF868908C45CBB292BF002388
:10458C000133DBB2137000F071F8D9F80030EDB2E2
:10459C004FEAC50A03EBC50243F8357086B17CB10E
:1045AC000C4BB8F800001B68224605FB0030314666
:1045BC0001F084FDD9F8003053449C800020D4E7EE
:1045CC0000239380FAE70920CFE700BF115F00209A
:1045DC00105F0020145F00200E5F00200C5F002095
:1045EC00185F002070B5104C104D22782B789A4231
:1045FC0000D170BD0E480F4A06880F482378126808
:10460C00006802EBC30103FB060052F833208988D3
:10461C0090470A4922780988D3B2914292BF00236D
:10462C000133DBB22370E0E7115F0020105F002044
:10463C000E5F0020185F0020145F00200C5F00202C
:10464C001FB5002101AACDE9021044F20100ADF81A
:10465C000410FDF78CF905B05DF804FBEFF3108343
:10466C0072B6003B18BF01230370704700B962B6E5
:10467C00704703462AB110881A4619448A4203D15E
:10468C0070474FF6FF70F7E743BA12F8010B9BB275
:10469C005840C0F30313434083EA0333580100F43A
:1046AC00FF509BB25840E9E70020064B064A1870B1
:1046BC00064B1A601022C3E90300C3E90120C3E9C9
:1046CC0005007047F8840020385F00201C5F002034
:1046DC000020704730B50446E9B10020114B08604A
:1046EC005A68D2B1B4F5167F19D84FF41775013A40
:1046FC005A60DA681C680132DA601A6905FB0244F8
:10470C000C600124996994400132214302F00F029C
:10471C0099611A6130BD0E20FCE70420FAE70C20E9
:10472C00F8E700BF1C5F0020F0B51C498A6892B303
:10473C004D694FF41777AC1A04F00F0423460E683A
:10474C0007FB036C604510D1012588699D406840CA
:10475C00886100204FF0010E4E6873440025D1F89B
:10476C0018C0164403F00F030AE0013303F00F03E3
:10477C009D42E5D11020EDE74AB11C460125013AD6
:10478C000EFA04F414EA0C0FA6EB0207F4D00DB1E8
:10479C00C1E90172F0BD0420FCE700BF1C5F0020E2
:1047AC004FF41771054A13691268013B03F00F03AC
:1047BC0001FB0323C3F85802002070471C5F002044
:1047CC0030B5C0B1B9B10E4BDA68B2B14FF4177550
:1047DC00013ADA609A681C6801329A605A6905FBE2
:1047EC0002440460D4F8580201320860002002F040
:1047FC000F025A6130BD0E20FCE70420FAE700BF1F
:10480C001C5F00203FB40C49086890B10B4B1C682E
:10481C007CB100230A4A8DF8043015680B60CDE991
:10482C000250136004AB13E90700234604B030BCFC
:10483C00184704B030BC7047FC840020148500205D
:10484C0004850020DC2810B509D0DD2810D0C02844
:10485C0016D1FFF7D7FF0E4B0E4A1A6010BD0E4A49
:10486C000E4B19681368581C1060C022CA54F2E72A
:10487C00094A0A4B19681368581C1060DB22F5E7CB
:10488C00064B054A196813685C1C1460C854E2E7AF
:10489C0020480020DD480000FC8400200485002016
:1048AC00C02802BF014B024A1A6070472048002002
:1048BC00DD48000008B5DB2000F0CCFB10B9024B42
:1048CC00024A1A6008BD00BF1C480020FD490000C8
:1048DC00C02810B409D0DB280BD0094B094A196841
:1048EC0013685C1C1460C85406E05DF8044BFFF7B9
:1048FC0089BF054B054A1A605DF8044B704700BF31
:10490C0004850020FC840020204800205148000031
:10491C0010B5064A064C12682368D05C00F09AFB6E
:10492C0010B923680133236010BD00BF108500202F
:10493C000885002008B5C02000F08CFB28B9034B7B
:10494C001B6813B9024B034A1A6008BD0885002086
:10495C001C4800201D4900007FB51C4C1C4E1D4DF1
:10496C00226833689A4219D31B4B2B60FFF7E2FF86
:10497C00002829D10122194B1A70194B1B681BB343
:10498C008DF80420174A126802922268039204AA36
:10499C0012E9070004B0BDE870401847114B2268BB
:1049AC001B689A5CC02A03D022689B5CDB2B05D168
:1049BC000D4B2A689A4204BF0C4B2B602B6898470E
:1049CC00042801D01128CBD104B070BD088500207B
:1049DC000C8500201C48002041490000188500204F
:1049EC0014850020108500201D490000C1480000DE
:1049FC0010B50C4A0C4C12682368D35CC02B03D046
:104A0C00DB2B0DD0042010BDDC2000F023FB002894
:104A1C00F9D12368054A01332360054B1A60F2E78C
:104A2C00DD20F2E710850020088500201D490000DC
:104A3C001C4800201FB503780446032B05D1164BE8
:104A4C001B78022B25D1FFF787FF2378042B20D16D
:104A5C00124B1A6862B1124B1968124B1B689942BF
:104A6C0006D2114B20791B6804B0BDE810401847E2
:104A7C000E4B1B686BB102210292094A8DF804108F
:104A8C001268039204AA12E9070004B0BDE81040B2
:104A9C00184704B010BD00BF188500200485002005
:104AAC00FC84002000850020204800201485002074
:104ABC00014B18600020704714850020F0B50C4E97
:104ACC0087B0377897B96C460A4D0FCD0FC495E86F
:104ADC000300072384E80300074A3946684600F0C0
:104AEC006BFA08B90123337007B0F0BD0020FBE767
:104AFC001885002028150000414A00000022024BB6
:104B0C001A7000F0BBBA00BF1885002010B5C0B1F8
:104B1C000D4B1A78012A04D0022A0CBF042008205D
:104B2C0010BD0024094A1460094A1160094A10603A
:104B3C0002221A70084B094A1A60FFF70DFF204633
:104B4C00EEE71020ECE700BF188500200885002058
:104B5C000C850020108500201C48002041490000D5
:104B6C00054B064A18600020054B1960054B186070
:104B7C00054B1A60704700BF04850020AD4800004B
:104B8C0000850020FC840020204800200022064BD9
:104B9C0006481B680421DB00DBB203705B424270E9
:104BAC008270C370FFF7B2BF5885002019850020B2
:104BBC0010B52B4C2378012B04D0022B1ED003B93B
:104BCC0058B310BD0128FCD1264B1968264B063171
:104BDC001868FFF79BFF08B1FFF732FD0223237023
:104BEC000022224B41F6E12121481A60FFF70CFC10
:104BFC000028E6D0BDE81040FFF722BD02281BD0EC
:104C0C00032802D00028DCD1EAE71A4A13680133E2
:104C1C0003F007031360002323701548FFF73EFCD5
:104C2C0008B1FFF70DFD144B1B68002BC9D0BDE874
:104C3C001040124A107818470C4A1368052B0AD0FA
:104C4C0001331360074BBDE810401968064B063161
:104C5C001868FFF75BBF0122084B1A70DBE700BF37
:104C6C00688500204C85002050850020248500207C
:104C7C002885002054850020648500202285002092
:104C8C00F0B585B004AB03E907009DF804000D46B0
:104C9C001646032876D8DFE800F00802A8AB0120FE
:104CAC0005B0BDE8F040FFF783BF032A524C40F239
:104CBC0083804B7813F00F0269D00E2A7CD1042E1E
:104CCC0059D00A78500656D5110654D51A44AB78EB
:104CDC001A44EB781A4412F0FF024CD1B71E394635
:104CEC002846FFF7C6FCEB5B834244D143492A7844
:104CFC000B6802F00702D8B282422FD1013303F0C5
:104D0C0007030B60FFF742FF01223D4B30461A7040
:104D1C00FFF746FD08B1FFF793FC4FF416703649C8
:104D2C00FFF7D8FCB0B1042810D105213548FFF7A6
:104D3C0017FF08B1FFF784FC334B1B68002B59D0CD
:104D4C004FF0000005B0BDE8F04018470020FFF719
:104D5C0077FCEAE74FF416712068E8E74FF4167118
:104D6C002068FFF7FDFE08B1FFF76AFC05B0BDE84F
:104D7C00F040FFF70BBF4FF416712068FFF7F0FE01
:104D8C00002837D005B0BDE8F040FFF759BC0A78D1
:104D9C00897813440B44E9780B44DBB263B91B4BA1
:104DAC001B68013383EAD20313F0070304D1184ABA
:104DBC0003201370FFF7FCFE25681DB14FF416712C
:104DCC002846DBE74FF416700B49FFF783FC18B944
:104DDC004FF416712068D1E7042802D10521094847
:104DEC00CCE72846FFF72CFCF8E705210548C5E77A
:104DFC000320C7E705B0F0BD5C8500205885002076
:104E0C00488500201D8500206085002054850020E9
:104E1C00228500200220FFF7CBBE0000074B10B507
:104E2C00044618600648FFF743FE08B1FFF708FC7C
:104E3C00002C0CBF0E20002010BD00BF6085002090
:104E4C008D4C000000230121174A10B51360174A3E
:104E5C0017481360174A1360174A1370174A1370D8
:104E6C00174B184A1960184B1960184B1970FFF73B
:104E7C00B9FA08B1032010BDFFF716FC0028FAD1CF
:104E8C00FFF71CFE0028F6D1114C4FF4167021468A
:104E9C00FFF720FC0028EDD120684FF41671BDE817
:104EAC001040FFF75DBE00BF508500204C850020F0
:104EBC0040150000248500204885002068850020CE
:104ECC0058850020214E00005485002022850020AA
:104EDC005C85002008B500230B4A13600B4A136055
:104EEC00FFF7F6FB08B1FFF7ABFBFFF707FE08B1C6
:104EFC00FFF7A6FB0648FFF7D1FA042802D10020E1
:104F0C00FFF79EFB002008BD648500206085002013
:104F1C002885002037B50D46044698B191B1002282
:104F2C00094B0192197859B101A91A70FFF748FC85
:104F3C00019B063B2B8023680433236003B030BDF8
:104F4C000420FBE70E20F9E7488500200438FFF722
:104F5C00EBBB000013B50478012C13D104238DF89E
:104F6C000030436822461B780F4910488DF80430F6
:104F7C0000F034FA0E4B1C700E4B68461B689847B9
:104F8C0002B010BD022C09D1C368012206490748A2
:104F9C008DF80040019300F021FAEDE7002CEFD1E1
:104FAC0003238DF80030E7E77185002024480020AA
:104FBC00708500206C850020F0B589B06D460446E4
:104FCC001E4E17469C460FCE0FC596E80F0085E87F
:104FDC000F00636900220693237C8DF81CC0003BF4
:104FEC0018BF01238DF81430637C6946002B0CBF6D
:104FFC0000230E238DF81530E36811480293A36843
:10500C00039323680193636800930E4B1F600E4B50
:10501C001A700E4A00F0B6F868B9236801330AD04A
:10502C009DF81D3013B9064800F05AFA01220849C0
:10503C00034800F0D3F909B0F0BD00BF44150000DF
:10504C00244800206C85002070850020614F0000F2
:10505C0071850020074908B501220870064800F048
:10506C0075F9112803D0002818BF032008BD0420AF
:10507C00FCE700BF728500202448002008B50248D8
:10508C0000F000F9002008BD244800201FB50123C2
:10509C008DF80030054B8DF8080001916846D3E976
:1050AC000012904705B05DF804FB00BF748500202A
:1050BC005F2800F01F034FEA50110BD8084A52F832
:1050CC00212002EB8303D3F88010064A0A40C3F870
:1050DC00802070470022203352F82330FFDE00BFBF
:1050EC0064150000F0F0FCFF5F284FEA501208D85E
:1050FC00054B00F01F0053F822200123834053601E
:10510C00704700235B60FFDE641500005F2800F031
:10511C001F034FEA50110DD8094A52F8212002EB17
:10512C008302D2F88010074B0B4043F00303C2F804
:10513C00803070470022203352F82330FFDE00BF4E
:10514C0064150000F0F0FCFF5F2800F01F034FEA2D
:10515C0050110DD8094A52F8212002EB8302D2F8E3
:10516C008010074B0B4043F00203C2F880307047AD
:10517C000022203352F82330FFDE00BF64150000FC
:10518C00F0F0FCFF1C232DE9F0413C4E90F804801C
:10519C00054603FB0863DB7E0C461746002B6AD1E1
:1051AC000868431C04D0FFF79FFF0868FFF7AEFFA9
:1051BC006068411C01D0FFF77BFF2A68A169237D41
:1051CC00607DC2F824152A680343C2F86C352B683D
:1051DC00D4E90012C3F80416C3F80C26237D012B66
:1051EC0013D1A068421C01D0FFF762FFE068431C9A
:1051FC0004D0FFF779FFE068FFF788FFD4E90221BC
:10520C002B68C3F81016C3F808261C2303FB08F3FD
:10521C00F21857602269F250F7B100232A68217FF7
:10522C00C2F84C31D2F84C212A68C2F86831D2F855
:10523C0068212A68C2F81431D2F814212A68C2F8FD
:10524C002431D2F824312B680D4AC3F80423286882
:10525C00C0F3073000F0BAF908222B680020C3F81D
:10526C0000251C2303FB08664FF48073F082307614
:10527C007383BDE8F0810820FBE700BF7485002034
:10528C002002080400212DE9F04102680579C2F8DA
:10529C0000151C22244C034602FB054252689AB1AD
:1052AC0002682249C2F8081302680120C2F3424185
:1052BC00C2F30432904001F120021D4941F8220052
:1052CC00BFF34F8FBFF36F8F4FF0FF311A68D2F8D7
:1052DC000406D2F80C86D2F81066D2F80876C2F81A
:1052EC000416C2F80C161B688842C3F81016C3F8D3
:1052FC00081601D0FFF728FFB8F1FF3F02D0404657
:10530C00FFF722FF7A1C02D03846FFF71DFF731CF3
:10531C0002D03046FFF718FF1C2303FB0544002383
:10532C00E3766360BDE8F0817485002020020804F8
:10533C0000E100E01C210279034B01FB0233987D54
:10534C00003818BF012070477485002001F06043BD
:10535C00B3F1005F2DE9F04104460F46904637D17A
:10536C00FFF7E8FF002835D11C2326791A4D03FBE3
:10537C000656B082B76086F816802279216803FB46
:10538C000253C1F86801D1F8681121689E7DC1F8FB
:10539C003001D1F830119F6821685B68C1F83C7707
:1053AC00C1F84067012621680E657BB92168D1F8E8
:1053BC006831D1F830010343F9D01C23002803FBDA
:1053CC0002554FF0000318BF0F20AB75BDE8F081FC
:1053DC001020FBE71120F9E77485002001F06043F1
:1053EC00B3F1005FF0B574D11C2504793A4B05FB81
:1053FC0004356E6895F817C03EB9BCF1000F12D099
:10540C002D7E002D46D01120F0BD344E0768C7F814
:10541C000863BCF1000F06D02D7E002D3AD0036836
:10542C00C3F80463EFE71C26002506FB0436F2756F
:10543C00F16075762E461C2707FB04342576002573
:10544C000468C4F84C51D4F84C410468C4F8245195
:10545C00D4F824410468C4F80417C4F80827026877
:10546C00FEB901219162027901681C2000FB023017
:10547C00406848BBD1F84C41D1F82451D1F8140103
:10548C002C4315D10028F5D01C2101FB023203203E
:10549C00D475B9E71C2505FB043501262961154691
:1054AC00C9E7D2F8001241F02001C2F80012DAE785
:1054BC001C2101FB02330022904218BF03209542AD
:1054CC0018BF0F20DA759FE7044B0020C1F8043396
:1054DC009AE7102098E700BF748500202000080090
:1054EC00704700007FB5374BD3F81451002D47D0CF
:1054FC000022C3F81421D3F8141102218DF80010E6
:10550C00D3F880146846C3F880140391D3F80C3791
:10551C008DF808302C4BD968DA7501911A76D3E9DD
:10552C0000129047274BD3F8242172B10021C3F805
:10553C002411D3F82421244AD07D30B1D175D3F86D
:10554C000C07D168C0B2FFF7A1FD1E4AD2F8683132
:10555C00A3B10021C2F86811D2F868311A4B987DBA
:10556C0060B1D2F8442768468DF808209A688DF807
:10557C00001001929975D3E90012904704B070BDE8
:10558C00D3F84C21002ACDD0C3F84C51D3F84C2180
:10559C000D4AD3F80C17D07DC9B28842C2D1147E03
:1055AC00D16864B1D3F8006226F02006C3F800621B
:1055BC001369D475D3601576FFF768FDB2E7D4751F
:1055CC00FAE700BF00600C507485002049010028E8
:1055DC00C9B213DB00F1604303F5614383F8001398
:1055EC00012300F01F024009800000F1604093404D
:1055FC0000F56140C0F8803103607047024B00F049
:10560C000F001954704700BF14ED00E00129F8B5E4
:10561C000D4614461E4607D0032912D00CB3204663
:10562C00BDE8F840FFF70CB80E4B1B78052BF5D1F5
:10563C000D4B1B68002BF1D03246214604209847B5
:10564C00ECE7084F3B78022BE8D1084B5B68984796
:10565C00054B3D701B68002BE0D032462146284696
:10566C00EDE7F8BD688600209C8500209085002021
:10567C000122094B00B51A70052389B08DF808304A
:10568C0008AB13E903008DE8030002AB0FCBFCF76A
:10569C00F1FF09B05DF804FBAC85002000B589B0C2
:1056AC0002AB18220021184600F02DFD0322034600
:1056BC008DF808200B4A1288ADF80A200A4A516866
:1056CC0003919168D2680491059208AA12E903002B
:1056DC008DE803000FCBFCF7CDFF002009B05DF87F
:1056EC0004FB00BFD085002054860020012300B5A8
:1056FC0089B08DF808300D4B1B88ADF80A304FF48B
:10570C00004306930A4B5A6803929A68DB6804922A
:10571C00059308AB13E903008DE8030002AB0FCB34
:10572C00FCF7A8FF002009B05DF804FBD085002031
:10573C005486002000B589B002AB1822002118460F
:10574C0000F0E1FC042203468DF8082008AA12E9B7
:10575C0003008DE803000FCBFCF78CFF09B05DF85C
:10576C0004FB000030B5182589B002AC2A46002194
:10577C00204600F0C8FC2A4600250021204600F0F7
:10578C00C2FC0A4B8DF808501B88ADF80A30084B48
:10579C00DB68059308AB13E903008DE8030094E87C
:1057AC000F00FCF767FF284609B030BDD0850020FC
:1057BC0054860020022273B5144B154D154E1D60F6
:1057CC00154B1A70FCF7DEF8044680B12846316898
:1057DC00FEF740FB042804D1FCF70AFB0528FBD19B
:1057EC00F4E780B102B0BDE87040FEF729BF4FF47A
:1057FC0000403168FCF700F8234622460321284676
:10580C000094FFF703FF02B070BD00BFA08500201D
:10581C00A4850020648600206886002010B50B4B00
:10582C001B788BB90A48FEF739FE08B1FEF708FF62
:10583C0000224FF434010648FEF7E6FD044608B199
:10584C00FEF7FEFE204610BD0824FBE7AC850020C9
:10585C00B0850020064A08B5904206D9401AFFF7D9
:10586C00F9FF002808BF062008BD0620FCE700BF92
:10587C0000A815007FB50024154B164E0193164B4E
:10588C0031461C70154B01A8CDE902441C80FEF773
:10589C00BFFA0546B8B94FF400430146104A114807
:1058AC007360FEF79FFD08B1FEF7CAFE00224FF4AD
:1058BC0034010D48FEF7A8FD08B1FEF7C1FE002229
:1058CC0001240A4B1A602846094B1C7004B070BDA9
:1058DC0019560000A4850020D2850020D085002018
:1058EC007D56000070150000B08500206C860020ED
:1058FC0068860020014B1860704700BF9C85002013
:10590C0070B5204C43680FCB84E80F002278510708
:10591C0001D593072FD163689E072CD1A1688D0701
:10592C0029D1E068840726D1174E0B440344B1F506
:10593C00004F336021D815498B421ED8D30718D499
:10594C0012F0020F124A134B08BF1346124D134AA2
:10595C002A60134AC5E90123124B1B78012B0ED187
:10596C00FFF75CFF044610B92B6830689847204657
:10597C0070BD0D4BEAE70624F9E70C24F7E7082481
:10598C00F5E700BF548600206486002000F0130069
:10599C0071570000A956000090850020C1570000E7
:1059AC004157000068860020F95600002DE9F743A6
:1059BC000746002854D083689B0753D12C4B1B7887
:1059CC00052B51D12B4E42683368DFF8AC8003EBCA
:1059DC0082039500D8F80020934207D94FF0FF338B
:1059EC000C243360204603B0BDE8F083FFF716FFAC
:1059FC0004460028F6D1BF68FBF7C4FFDFF87C90A3
:105A0C0080B12A4639463368D9F80000FEF712FAFD
:105A1C00042804D1FCF7ECF90528FBD1F1E788B197
:105A2C000446DFE7306823462A46394600F5004035
:105A3C00FBF712FF00953B4622460121D9F80000E6
:105A4C00FFF7E4FD33681D44D8F8003035609D4203
:105A5C000CD1FBF797FF0028C4D1FBF7DFFEC1E7A1
:105A6C000E24BFE71024BDE70824BBE70924B9E7DF
:105A7C00688600206C86002064860020A0850020AB
:105A8C0070B50B4B1D6885B90A4E3378042B0CD1BD
:105A9C00094C0A4B21781A780948FBF7B1FD10B96B
:105AAC000523337070BD2570FCE70820FAE700BFB2
:105ABC006C86002068860020D28500205486002049
:105ACC00D3850020F8B5144B05461A78032A04D068
:105ADC00042A04D008242046F8BD04221A700F4B67
:105AEC001B68002BF6D1FFF799FE04460028F2D173
:105AFC000B4E6B6830789F0000EB8303802B09D82A
:105B0C00084B3A461844A96800F0D8FA33783B445D
:105B1C003370E0E70924DEE7688600206C860020FD
:105B2C00D2850020D385002038B50D4C2378052B69
:105B3C0014D10C4B0C4D1A682B689A420ED10623CB
:105B4C002370FFF76BFE40B9084B29681B68586837
:105B5C00FBF792FD08B90723237038BD0820FCE73A
:105B6C00688600206C86002064860020A0850020BA
:105B7C0010B5084B1B78072B0AD10748FEF78EFC93
:105B8C0008B1FEF75DFDBDE81040044B9B6818475B
:105B9C00082010BD68860020B0850020908500206C
:105BAC0000B589B002AB18221846002100F0ABFA00
:105BBC0006228DF808200D4A03461278052A13D1C7
:105BCC000B4A0C4912680968521A18BF01228DF849
:105BDC001C2008AA12E903008DE803000FCBFCF788
:105BEC0049FD09B05DF804FB0022F0E7688600204F
:105BFC006C8600206486002000B589B001A8FCF7F3
:105C0C0095FE0498F0B1079B00F5AD1202F5006209
:105C1C009A4216D94FF4AE12D2F80828904210D8F6
:105C2C000A49A3F5AD13A3F5006301EA530148003B
:105C3C0000F5AD1000F5006009B05DF804EBFFF75E
:105C4C0009BE062009B05DF804FB00BF00F0FFFFA1
:105C5C0000B589B001A8FCF769FE0598002818BFAB
:105C6C00062009B05DF804FB00B589B001A8FCF76B
:105C7C005DFE0598002818BF062009B05DF804FBEE
:105C8C0000B589B001A8FCF751FE0498F0B1079B50
:105C9C0000F5AD1202F500629A4216D94FF4AE121D
:105CAC00D2F80828904214D80B49A3F5AD13A3F5EC
:105CBC00006301EA5301480000F5AD1000F50060E7
:105CCC0009B05DF804EBFFF7C5BD062009B05DF81F
:105CDC0004FB0E20FAE700BF00F0FFFF19491A4A37
:105CEC001A4B00F010F81A491A4A1B4B00F00BF82B
:105CFC001A491B4A1B4B00F006F81B491B4A1C4B4C
:105D0C0000F001F806E0521A03DD043A9858885066
:105D1C00FBDC70471749184A00F009F81749184A74
:105D2C0000F005F81749184A00F001F806E00020C9
:105D3C00521A02DD043A8850FCDC7047FCF766FA14
:105D4C00FBF726FE004800202C4800209461000040
:105D5C002C4800202C480020C06100002C4800205A
:105D6C002C480020C06100002C4800202C4800204A
:105D7C00C06100002C480020708600207086002036
:105D8C00708600207086002070860020FEE7FEE7FB
:105D9C00FEE7FEE7FEE7FEE7FEE7FEE7FEE7FEE7CF
:105DAC00FEE700BF53B94AB9002908BF00281CBF41
:105DBC004FF0FF314FF0FF3000F07EB9ADF1080C21
:105DCC006DE904CE00F006F8DDF804E0DDE902230D
:105DDC0004B070472DE9F04F099D0C46002B4DD1B6
:105DEC008A420F4684469646B2FA82F360D94BB18A
:105DFC0002FA03FEC3F120029F4000FA03FC20FAD2
:105E0C0002F217434FEA1E461FFA8EF44FEA1C4269
:105E1C00B7FBF6F106FB117701FB04F042EA0742EF
:105E2C00904208D91EEB020201F1FF3702D29042D8
:105E3C0000F22D813946121A1FFA8CFCB2FBF6F0D7
:105E4C0006FB102200FB04F44CEA024C644508D912
:105E5C001EEB0C0C00F1FF3202D2644500F21A81E9
:105E6C00104640EA0140ACEB040C002125B12CFAA1
:105E7C0003F30022C5E90032BDE8F08F8B4205D94F
:105E8C000DB1C5E9000100210846F5E7B3FA83F12D
:105E9C0000294DD1A342C0F0F280904280F0EF80F7
:105EAC00064623460846002DE6D0C5E90063E3E725
:105EBC00002B40F0A2808A1A4FEA1E471FFA8EF67A
:105ECC000121B2FBF7F407FB14204FEA1C4242EA13
:105EDC00004206FB04F090420FD91EEB020204F1C3
:105EEC00FF382CBF4FF001094FF00009904203D945
:105EFC00B9F1000F00F0C8804446121A1FFA8CFC4E
:105F0C00B2FBF7F007FB102200FB06F64CEA024C42
:105F1C00664508D91EEB0C0C00F1FF3202D2664527
:105F2C0000F2BB801046ACEB060C40EA04409DE747
:105F3C00C1F120068B4004FA01FE22FA06F720FA82
:105F4C0006FCF4408A401F434EEA0C0300FA01FEA3
:105F5C004FEA17484FEA13491FFA87FCB4FBF8F0D5
:105F6C0008FB104449EA044400FB0CF9A1450ED986
:105F7C003C1900F1FF3A2CBF4FF0010B4FF0000B16
:105F8C00A14503D9BBF1000F00F093805046A4EB60
:105F9C0009041FFA83F9B4FBF8F308FB134403FB61
:105FAC000CFC49EA0444A44506D93C1903F1FF381A
:105FBC0001D2A4457AD8434643EA0040A4EB0C0432
:105FCC00A0FB02984445CC46434602D306D1CE45AD
:105FDC0004D20138B9EB020C68EB07035DB1BEEBE0
:105FEC000C0264EB030404FA06F622FA01F3CC402B
:105FFC001E43C5E9006400213EE702FA03FEC3F12B
:10600C00200104FA03F200FA03FCCC404FEA1E47CD
:10601C0020FA01F11FFA8EF6B4FBF7F00A4307FBE6
:10602C001044110C41EA044100FB06F48C420ED9D9
:10603C001EEB010100F1FF382CBF4FF001094FF0AE
:10604C0000098C4202D9B9F1000F2CD04046091B33
:10605C0092B2B1FBF7F407FB141142EA014204FBC4
:10606C0006F1914207D91EEB020204F1FF3801D26E
:10607C00914215D84446521A44EA004121E7861A47
:10608C0064EB030301200EE7023C724435E702394E
:10609C007244D0E6F4440238E3E6F444023842E7B2
:1060AC00023C7244E7E702387144D0E7023B3C44BF
:1060BC0082E702383C446AE7704700BF0A44431E3B
:1060CC00914200D1704710B511F8014B914203F881
:1060DC00014FF9D110BD034613F8012B002AFBD157
:1060EC00181A013870470139024410B5904201D199
:1060FC00002005E0037811F8014FA34201D0181BD2
:10610C0010BD0130F2E702440346934200D17047C0
:10611C0003F8011BF9E7000010000000000000006C
:10612C00017A5200027C0E011B0C0D0010000000C5
:10613C0018000000A2FFFFFF10000000000000008C
:10614C0094610000004800200B000000C0610000BA
:10615C002C48002000000000C06100002C480020EA
:10616C0000000000C06100002C480020000000006E
:10617C002C480020910F00007086002000000000C9
:08618C007086002000000000F5
:1061940000A81500FFFFFFFFF8FF03200090D003C5
:1061A400FF00000032000000FFFF00001D49000056
:0C61B400AD48000000600C50000000002E
:107C0000F1109E1E797A222003000000640000001B
:107C1000CC00000000001800CD00000000000400AF
:107C2000D200000020000000000000000000000062
:107C30000000000000000000000000000000000044
:087C400000000000000000003C
:0400000300005CE9B4
:00000001FF
