:1000000080FF0320AD5C00005D5D00005F5D0000CF
:10001000615D0000635D0000655D0000675D0000DC
:100020000000000000000000000000006D1700004C
:100030006B5D0000000000006D5D0000E921000024
:1000400000000000000000000000000000000000B0
:1000500000000000000000000000000000000000A0
:100060000000000000000000000000000000000090
:100070000000000000000000000000000000000080
:100080000000000000000000000000000000000070
:100090000000000000000000000000000000000060
:1000A0000000000000000000000000000000000050
:1000B00091170000751E0000715D00008540000072
:1000C0000000000000000000000000000000000030
:1000D0000000000000000000000000000000000020
:1000E0000000000000000000000000000000000010
:1000F0000000000000000000000000000000000000
:1001000000000000000000000000000000000000EF
:1001100000000000000000000000000000000000DF
:1001200000000000000000000000000000000000CF
:1001300000000000000000000000000000000000BF
:10014000715D0000715D0000000000000000000013
:10015000000000000000000000000000000000009F
:10016000000000000000000099170000A117000027
:10017000715D0000715D000081240000000000003E
:100180000000000000000000715D000000000000A1
:10019000715D0000715D00000000000000000000C3
:1001A000715D0000715D0000715D000000000000E5
:1001B000000000000000000000000000000000003F
:1001C000000000000000000000000000000000002F
:1001D000000000000000000000000000000000001F
:1001E000000000000000000000000000000000000F
:1001F00000000000000000000000000000000000FF
:1002000000000000000000000000000000000000EE
:1002100000000000000000000000000000000000DE
:1002200000000000000000000000000000000000CE
:1002300000000000000000000000000000000000BE
:10024000715D0000000000000000000000000000E0
:1002500000000000A917000000000000715D000010
:100260000000000000000000B1170000715D0000F8
:10027000000000000000000000000000000000007E
:10028000000000000000000000000000000000006E
:10029000000000000000000000000000000000005E
:1002A000000000000000000000000000000000004E
:1002B000000000000000000000000000000000003E
:1002C000000000000000000000000000000000002E
:1002D000000000000000000000000000000000001E
:1002E000000000000000000000000000000000000E
:1002F00000000000000000000000000000000000FE
:1003000000000000000000000000000000000000ED
:1003100000000000000000000000000000000000DD
:1003200000000000000000000000000000000000CD
:1003300000000000000000000000000000000000BD
:10034000715D0000000000000000000000000000DF
:100350000000000000000000B5540000715D0000C6
:10036000715D0000715D0000715D0000C13F000023
:10037000715D0000715D0000715D00000000000013
:10038000715D0000715D0000715D0000715D000035
:10039000715D0000715D0000715D0000715D000025
:1003A0000000000000000000715D0000715D0000B1
:1003B000000000000000000000000000000000003D
:1003C000715D0000715D0000715D0000715D0000F5
:1003D000715D0000B917000000000000000000007F
:1003E000715D00000000000000000000000000003F
:1003F00000000000715D0000715D0000715D000093
:1004000000000000000000000000000000000000EC
:1004100000000000000000000000000000000000DC
:1004200000000000000000000000000000000000CC
:1004300000000000000000000000000000000000BC
:10044000715D0000000000000000000000000000DE
:10045000715D000000000000715D00000000000000
:10046000715D0000715D00000000000000000000F0
:10047000715D0000715D0000C11700000000000008
:10048000000000000000000000000000000000006C
:10049000000000000000000000000000000000005C
:1004A000000000000000000000000000000000004C
:1004B000000000000000000000000000000000003C
:0804C00000000000715D000066
:1004C800FFFFFFFFFFFFFFFFFFFFFFFFFFFFFFFF34
:1004D800FFFFFFFFFFFFFFFFFFFFFFFFFFFFFFFF24
:1004E800FFFFFFFFFFFFFFFFFFFFFFFFFFFFFFFF14
:1004F800FFFFFFFFFFFFFFFFFFFFFFFFFFFFFFFF04
:1014C800002080000100000101070000000000006A
:1014D80000000000000000000338FDD8704700102D
:1014E8000200DC053C00000000A0105000820D50F6
:1014F8000004055000860D500338FDD870470000E1
:1015080000000000000000000338FDD8704700000C
:10151800D45A0020416461444655005365656564AA
:10152800005849414F206E524635344C4D323041B7
:101538000076302E342E3020733134352031302E61
:10154800302E310000000000000000000000000004
:101558000000000023D1BCEA5F782315DEEF1212E9
:10156800000000002A0000002B000000FFFFFFFF22
:10157800FFFFFFFF010000000000D6012C850020BE
:10158800FFFFFFFFFFFFFFFFFFFFFFFFFFFFFFFF63
:1015980000000000000000000000D6010701000064
:1015A80000A0105000820D500004055000860D5018
:0415B800B4850020D6
:0815BC00E847000001000000F7
:1015C40010B50C46E0B90968C1B10E48814207D094
:1015D400431A3B2B0ED83C23CA5CC254013BFBD2BA
:1015E40000223C21074803F02AF8074B1880002307
:1015F400236010BD3C2204F047FDF1E70E23F7E71A
:101604000123F5E780FF0320BCFF032038B504461F
:10161400A8B13C2100220C4803F011F80B490B88B7
:1016240083420ED1084A02F13C0052F8045B824224
:1016340044F8045BF9D1002001330B8038BD0E203F
:10164400FCE70B20FAE700BF80FF0320BCFF032068
:101654000B2970B50446154608462AD92389204427
:10166400053304EB4301431ADAB2012A21D981423A
:101674001FD8134804F008FD2388542B1BD1AB0753
:1016840004D04DF2683362889A4214D100234FF695
:10169400FE7034F8081F0B4D994201D80B2070BD21
:1016A40034F8022F824208D0AE89964205D0013325
:1016B400F2E70920F3E70F20F1E70020EFE700BF8E
:1016C4002C48002000C81D0008B5002202F0B7FF16
:1016D400034B1B88834214BF0B20002008BD00BFAE
:1016E4002C48002010B5044C23781BB900F036F8C0
:1016F4000123237010BD00BF94480020002208B5C8
:101704000B4B83F88A2383F8852383F8E52380220F
:1017140083F84A2383F80E2483F84B2383F81C238D
:1017240083F81F2CFFF7DEFF024B034A1A6008BD43
:1017340000E100E098480020C14BF3470022014B30
:101744001A607047984800201E4A12681E498A424F
:1017540003D11E49096809580847704700B51B4959
:1017640009680968884700BD1EF0040F0CBFEFF339
:101774000881EFF30981886910F8020C102801D25E
:10178400134A1047114A1268926810474FF00C0030
:10179400DAE700BF4FF01000D6E700BF4FF01400A7
:1017A400D2E700BF4FF01800CEE700BF4FF01C0097
:1017B400CAE700BF4FF02000C6E700BF4FF0240087
:1017C400C2E7000098480020C14BF34700480020BE
:1017D400C515000012DF704729DF70472DE9FF416E
:1017E400134F044697F800C00D461646BCF1000F8F
:1017F40010D14FF001080F4A01AB106851681289EB
:1018040003C3614601A81A808DF8048000F020FE0D
:1018140087F800802021012000F016FE3246294678
:10182400204600F0E9FD04B0BDE8F04100F020BE20
:101834009C480020C81400004FF480620149FFF75F
:10184400CDBF00BFC804000070B500264C1E20F4B4
:101854007F65240B25F00F05013405EB06300136B6
:10186400FFF7EAFFA642F8D370BD000038B50C4C70
:10187400054621684B1C12D04FF48052094804F0ED
:1018840018FC48B115B12068FFF7D6FF4FF4806209
:1018940004492068FFF7A2FF4FF0FF33236038BDEF
:1018A40004480020A04800202DE9F84F05460F46C3
:1018B40014469846DFF850B0DFF85090DFF850A097
:1018C4000CB9BDE8F88FD9F8003005EA0B06B3422D
:1018D4000AD04046FFF7CAFF4FF4805231465046C3
:1018E400C9F8006004F0D0FBC5F30B00C0F58056C6
:1018F400A64228BF264639463246504404F0C4FB6B
:10190400A41B35443744DBE700F0FFFF0448002004
:10191400A048002013B5002304460DF107008DF8FC
:101924000730FFF757FF20039DF8074034B14FF409
:1019340080620449FFF750FF02B010BDFFF77CFF3F
:101944002046F9E7C8040000FFF776BFFFF746BF5B
:10195400BFF34F8F0549064BCA6802F4E062134394
:10196400CB60BFF34F8F00BFFDE700BF00ED00E089
:101974000400FA0510DF704711DF704712DF70476B
:101984004FDF704749DF70478DDF704760DF704776
:101994006ADF704761DF704768DF7047002307B56F
:1019A4000DF107008DF80730FFF7E8FF9DF80730C9
:1019B400012B01D1FFF7E0FF03B05DF804FB08B58C
:1019C4004FF0E023D3F8F03DDB0700D500BEFFF76E
:1019D400BFFF0000014B1878704700BFA3580020D8
:1019E4004FF4EE132DE9F04FDFF85892D3F8043892
:1019F40093B04B4501D1FFF775FE4FF48062814BE4
:101A0400C3F8402500F0DEFA00F0D8FE002000F014
:101A1400F1FB00F032FF48B1052000F0EBFB00F0D1
:101A24003FFF00F06DFF062000F0E4FB0022764B40
:101A3400DFF814A2D3F80045744DB12C744E754FE1
:101A44008AF800202ED0A82C2CD02A70D3F80016A7
:101A54004E2C01F0010101912AD1C3F8002500F0B8
:101A6400E5FD4FF0010803464FF40041D1F8002290
:101A740069493068BA4218BF002101604FF4EE1181
:101A8400D1F80418494500F0828000212970B8F18A
:101A9400000F00D1D3B9022000F0ACFB012000F00C
:101AA400A9FB72E101222A70D3F800260022D4E7B0
:101AB4003168DFF898B10968594501D1019949BBEA
:101AC4006D2C2CD10022504BC3F8002500F06EFE83
:101AD400044600F01BFBA4B900F0A8FD88B100F097
:101AE400CCFE70B94FF4EE13D3F804384B4503D150
:101AF400FFF754FFFFF722FE002233681A6000F05C
:101B0400A9FE464B1B781BB1A8223F4BC3F8002506
:101B1400FFF71EFF6D2CC3F80025D7D09FE70920DF
:101B240000F0D6F9804618B100F080FD03469BE72B
:101B340000F07CFD034648B94FF40042D2F800227D
:101B4400D21BD2F1000848EB02088DE73168324A13
:101B54000868904288D04FF40040D0F80002B842A0
:101B640013D0019A002A3FF47FAFC1F800B02C498A
:101B74002C4809680193B1FBF0F12B4848432B49E9
:101B840041F001018847019B6EE798466CE7B8F184
:101B9400000F01D1002B99D12B78002B3FF47BAFA0
:101BA400082000F027FB01238AF80030FFF7A6FD88
:101BB4001F4A03AB1068516803C31E4903A8FFF70B
:101BC400D9FE08B102F022FD1B4A1420D2F80034D9
:101BD4001A4943F00203C2F800344FF00113184AC3
:101BE4000B600B6BC3F3420320FA03FC1CF0010FE0
:101BF40040F0E080052B01D0013AF2D1032002F03D
:101C040005FD41E000C00C5000E01050A358002036
:101C1400084800207CB0EE877E67E54EA15800207E
:101C24000C48002040420F0020A10700E0140000EF
:101C3400E6140000C3190000009005500010015084
:101C4400A0860100DBE5B151A0580020D51A5A0046
:101C5400013BD3D0DBF80420002AF9D0C8F1200AD4
:101C6400BAF1040F28BF4FF0040ADBF88030524663
:101C740007930AAB03EB080007A9D04404F004FA65
:101C8400B8F11F0F40F29A800AA8FFF779FE08B155
:101C940002F0BCFCC0224C4B83F81D234FF00052D1
:101CA4001A604A4B0C22002107A8029304F011FA8F
:101CB40040F20113029A07A940200793FFF768FE38
:101CC4000C22002107A804F004FA9DF81C30029AA3
:101CD40043F0010307A9A0208DF81C30FFF758FE3C
:101CE4000C22002107A804F0F4F94FF00108F723AF
:101CF4004FF00C0A029A07A92320ADF81E308DF884
:101D04001C80FFF745FE0C22002107A804F0E1F92E
:101D1400029A07A920208DF81C808DF81E80ADF84A
:101D240020A0FFF735FE5246002107A804F0D1F9A0
:101D3400029A07A922208DF81C808DF81EA0FFF7B7
:101D440027FE5246002107A804F0C3F902232120EC
:101D5400029A07A98DF81C808DF81E30FFF718FE33
:101D640002A8FFF713FE08B102F050FC002108227C
:101D740005A804F0AEF99DF81430022043F00103E5
:101D840005A98DF81430FFF707FE4FF40043D3F88C
:101D940000322878BB4201D04E2C11D1012240F6EA
:101DA400B83100F023FD2B78002B3FF48FAEFFF702
:101DB400F5FD8BE64FF00008DFF818B0044B49E757
:101DC40000221146EDE700BF00E100E000480020DA
:101DD400A0860100001001504FF4FA7310B5FEB054
:101DE400ADF8023000230DF1020101A8ADF8043072
:101DF400FFF7D0FD044640B9BDF80430102B07D0DE
:101E0400112B15D001A801F025F820467EB010BD95
:101E1400ADF800006946BDF80800FFF7B5FD0123E1
:101E24000720054A1370054A137000F0E3F9E9E747
:101E3400014B18700820F8E7A2580020A158002090
:101E4400002313B501A80193FFF79CFD044610B9C4
:101E5400019801F057FF204602B010BD08B5FFF706
:101E6400BBFF0528FBD1FFF7EBFF0528F7D108BD21
:101E74000021024A084602F037BB00BF611E000081
:101E8400036803F01F027F2B02604FEA53129ABFCC
:101E9400024B53F822000020704700BFF0140000EA
:101EA40007B5019001A8FFF7EBFF019B00EB83004E
:101EB400D0F88020054B134043F4403343F00C0327
:101EC400C0F8803003B05DF804FB00BFF0F0FCFF05
:101ED40007B5019001A8FFF7D3FF019BC068D84064
:101EE400C04300F0010003B05DF804FB7047704785
:101EF40000234FF0FF32C0F80035C0F86025C0F869
:101F04006425C0F86825C0F86C2540F2FF32C0F89B
:101F14000C35C0F80435C0F80825054AC0F810355A
:101F2400C0F81435C0F80427C0F80837704700BF5C
:101F3400A45A002073B500251F4C0646C4F800556A
:101F440001A80191FFF79CFF019B019100EB830025
:101F5400D0F88020194B06F5AC76134043F0030308
:101F6400C0F8803001A8FFF78BFF0122019B02FA21
:101F740003F34360042344F82610C4F80C35FF230C
:101F8400C4F80455C4F808350223C4F810350C4BC2
:101F9400C4F81455C4F804370823C4F80837C4F83F
:101FA4002855C4F82C55C4F80025C4F81051D4F8A9
:101FB400103102B070BD00BF00200D50F0F0FCFFE6
:101FC4009C5A00200022464B10B5C3F8402401223D
:101FD4001A61A3F53033D3F8102512F002023FD171
:101FE400D3F8101503F5C07321F00201C3F8901360
:101FF40040F6FF71C3F8A8113A491A60A3F580703E
:1020040004338B420260F8D10123374C374A2366EC
:10201400374B5D201B68B3FBF2F35843354B43F059
:1020240001039847D4F8103543F00203C4F810357F
:10203400D4F8483713F0010302BFD4F8482742F01C
:102044000102C4F84827D4F84027D4F844275200A2
:10205400F9D42BB9D4F8483723F00103C4F848372E
:10206400214A234CD2F81035092043F00103C2F869
:102074001035FFF715FF20681C4BB0FBF3F0642309
:1020840058431C4B43F00103984736210020FFF7C7
:1020940051FF37210120FFF74DFFFFF727FF1E21D6
:1020A4000820154A02F0FCF908B102F0AFFA02F078
:1020B4003DF9E0204FF47A72104981F82300236837
:1020C400B3FBF2F3013BB3F1807F08D24FF0E0227F
:1020D4005361002381F8230093610723136110BD2A
:1020E40000E01050B0210E5000200E5040420F006E
:1020F4000C48002000150000A458002000ED00E06A
:102104000148FFF7F5BE00BF00200D5013B54FF096
:10211400E02300241C61FFF7F3FF02F0B5F901226C
:102124000C4B21460C4C5A6101A80191FFF7A8FE03
:10213400019B013100EB8300D0F88030422903EA8F
:10214400040343F00203C0F88030EDD1FFF7CFFE63
:1021540002B010BD00E01050F0F0FCFF0022054B6F
:1021640023F81010044BC3F81021D3F810210122D6
:102174001A6170479C5A002000200D5010B5164B70
:1021840000201C68154B1B68B4FBF3F103FB1141E1
:10219400B1EB530F4FEA530288BF591A4F235943E7
:1021A400B1FBF2F189B2FFF7D9FF0D4B01201B6897
:1021B400B4FBF3F203FB1244B4EB530F4FEA5302A4
:1021C40088BF1C1B8F235C43B4FBF2F1BDE81040B5
:1021D40089B2FFF7C3BF00BFA85A0020985A002055
:1021E400945A0020024A136801331360FFF7C6BFF4
:1021F400A85A0020082811D8DFE800F009050910C2
:10220400100D05111300084B40F6B83205E0064BDB
:102214004FF4967201E06422034B1A607047034B3B
:10222400F2E7024BF4E700BF985A0020945A0020CA
:1022340003689A070CD50368DB070DD50922074B01
:10224400C3F80C250F22C3F8042501221A60FEE707
:10225400034B0360EF3B0360704700BF00801050E6
:10226400F000FA5008B50123344A3548C2F8003862
:10227400A2F55722D2F80024324AD2F84023292A60
:1022840004BF314AC2F80C34FFF7D2FF0830FFF71D
:10229400CFFF0830FFF7CCFF0830FFF7C9FF00F588
:1022A400F470FFF7C5FF294AD2F88C3043F4406339
:1022B400C2F88C300022D30003F57F0303F54043BA
:1022C400D3F8001401310AD0D3F8001439B1D3F88B
:1022D40000140132D3F80434402A0B60EBD11C4BB8
:1022E400D3F80026D20724D41A4BD3F8182522F0A9
:1022F4000302C3F81825D3F81825C3F81825134A80
:10230400D2F88C1041F44061C2F88C10D2F88810D5
:1023140041F47001C2F88810BFF34F8FBFF36F8F81
:102324000022C3F8A0250C4AD2F80034012BFBD0BC
:1023340008BD6FF00102C3F80026D5E70000125073
:1023440000F50E5000C0FF000030055000ED00E025
:1023540000E0105000E004500090045070B5437841
:10236400047841880679C288057A44EA0324194B23
:1023740041EAC67142EA0542C3F80045C3F80C15A8
:10238400C3F81025D3F80424D207FBD5124A1268E7
:10239400F2B10021427AC3F80C11D3F80C01C3F84E
:1023A4000411D3F80401C3F80811D3F80801C3F8E1
:1023B4000011D3F8001152010849D2B281F84E231A
:1023C4004FF48042C1F888218A600F22C3F80423A5
:1023D400002070BD00E00450AC5A002000E100E091
:1023E400044B40EA0120C3F80005D3F80024D207C7
:1023F400FBD5704700E004502DE9F04104460D463A
:102404001646DFF840800120D8F80075D8F800158A
:1024140007F00107C1F30521FFF7E2FF04EB86068D
:102424002B1FA64204D13846BDE8F041FFF7D8BFC0
:1024340053F8042FD8F80404C007FBD544F8042B40
:10244400EFE700BF00E00450C9B2FFF7C9BF0000C6
:1024540010B5064C237933B92160FFF77FFF08B923
:102464000123237110BD6FF07700FBE7AC5A002005
:102474000122014B9A60704700E0045010B5244BD0
:10248400D3F80C212AB10022C3F80C21D3F80C2173
:102494000822D3F804412CB100210224C3F804110A
:1024A400D3F804311A4B1443D3F808212AB100227B
:1024B400C3F80821D3F8082104221443D3F80021D7
:1024C4002AB10022C3F800210122D3F800311443B9
:1024D400200704D50F4B4FF486701B689847A1075B
:1024E40004D50C4B4FF482701B689847620704D5DF
:1024F400084B4FF484701B689847E30706D5BDE882
:102504001040044B4FF480701B68184710BD00BF87
:1025140000E00450AC5A0020064B10461A78012AF9
:1025240003D1012904BF02221A7008B102F06EB867
:10253400704700BFF45A002070B5194D194C1A4E5B
:10254400D5F80034DA070FD5C5F80046C5F80446B7
:10255400C5F80846C5F80C46C5F81046C5F8144633
:10256400C5F81846C5F81C46D6F80034DB070FD565
:10257400C6F80046C6F80446C6F80846C6F80C462F
:10258400C6F81046C6F81446C6F81846C6F81C46DF
:1025940002F00EF8054B1B78023B032BD0D870BD1C
:1025A400008010503546526E00901050F45A0020AE
:1025B40038B5FFF70FFA10B3184C1C21204601F070
:1025C4002FFC042804D1FFF73BFC0528FBD1F4E7DA
:1025D40008B102F01BF8124C104D00231C222146B6
:1025E400284601F00DFC042804D1FFF729FC052836
:1025F400FBD1F2E788B1BDE8384002F007B80948DA
:10260400FFF7A2F9072206490648FFF79FF9064B90
:102614001A78012A04BF02221A7038BDF85A002021
:10262400B45A002000101D00F45A002007B501A878
:1026340000F098F94FF400431A68013202D15B6844
:10264400013319D04FF6FF71019B1A888A4211D0C9
:10265400012A11D1588828B100224FF4004099680A
:1026640001F0EDFF019B5B881B1A5842584103B0EF
:102674005DF804FB0120FAE70020F8E784B02DE9B7
:10268400F34108AC84E80F009DF8204001A80F46F0
:1026940016461D46BDF8228000F064F964B9012293
:1026A400FF21354BA3F802809D601A809980334B3B
:1026B4001A70FFF77DFF48E0013C052C45D8DFE8A0
:1026C40004F00323154C39552B4BBA192A449A604C
:1026D400A5221A80FF22C3E903769A800C9AA3F8F4
:1026E40002805D619A610122244BE1E7019A224B49
:1026F400118819805188926859809A60AA22C3E986
:1027040003769A805D61EEE7019A1B4B1188A52937
:102714000AD100229A60FF221A60FF229A800022C6
:10272400C3E903225A61DEE719805188926859800F
:102734009A60F2E7FFF74EF960B100F0A3FD08B12B
:1027440001F064FF03220D4B1A7002B0BDE8F041A2
:1027540004B0704700F010FAF1E70022064B9A60CB
:10276400FF221A60019A92889A80A2E79DF8343079
:10277400024A04331370E8E7B45A0020F45A0020E4
:1027840000B5094B89B01B785BB905238DF8083077
:1027940008AB13E903008DE8030002AB0FCBFFF78E
:1027A4006DFF09B05DF804FBD05A0020024B187885
:1027B400431F584258417047F45A00201FB5002364
:1027C400CDE90233064B019301F0EAFA28B9054931
:1027D400054B01A84B6001F001FB05B05DF804FB5B
:1027E4001D250000F85A002000101D0070B5054694
:1027F4000E4603F025F8044628B935B100F09EFCD6
:102804000446FFF799FE204670BDBEB10D4B294624
:102814000D4A0E481D704FF4004401F0C9FD4FF4F9
:10282400FA7029464FF47A720023E6FB040103F0A0
:102834009FFA2A460146064801F0CCFD00F078F9DB
:10284400DEE700BFD05A00208527000018150000DD
:10285400D45A002000224FF0FF31930003F160436B
:10286400013203F56143102AC3F88010C3F88011C4
:10287400F3D14FF4004000F0A1B807B501A800F06F
:1028840071F8019B1A88A52A07D09888A0F1AA0399
:102894005842584103B05DF804FB0120FAE70000F8
:1028A40010B503F0D3F9D8B1114B124A1B68124882
:1028B400B3FBF2F35843114B43F00103984703F081
:1028C40081F908B101F0A2FE03F0C0F908B101F0EA
:1028D4009DFE03F0A3F9044630B101F097FE04E035
:1028E40003F0A8F90028DFD10024204610BD00BF62
:1028F4000C48002040420F00A08601001015000083
:1029040000B589B002AB18220021184603F0E1FBA0
:10291400022203468DF8082008AA12E903008DE874
:1029240003000FCBFFF7AAFEFFF706FE002009B055
:102934005DF804FB13B5044601A800F013F8019BED
:102944001A8822805A8862809A68A2609A88A28033
:10295400DA68E2601A6922615A6962619B69A3615B
:1029640002B010BD014B0360704700BF00101D0092
:102974000346F0B5002585F3148885F3108885F3A4
:10298400118885F31388186880F308885868FF2431
:1029940064B2EFF30585002D01D1A6460047254614
:1029A400064621273FBAF0B400240025002600275C
:1029B400F0B4F92040B20047F0BD00BF034A906074
:1029C400BFF34F8FBFF36F8FFFF7D2BF00ED00E06F
:1029D4000023F7B50DF1020101A8ADF8023001930F
:1029E40002F07EFA0346019C204613B15CBB03B09F
:1029F400F0BD26783EB3174A92F83010032922D04E
:102A04004FF00C0C0CFB03F551595719C1B992F84E
:102A1400303056510133DBB282F83030BDF8023029
:102A240008469B08013B0C4A04347B60BC6001F0FF
:102A34005BFD034601980028D9D0002BD7D002E0D3
:102A44000133042BDED102F067FA0028CFD001F065
:102A5400DDFDCCE7005B0020A52A0000084609B193
:102A640001F0D4BD704700000C2310B543430B4A5A
:102A7400D158D418A06879B192F8301004380139CB
:102A8400C9B282F830100021C4E90111D15002F01A
:102A940043FA08B101F0BAFD002010BD005B00202C
:102AA4000122214B70B5214E1A7096F8303003B9CB
:102AB40070BD00251D4C236883B1013B042B07D84E
:102AC400DFE803F01C0612032800204602F054FF3E
:102AD400E8B2FFF7C9FF08B101F098FD0135042DF4
:102AE40004F10C04E7D1E0E7A3682046636002F038
:102AF400EDFE0028ECD001F089FDE9E7204602F064
:102B0400C7FF02F0A3FF08B101F080FD0520FFF725
:102B140071FBDDE702F0EEFF03F010F8BDE8704052
:102B24000620FFF767BB00BFD05A0020005B0020DF
:102B34000022114608B50D4B83F830200132042AD7
:102B4400C3E90111196003F10C03F7D1084802F03D
:102B5400B7FE02F05DF908B101F058FD054802F036
:102B640043F908B101F052FD002008BD005B0020CC
:102B7400612A0000D529000008B50020FFF774FF82
:102B84000120FFF771FF0220FFF76EFF0320FFF71C
:102B94006BFFBDE8084002F083B9006870476CDF42
:102BA40070476DDF70476FDF704770DF704773DF0A
:102BB400704774DF704775DF704776DF704777DFE3
:102BC400704778DF70477BDF70477DDF704780DFB9
:102BD400704787DF70478DDF70478EDF7047B4DF43
:102BE4007047B5DF7047B6DF7047B7DF7047BADFAD
:102BF400704765DF704767DF70470C280AD8DFE845
:102C040000F00709090909090B091409090F0D0046
:102C14000120704706207047032070470420704746
:102C2400042914BF0620052070470220704701F0D4
:102C3400EDBC10B5044608460321FFF7DEFF02464B
:102C4400204600F021FE18B1BDE8104001F0DEBCC2
:102C540010BD00000346032B10B50846144620D0CF
:102C6400042B23D169B1124B18884FF6FF73984295
:102C74001CD01321FFF7A3FFC0B1BDE8104001F041
:102C8400C5BC104601F036FD08B101F0BFFC094B8C
:102C94001B689C420AD101220321074800F0F4FD7D
:102CA400EAE70121FFF7A9FF0246F6E710BD00BFDE
:102CB400184800206C5B0020C45B0020F8B50A4D66
:102CC4001446AB889E181D2E0DDC2F6802F1010CF2
:102CD400FE1807F803C07070B01C03F0D5F9AB8878
:102CE40002331C44AC80F8BD545B0020F0B54D4E5B
:102CF40093B03478002C40F091804B4D1022214643
:102D0400284603F0E6F9494B182221460CA82B600B
:102D140003F0DFF901238DF8303028230E93444B60
:102D24001B78002B7CD0434B02AC03F110052246E8
:102D340018685968083303C2AB421446F7D110220D
:102D44003D4802A903F0B5F9002869D03B483C4C42
:102D540001210460FFF727FF08B101F057FC06AA20
:102D64001746354B03F1100C15461868596808339B
:102D740003C563452A46F7D12068A288A3790A903F
:102D84003048ADF82C20002101228DF82E30076048
:102D9400FFF70BFF08B101F039FC03238DF8443031
:102DA40004238DF8063041F23053ADF80830264B39
:102DB40006AA9B790DF1070102A88DF80A30FFF7E6
:102DC40018FF01220DF106011046FFF777FF1F4897
:102DD40003F067F91D49C2B20920FFF76FFF102203
:102DE400062006A9FFF76AFF0F4919480CAAFFF746
:102DF400DEFE08B101F00AFC154C04220120217802
:102E0400FFF7DFFE08B101F001FC01212078FFF794
:102E1400D0FE08B101F0FAFB0123337013B0F0BD0A
:102E24000623BEE7AE5B0020545B0020345B002029
:102E3400705B00204C150000795B0020685B00206B
:102E4400725B0020645B0020C45B00201C15000042
:102E540010480020F0B504460146AFB0AD4800F07C
:102E64004FFD2388262B3BD80F2B04D8012B00F0D1
:102E7400D9802FB0F0BD103B162BFAD801A252F81E
:102E840023F000BF112F00003D2F0000772E00001B
:102E94006F2F000065300000772E0000772E0000B1
:102EA400772E0000772E0000772E00007B30000084
:102EB400772E0000772E0000772E0000772E00007A
:102EC400772E0000772E0000ED300000772E0000F2
:102ED400DF300000772E0000772E0000E52F000081
:102EE400513B9AB2052AC4D8052BC2D801A252F884
:102EF40023F000BF353000007B300000772E000047
:102F0400772E0000FF300000CB2F00000022824B00
:102F1400A0880EA91880814B1A7023690E9304238C
:102F2400ADF83C30E38AADF83E30FFF746FE0028AA
:102F34009FD001F06BFB9CE780233222764CADF8E6
:102F44002030774B20881A600EA9012308AAFFF7C6
:102F54004CFE08B101F05AFB724B1B780BB9FFF71A
:102F6400C5FE4FF6FF73238083E702AC26466E4B03
:102F74009A79186899888DF81E200690DA1DADF8A4
:102F84001C101733254610685168083203C59A424D
:102F94002C46F7D10EAA1546644B03F118071446C4
:102FA40018685968083303C4BB422246F7D118682D
:102FB4000521206058485E4A08AB0088CDE90B56CD
:102FC400FFF705FEB3E7A379002B7FF452AF524B12
:102FD40013211888FFF7F3FD00283FF44AAF77E088
:102FE400237A012B7FF445AF00224C4B1A704C4BD3
:102FF40019680139196081B90EAB1822184603F01B
:1030040068F805220346DDE912018DE803008DF816
:1030140038200FCBFFF732FB2BE72FB0BDE8F04091
:10302400FFF764BE3C4B00211888FFF7E4FDD3E7AB
:10303400A379002B3FF41DAFA27B043A022A3FF68A
:1030440018AF022B18BF01238DF838304FF4C17329
:10305400ADF83C30304B0EA91888FFF7C2FD66E787
:103064003149228A4B8D18319A4218BF0021A08819
:10307400FFF7AFFDB0E74FF6FF75274C2088A84255
:1030840025D02C4B1B78EBB1012308222A49FFF7EA
:10309400AAFDE8B90246014602232088FFF7A3FDF2
:1030A400B0B92A460C212088FFF799FDA0F54053BA
:1030B400023B012B7FF6DDAE08283FF4DAAE11287F
:1030C4008AD1D6E61A461946FFF78DFD84E7082013
:1030D4002FB0BDE8F04001F099BA00220E4B114622
:1030E4001888FFF77AFD77E70023ADF838300A4BEC
:1030F4000EA91888FFF76FFDBBE6E188064BF72998
:1031040028BFF72121F00301188841F00301FFF7DC
:103114006EFD61E7C45B002018480020AE5B002010
:1031240014480020B05B0020725B00208A5B002002
:10313400F45B0020705B0020A65B0020002330B508
:10314400414A42481370424A95B0137002F0B8FBEA
:1031540001F090FA0446002860D13E48FEF756FA82
:1031640000285ED101223C4B1A7011233B488DF894
:10317400043002F096FF394982B201A8FFF725FD19
:1031840008B101F043FA0822002104A802F0A1FFCB
:10319400334A344B04A8CDE90423FFF714FD08B1E6
:1031A40001F034FA00210C2201A802F092FF082356
:1031B400ADF804302C4B2D4802932D4B01A90393F9
:1031C40000F0C8F908B101F021FA2A4D402200218B
:1031D40004A802F07EFF284602F063FF0595264D01
:1031E400ADF81000284602F05CFF0795234DADF8BA
:1031F4001800284602F055FF1123ADF8300004A84A
:10320400ADF84C300D9500F08FFC30221C4B1A7039
:1032140007225A7010229A70FFF768FD204615B0F5
:1032240030BD04A8FFF7BDFC08B101F0EFF99DF82B
:10323400113004A801338DF81130FFF7B0FC0028D9
:1032440093D001F0E3F990E7B05B0020592C000023
:10325400C15B0020725B0020705B00201C15000025
:103264000C00180004002003D9320000C45B0020C5
:10327400332C000023150000291500003915000027
:10328400F45B0020012210B50E4B1A700E4B188807
:103294004FF6FF73984207D01321FFF790FC08B153
:1032A40001F0B4F9002010BD084C2378002BF9D0AC
:1032B400074B1878FFF77FFC08B101F0A7F900234A
:1032C4002370EFE7B05B002018480020AE5B0020BD
:1032D40010480020F0B50B7805460C4689B0092B40
:1032E40035D8DFE813F02D00360041000A0019003C
:1032F4002600080111014400160102F0FBFB042121
:10330400FFF77BFC0246284600F0BEFAF8B109B08C
:10331400BDE8F04001F07AB9FFF7B4FF08B101F05D
:1033240075F902F00BFC90B109B0BDE8F04002F071
:103334001DBCFFF7A7FF0028F6D001F067F9F3E7FB
:103344000122764B1A704B681A78754B1A7009B0C3
:10335400F0BD0226714B1E704B681B78012BF6D111
:1033640002F074FB3146CBE703226C4BEEE70520F9
:10337400FEF740FF694B1E78022E38D0032E5AD038
:10338400012EE4D104AB10221846002102F0A1FE64
:10339400634A237A12780C2B8DF810204FF0000228
:1033A40003924FF00302CDE9012008D031462846AC
:1033B40000F06AFA0028CAD001F028F9C7E7636868
:1033C4001846FFF7EAFB0590181DFFF7E6FB069089
:1033D40003F10800FFF7E1FB079001A802F076FA79
:1033E4000028B4D03146FFF708FC0246DFE7237A11
:1033F40013F0030011D019464FF0000CC0F1040281
:103404001A44D2B20E4601316768C9B2914207F834
:1034140006C0F7D11B1A0433237201230493636893
:1034240004A80693237A9B08059302F031FB002835
:103434008DD00221D7E7207A830702D03246314665
:1034440061E7384E0190314601F02AF9014618B17E
:103454002846FFF7EEFB7AE76168019A306802F0CC
:1034640013FE019801F082F901460028F0D101A968
:10347400304601F08BF901460028E9D10423049376
:10348400019B04A89B0805933368069302F074FA21
:10349400074640B9244A237A11680B441360326802
:1034A400224B1A6053E709281BD11F4B217A1A6853
:1034B400114419601E4B1B78002B3FF448AF1D4C80
:1034C4002388013B9BB22380002B7FF440AF284626
:1034D40000F092F908B101F099F8174B1B8823808A
:1034E40035E7306801F006F9014610B12846FFF7C8
:1034F400A0FB3946ACE701220D4B1A700E4A8B88AB
:1035040013800C4A138022E70023094A13700A4AE5
:10351400F8E7054B196800F025F9F7E6C15B0020D0
:10352400C05B0020B45B0020BC5B00206C5B00200F
:10353400AF5B0020B85B0020BA5B0020ADDF7047B2
:10354400AFDF7047B2DF7047B3DF7047B5DF704756
:1035540062DF70472DE9F0430E46054695B000281A
:1035640000F0F980002900F0F6804B68002B00F091
:10357400F2804FF6FF7304AA17460380774B03F1DA
:10358400100C144618685968083303C4634522466E
:10359400F7D141F2305338460DF10A010293FFF797
:1035A400D7FF0446002840F0D28001202A1D02A93A
:1035B400FFF7C4FF0446002840F0C9809DF80A3094
:1035C40001461C22AB710DA802F083FD9DF8343036
:1035D4004FF4885923F00C0343F00C038DF8343076
:1035E400AB7901AF8DF80E3041F2325321460322FC
:1035F4003846CDE91044CDE912440E94ADF80C30B0
:1036040002F067FD9DF80630214623F01F0343F0C6
:103614000303142208A88DF80630ADF8049002F0D4
:1036240058FDF423A888ADF82C300DF10C0805F1F1
:10363400080308AA0DA90A940C94CDE90887FFF79A
:103644007FFF0446002840F0828001461C220DA81A
:1036540002F03FFD9DF83430214623F0180343F077
:1036640018038DF83430AB7903228DF80E3041F213
:1036740031533846CDE91044CDE912440E94ADF8E7
:103684000C3002F026FD9DF80630214623F01F037E
:1036940043F01303142208A88DF80630ADF8049003
:1036A40002F017FD1723A888ADF82C3008AA05F1FD
:1036B40010030DA90A940C94CDE90887FFF740FF85
:1036C4000446002843D101461C220DA802F001FD46
:1036D4009DF83430214643F002038DF83430AB7941
:1036E40003228DF80E3041F234533846CDE91044AC
:1036F400CDE912440E94ADF80C3002F0EAFC11232B
:10370400ADF804309DF80630214623F01F0343F042
:103714000303142208A88DF8063002F0DAFC022311
:10372400A8880A93ADF82C3008AA05F120030DA946
:10373400CDE908870C96FFF703FF044638B9736890
:10374400AB62B36803B1EB620122054B1A702046E9
:1037540015B0BDE8F0830E24F9E700BF5C15000046
:10376400005C00202DE9F04F0E46054687B0002886
:1037740039D04FF6FF7302889A4236D01C4B1B781F
:103784009BB34FF0100A1B4CC1F30729C1F3074840
:103794000F0E07234FF0010B1022002102A86370C3
:1037A400ADF8063084F800A084F802B0E67084F81E
:1037B400049084F80580A77102F08BFC2B8A28887A
:1037C400ADF80830002302A9ADF80C300DF1060362
:1037D400CDE904348DF80AB0FFF7B6FE1328D8D02B
:1037E40007B0BDE8F08F0E20FAE70820F8E700BF25
:1037F400005C0020F95B00202DE9F04F0E460446E2
:1038040087B0002837D04FF6FF7302889A4234D02D
:103814001B4B1B788BB34FF0110B0027194DC1F3D1
:10382400072AC1F307494FEA116805231022002132
:1038340002A8ADF8063085F800B06E7085F802A0D5
:1038440085F8039085F8048002F043FC238A2088DD
:10385400ADF80830012302A98DF80A300DF10603F2
:10386400CDE90435ADF80C70FFF76EFE1328DCD0FB
:1038740007B0BDE8F08F0E20FAE70820F8E700BF94
:10388400005C0020F95B00202DE9F0410F4616464C
:10389400044686B060B34FF6FF7302889A4229D07B
:1038A400154B1B7833B34FF01008144D032310222B
:1038B400002102A8ADF8063085F800806F70AE7064
:1038C40002F007FC238A2088ADF8083001238DF824
:1038D4000A30002302A9ADF80C300DF10603CDE93E
:1038E4000435FFF731FE1328E0D006B0BDE8F081BF
:1038F4000E20FAE70820F8E7005C0020F95B0020BE
:1039040070B50D46044688B050B149B1826A3AB1E7
:103914000B88502B49D005D8102B43D0112B53D0F2
:1039240008B070BD512BFBD18E79022EF8D10A89D3
:10393400038A9A42F4D18B7B043B022BF0D99DF885
:103944001630082243F001038DF816300B8A01A8C3
:10395400ADF818304B8A8DF81060ADF81A3001F1CB
:1039640014030021079302F0B4FBA18A208801AA62
:103974000196CDF808D0FFF7E5FD40B3E36A03B143
:10398400984740F2FD13208804A9ADF81430FFF7DE
:10399400DDFD0028C4D0E36A002BC1D008B0BDE827
:1039A400704018478B882380BAE7C98803899942F5
:1039B400B6D108238DF810302B8A12358DF81830C3
:1039C400059504A99047ABE74FF6FF73EBE7BDF805
:1039D40000302088DB07D4D5002604A9ADF8146094
:1039E400FFF7B4FD0028D6D1297D4B1E072B3ED806
:1039F400DFE803F004192226282A3B2C6B8A8DF871
:103A04000460012B05D8062201212046FFF73CFF64
:103A1400BFE7012315358DF80C3002952046A36AC3
:103A240001A998477CE701236A8A8DF804309A42F9
:103A3400F0D806220221E8E702238DF80430EDE7EE
:103A44000323FAE70423F8E70523F6E76B8A022B3E
:103A540002D803220821D8E7B5F81530002BADF8B9
:103A6400083014BF06230723E7E70923E5E7032209
:103A7400CBE7ADDF7047AFDF704700002DE9F041C1
:103A8400804615461F460E468EB011B9084600F012
:103A9400BDFD15B9284600F0B9FD1C2200210DEB2F
:103AA400020002F016FB9DF81C30002443F00203D0
:103AB4008DF81C3001232146032268468DF8063018
:103AC400CDE90A44CDE90C440894ADF8048002F031
:103AD40000FB3B7821468DF800307B7814228DF86A
:103AE40001309DF8023002A823F01F0343F00203C3
:103AF4008DF8023002F0EDFA0A4801AB029302AAF3
:103B0400149B07A90088CDF80CD0ADF81050ADF87F
:103B14001240ADF814500696FFF7ADFF0EB0BDE8A5
:103B2400F08100BF225C002030B541F60A03044650
:103B3400012087B02C4A03A98DF80E00ADF80C3093
:103B4400FFF797FF0546D8B92288E2B922894AB11E
:103B5400264B42F624200093E16804F13C03FFF76E
:103B64008DFFD8B9228C4AB1214B42F6262000930E
:103B7400616A04F13C03FFF781FF78B9A36B7BB959
:103B8400284607B030BD1B4B42F6292000936168DC
:103B940004F13C03FFF772FF0028D7D00546EFE796
:103BA4001A7842F650208DF810205A8804A98DF80E
:103BB4001120120A8DF812209A88DB888DF81320C0
:103BC4008DF815301B0A8DF816300B4B120A8DF840
:103BD40014200093072204F13C03FFF74FFF002851
:103BE40018BF0546CCE700BF225C0020125C002011
:103BF4000A5C00201A5C0020025C002029DF704768
:103C04001822064B02FB0030002304220371C0E992
:103C1400042383608361C360704700BF3C5C002061
:103C240013B5024608464368C9680093044B53F829
:103C34002140436910F80C1BA04702B010BD00BF1F
:103C44002C5C0020182238B5174C237802FB034360
:103C54000122A2701A795869012A05D0032A1BD0BF
:103C64000F200023A37016E0104A996915689A681A
:103C7400DB68A2EB0532B2F5805F184428BF4FF42D
:103C8400806201EB053100EB053038BF9208FFF785
:103C9400B5FF0028E5D138BD044B1B6803EB103099
:103CA400FDF738FEF5E700BF3C5C0020245C0020F3
:103CB40070B5134D6C78122C1FD02E78344418260E
:103CC400E4B2112C84BF123CE4B206FB0454A2619A
:103CD400207103C9A360049B04F11002E360AB7874
:103CE40082E8030023B100206B7801336B7070BD50
:103CF400FFF7A8FF1128F7D1F5E70420F7E700BF85
:103D04003C5C002038B5831E012B44D8224CA37898
:103D1400002B40D0002303282578A37035D0182227
:103D240002FB05421D4992680B680133B2EB033F65
:103D34000B6018D80020086018216B1C01FB05419A
:103D4400DBB26278112B88BFA5F1110302F1FF32B7
:103D5400D2B288BFDBB2043162702370FFF760FF18
:103D64002846FFF74DFF6378ABB1A3789BB9FFF703
:103D740069FF80B111280ED01823217803FB01417B
:103D84000431BDE83840FFF74BBF182303FB05415E
:103D94000D200431F5E738BD3C5C0020245C002094
:103DA400002108B5094B1960094B19809970084620
:103DB4000131FFF725FF1229F9D10020054B1860C6
:103DC400054BC3E90000C3E9020008BD245C0020E0
:103DD4003C5C0020285C00202C5C0020064A034642
:103DE4001068042807D00860411C11601A68034B4E
:103DF40043F8202000207047285C00202C5C002021
:103E040013B5CC180C43A40708D1009313460A46F3
:103E140001460120FFF74CFF02B010BD1020FBE764
:103E240007B500220B46009201460320FFF740FF2E
:103E340003B05DF804FB00000122034B5A64D3F87D
:103E4400440520F07F40704700B00C50094B5A786D
:103E540099780132D2B2914208BF00221978914276
:103E64001FBF182102705A7801FB023014BF0430BE
:103E740000207047045E0020082910B5044602D0D3
:103E8400002000F0C3FBD4E90030BDE8104018471F
:103E940073B5002405460DF107000E468DF8074062
:103EA40000F0C2FB0DF10600FFF7D0FF30B99DF81A
:103EB400070000F0C1FB042002B070BD9DF806208D
:103EC400074B067045609DF807005A7000F0B4FB7C
:103ED4004FF00042034B2046C3F80021ECE700BF3B
:103EE400045E002000E100E0204B21491A682F23E2
:103EF40000BF00BF00BF00BF00BF00BF00BF00BFC6
:103F04008A422FD000BF00BF00BF00BF00BF00BF68
:103F140000BF00BF00BF00BF00BF00BF00BF00BFA5
:103F240000BF00BF00BF00BF00BF00BF00BF00BF95
:103F340000BF00BF00BF00BF00BF00BF00BF00BF85
:103F440000BF00BF00BF00BF00BF00BF00BF00BF75
:103F540000BF00BF00BF00BF00BF00BF00BF00BF65
:103F640000BF00BF013BC3D1704700BF0C48002015
:103F74000024F4004FF400620C4B10B5C3F89820F1
:103F8400BFF34F8FBFF36F8F4FF480330124084882
:103F9400C0F808334460FFF7A7FFC4600020054B56
:103FA4001860FFF7A1FF044B187010BD00E100E09A
:103FB40000B00C50FC5D0020F15D00202DE9F341C0
:103FC4000025274BC3F84051D3F84021C3F844518E
:103FD400D3F84421C3F84851D3F84821C3F84C51CD
:103FE400D3F84C311F4B1968002934D0FFF724FF54
:103FF4002F461D4BDFF884801C68041B24F07F448B
:104004000B68A34212D8E41A1D440B7CCE6963B139
:104014004B690F7400938B694246082168460193EB
:1040240000F062FA08B100F0F1FABEB90F4A104B81
:1040340011781B788B4205D10133DBB2022B08BF08
:104044000023137012780B4B43F822504FF00042B8
:10405400094BC3F8002102B0BDE8F0813146CFE737
:1040640000B00C50005E0020FC5D0020F25D0020DA
:10407400F35D0020F45D002000E100E07D3E0000DF
:104084002DE9F74F9E499F4A0B7812789E4C9A422D
:104094003CD00133DBB2022B08BF00239B4A0B70D8
:1040A4009B49176851F823003B1823F07F431360A2
:1040B4000022164615469446236813B942B123607C
:1040C40006E0196881420FD902B12360091A196008
:1040D4004FF001094FF0000A2368DFF84C82009387
:1040E400BEB94FF0180B5EE0401A0D44D968D3F8FE
:1040F4001CE0C3F800C031B1DE611E467A1922F01B
:104104007F42C3E9012173460122D6E70026B14666
:10411400E0E73046F6697D4B476819687D4A7D1AA9
:1041240025F07F459542836800F2A5802B44012544
:10413400002105742568C0E901110360C161002DE7
:1041440040F0A1802060CBE798F802004B1CDBB262
:10415400984208BF00230BFB018188F800300B79DB
:104164008868022B256877D0032B00F08180012B0F
:1041740019D1057CBDB9CF6847600B6983604B6971
:10418400C3608B698361644B1B78002B18BF2F4677
:104194004760C0E7B84200F092803946FF69002FBB
:1041A400F8D10023037498F8001098F801308B427A
:1041B400CAD12368BAF1000F05D1009A9A4202D1FC
:1041C400B9F1000F42D0002B76D01F68FFF734FE00
:1041D4004E4B524E1C6805463378001B20F07F403E
:1041E400033093B94FF480324FF400614C4BC3F861
:1041F40004234C4AC2F8981191614FF00108C3F8A6
:104204000080FFF771FE86F8008087422CBFE11919
:104214002118434C21F07F41C4F84015FFF70CFEF0
:10422400431B23F07F43491B033321F07F418B421F
:104234000CD9FFF701FE20F07F40C4F84005FFF7DA
:1042440053FE4FF40062374BC3F818210022324B5F
:104254001A7003B0BDE8F08F2F4629469FE701236B
:104264002974ED69002DFAD1002B9CD025609AE7C2
:1042740000231946F6E7C91B21F07F418B4294BF06
:1042840000235B1A53E72968994213D3C91A29609A
:10429400C56157E7DB1BCF690D463FB139460F684F
:1042A400BB42F7D8FF1A0F600F4629460360C76167
:1042B400C86115E72946F2E7FFF75CFEC6E78842C6
:1042C40011D1EB69236073B90122DFF854E0019145
:1042D400CEF80C20DFF834E0CEF800300E4B1A7024
:1042E400FFF702FE01993B68FF69CF6117B13A6895
:1042F40013443B602368AB4218BF4FF0010A50E7F8
:10430400F35D0020F25D0020005E0020FC5D0020D3
:10431400F45D0020FEFF7F00F05D0020F15D0020D1
:1043240000B00C5000E100E0045E002010B5FFF77F
:1043340021FE00210B22174BE02419809A70164BA2
:1043440016481960164B1970164B19704FF000433C
:10435400C0F8803180F81F4303600122124B5A6079
:10436400DA60D3F8082522F0030242F00202C3F80F
:1043740008250C22C3F81025D3F8042522F00302E3
:10438400C3F8042580F8CB43FFF756FD074B1860AC
:10439400084610BD045E0020005E002000E100E03D
:1043A400F35D0020F25D002000B00C50FC5D0020A5
:1043B400074B9B784BB132B128B10368187C20B904
:1043C40059745A617047072070470820704700BF2E
:1043D400045E00202DE9F347DFF88890064699F83B
:1043E40002300F469046C3B3B8B3042933D94369A6
:1043F4009BB30024437C0DF10700012B0CBF8A46BC
:10440400A2468DF8074000F00FF90DF10600FFF702
:104414001DFD054638B99DF8070000F00DF904208C
:1044240002B0BDE8F087012346600370FFF704FD86
:104434009DF80630C5E90207C5E904A89DF8070000
:1044440089F8013000F0F8F84FF00042044B2046A0
:10445400C3F80021E4E70720E2E70820E0E700BF13
:1044640000E100E0045E0020064A92783AB130B1DF
:10447400426922B1002202210274FFF709BD08201B
:10448400704700BF045E0020044B9B781BB10321DE
:104494000020FFF7FDBC0820704700BF045E002029
:1044A4004B1C30B5DB00044612F003009BB20DD167
:1044B400074D2A601A44074B1A60074B1870074BC4
:1044C4001870074B1C80074B198030BD0720FCE790
:1044D4001C5F0020185F0020145F0020155F00207F
:1044E400125F0020105F00202DE9F347DFF8B4804D
:1044F4000646B8F800300C468B42174649D30025CF
:104504000DF107008DF8075000F08EF8224B234A76
:10451400DFF894C01B78BCF800C01078DBB26045AB
:10452400C1B23CBF0131CDB2AB429DF8070005D109
:1045340000F082F8042002B0BDE8F0871578117805
:10454400DFF868908C45CBB292BF00230133DBB215
:10455400137000F071F8D9F80030EDB24FEAC50AD3
:1045640003EBC50243F8357086B17CB10C4BB8F847
:1045740000001B68224605FB0030314601F084FD33
:10458400D9F8003053449C800020D4E70023938062
:10459400FAE70920CFE700BF155F0020145F002071
:1045A400185F0020125F0020105F00201C5F0020B5
:1045B40070B5104C104D22782B789A4200D170BD02
:1045C4000E480F4A06880F4823781268006802EBE9
:1045D400C30103FB060052F83320898890470A4937
:1045E40022780988D3B2914292BF00230133DBB20F
:1045F4002370E0E7155F0020145F0020125F0020A5
:104604001C5F0020185F0020105F00201FB50021F0
:1046140001AACDE9021044F20100ADF80410FDF73F
:10462400CEF905B05DF804FBEFF3108372B6003BDE
:1046340018BF01230370704700B962B67047034680
:104644002AB110881A4619448A4203D170474FF69A
:10465400FF70F7E743BA12F8010B9BB25840C0F35E
:104664000313434083EA0333580100F4FF509BB221
:104674005840E9E70020064B064A1870064B1A60BA
:104684001022C3E90300C3E90120C3E90500704710
:10469400FC8400203C5F0020205F00200020704745
:1046A40030B50446E9B10020114B08605A68D2B114
:1046B400B4F5167F19D84FF41775013A5A60DA68C1
:1046C4001C680132DA601A6905FB02440C6001249B
:1046D400996994400132214302F00F0299611A61F1
:1046E40030BD0E20FCE70420FAE70C20F8E700BFF9
:1046F400205F0020F0B51C498A6892B34D694FF4DD
:104704001777AC1A04F00F0423460E6807FB036CFA
:10471400604510D1012588699D406840886100206A
:104724004FF0010E4E6873440025D1F818C01644AA
:1047340003F00F030AE0013303F00F039D42E5D1B8
:104744001020EDE74AB11C460125013A0EFA04F4A3
:1047540014EA0C0FA6EB0207F4D00DB1C1E9017203
:10476400F0BD0420FCE700BF205F00204FF4177168
:10477400054A13691268013B03F00F0301FB03238D
:10478400C3F8580200207047205F002030B5C0B144
:10479400B9B10E4BDA68B2B14FF41775013ADA6069
:1047A4009A681C6801329A605A6905FB02440460E5
:1047B400D4F8580201320860002002F00F025A6156
:1047C40030BD0E20FCE70420FAE700BF205F002084
:1047D4003FB40C49086890B10B4B1C687CB10023B2
:1047E4000A4A8DF8043015680B60CDE90250136055
:1047F40004AB13E90700234604B030BC184704B0E7
:1048040030BC7047008500201885002008850020F2
:10481400DC2810B509D0DD2810D0C02816D1FFF748
:10482400D7FF0E4B0E4A1A6010BD0E4A0E4B196884
:104834001368581C1060C022CA54F2E7094A0A4B94
:1048440019681368581C1060DB22F5E7064B054A0B
:10485400196813685C1C1460C854E2E720480020FF
:10486400A14800000085002008850020C02802BF60
:10487400014B024A1A60704720480020A1480000FA
:1048840008B5DB2000F0CCFB10B9024B024A1A60D9
:1048940008BD00BF1C480020C1490000C02810B456
:1048A40009D0DB280BD0094B094A196813685C1C32
:1048B4001460C85406E05DF8044BFFF789BF054B4C
:1048C400054A1A605DF8044B704700BF0885002054
:1048D40000850020204800201548000010B5064A35
:1048E400064C12682368D05C00F09AFB10B9236868
:1048F4000133236010BD00BF148500200C85002007
:1049040008B5C02000F08CFB28B9034B1B6813B911
:10491400024B034A1A6008BD0C8500201C48002085
:10492400E14800007FB51C4C1C4E1D4D22683368C5
:104934009A4219D31B4B2B60FFF7E2FF002829D1C1
:104944000122194B1A70194B1B681BB38DF80420F4
:10495400174A126802922268039204AA12E9070015
:1049640004B0BDE870401847114B22681B689A5C7C
:10497400C02A03D022689B5CDB2B05D10D4B2A682F
:104984009A4204BF0C4B2B602B689847042801D033
:104994001128CBD104B070BD0C85002010850020F7
:1049A4001C480020054900001C85002018850020B3
:1049B40014850020E14800008548000010B50C4A29
:1049C4000C4C12682368D35CC02B03D0DB2B0DD0B6
:1049D400042010BDDC2000F023FB0028F9D123685B
:1049E400054A01332360054B1A60F2E7DD20F2E744
:1049F400148500200C850020E14800001C4800209C
:104A04001FB503780446032B05D1164B1B78022BE4
:104A140025D1FFF787FF2378042B20D1124B1A6886
:104A240062B1124B1968124B1B68994206D2114BA2
:104A340020791B6804B0BDE8104018470E4B1B6872
:104A44006BB102210292094A8DF804101268039294
:104A540004AA12E9070004B0BDE81040184704B0E6
:104A640010BD00BF1C8500200885002000850020A3
:104A7400048500202048002018850020014B186080
:104A84000020704718850020F0B50C4E87B03778A9
:104A940097B96C460A4D0FCD0FC495E80300072360
:104AA40084E80300074A3946684600F06BFA08B9FF
:104AB4000123337007B0F0BD0020FBE71C85002004
:104AC4006C150000054A00000022024B1A7000F029
:104AD400BBBA00BF1C85002010B5C0B10D4B1A78BD
:104AE400012A04D0022A0CBF0420082010BD00248F
:104AF400094A1460094A1160094A106002221A70B6
:104B0400084B094A1A60FFF70DFF2046EEE7102014
:104B1400ECE700BF1C8500200C85002010850020D8
:104B2400148500201C48002005490000054B064A56
:104B340018600020054B1960054B1860054B1A607E
:104B4400704700BF088500207148000004850020DC
:104B540000850020204800200022064B06481B68E0
:104B64000421DB00DBB203705B4242708270C370CD
:104B7400FFF7B2BF5C8500201D85002010B52B4CCB
:104B84002378012B04D0022B1ED003B958B310BDD7
:104B94000128FCD1264B1968264B06311868FFF70B
:104BA4009BFF08B1FFF732FD022323700022224B42
:104BB40041F6E12121481A60FFF70CFC0028E6D0F9
:104BC400BDE81040FFF722BD02281BD0032802D005
:104BD4000028DCD1EAE71A4A1368013303F007031B
:104BE4001360002323701548FFF73EFC08B1FFF75C
:104BF4000DFD144B1B68002BC9D0BDE81040124AB0
:104C0400107818470C4A1368052B0AD00133136037
:104C1400074BBDE810401968064B06311868FFF7CA
:104C24005BBF0122084B1A70DBE700BF6C850020D4
:104C34005085002054850020288500202C850020E4
:104C4400588500206885002026850020F0B585B0B1
:104C540004AB03E907009DF804000D46164603283B
:104C640076D8DFE800F00802A8AB012005B0BDE863
:104C7400F040FFF783BF032A524C40F283804B7805
:104C840013F00F0269D00E2A7CD1042E59D00A7871
:104C9400500656D5110654D51A44AB781A44EB780D
:104CA4001A4412F0FF024CD1B71E39462846FFF7CA
:104CB400C6FCEB5B834244D143492A780B6802F07B
:104CC4000702D8B282422FD1013303F007030B60ED
:104CD400FFF742FF01223D4B30461A70FFF746FDB5
:104CE40008B1FFF793FC4FF416703649FFF7D8FC70
:104CF400B0B1042810D105213548FFF717FF08B1DA
:104D0400FFF784FC334B1B68002B59D04FF0000095
:104D140005B0BDE8F04018470020FFF777FCEAE74C
:104D24004FF416712068E8E74FF416712068FFF716
:104D3400FDFE08B1FFF76AFC05B0BDE8F040FFF7DF
:104D44000BBF4FF416712068FFF7F0FE002837D030
:104D540005B0BDE8F040FFF759BC0A7889781344E0
:104D64000B44E9780B44DBB263B91B4B1B6801337A
:104D740083EAD20313F0070304D1184A0320137003
:104D8400FFF7FCFE25681DB14FF416712846DBE7DA
:104D94004FF416700B49FFF783FC18B94FF41671E2
:104DA4002068D1E7042802D105210948CCE7284628
:104DB400FFF72CFCF8E705210548C5E70320C7E702
:104DC40005B0F0BD608500205C8500204C85002086
:104DD4002185002064850020588500202685002038
:104DE4000220FFF7CBBE0000074B10B50446186045
:104DF4000648FFF743FE08B1FFF708FC002C0CBF80
:104E04000E20002010BD00BF64850020514C00001E
:104E140000230121174A10B51360174A174813607D
:104E2400174A1360174A1370174A1370174B184A1E
:104E34001960184B1960184B1970FFF7B9FA08B1CB
:104E4400032010BDFFF716FC0028FAD1FFF71CFE63
:104E54000028F6D1114C4FF416702146FFF720FCC0
:104E64000028EDD120684FF41671BDE81040FFF71B
:104E74005DBE00BF548500205085002084150000CD
:104E8400288500204C8500206C8500205C8500204E
:104E9400E54D00005885002026850020608500200F
:104EA40008B500230B4A13600B4A1360FFF7F6FBA7
:104EB40008B1FFF7ABFBFFF707FE08B1FFF7A6FB4E
:104EC4000648FFF7D1FA042802D10020FFF79EFB21
:104ED400002008BD68850020648500202C85002002
:104EE40037B50D46044698B191B10022094B0192A1
:104EF400197859B101A91A70FFF748FC019B063BC8
:104F04002B8023680433236003B030BD0420FBE707
:104F14000E20F9E74C8500200438FFF7EBBB0000B6
:104F240013B50478012C13D104238DF800304368A1
:104F340022461B780F4910488DF8043000F034FAEB
:104F44000E4B1C700E4B68461B68984702B010BD90
:104F5400022C09D1C3680122064907488DF8004094
:104F6400019300F021FAEDE7002CEFD103238DF833
:104F74000030E7E775850020244800207485002070
:104F840070850020F0B589B06D4604461E4E174664
:104F94009C460FCE0FC596E80F0085E80F006369A5
:104FA40000220693237C8DF81CC0003B18BF01230C
:104FB4008DF81430637C6946002B0CBF00230E234C
:104FC4008DF81530E36811480293A36803932368AE
:104FD4000193636800930E4B1F600E4B1A700E4AC8
:104FE40000F0B6F868B9236801330AD09DF81D3083
:104FF40013B9064800F05AFA01220849034800F0A0
:10500400D3F909B0F0BD00BF881500002448002082
:105014007085002074850020254F000075850020D0
:10502400074908B501220870064800F075F91128EF
:1050340003D0002818BF032008BD0420FCE700BFEC
:10504400768500202448002008B5024800F000F9C5
:10505400002008BD244800201FB501238DF800302E
:10506400054B8DF8080001916846D3E9001290477A
:1050740005B05DF804FB00BF788500207F2800F0B0
:105084001F034FEA50110BD8084A52F8212002EBB3
:105094008303D3F88010064A0A40C3F8802070477F
:1050A4000022203352F82330FFDE00BFA815000091
:1050B400F0F0FCFF7F284FEA501208D8054B00F0AF
:1050C4001F0053F8222001238340536070470023BC
:1050D4005B60FFDEA81500007F2800F01F034FEA85
:1050E40050110DD8094A52F8212002EB8302D2F85C
:1050F4008010074B0B4043F00303C2F88030704725
:105104000022203352F82330FFDE00BFA815000030
:10511400F0F0FCFF7F2800F01F034FEA50110DD878
:10512400094A52F8212002EB8302D2F88010074B7F
:105134000B4043F00203C2F8803070470022203352
:1051440052F82330FFDE00BFA8150000F0F0FCFF8A
:105154001C232DE9F0413C4E90F80480054603FBE6
:105164000863DB7E0C461746002B6AD10868431C93
:1051740004D0FFF79FFF0868FFF7AEFF6068411C8B
:1051840001D0FFF77BFF2A68A169237D607DC2F807
:1051940024152A680343C2F86C352B68D4E900123D
:1051A400C3F80416C3F80C26237D012B13D1A06881
:1051B400421C01D0FFF762FFE068431C04D0FFF7F4
:1051C40079FFE068FFF788FFD4E902212B68C3F870
:1051D4001016C3F808261C2303FB08F3F2185760C3
:1051E4002269F250F7B100232A68217FC2F84C31BA
:1051F400D2F84C212A68C2F86831D2F868212A68AA
:10520400C2F81431D2F814212A68C2F82431D2F831
:1052140024312B680D4AC3F804232868C0F30730EF
:1052240000F0BAF908222B680020C3F800251C23DB
:1052340003FB08664FF48073F08230767383BDE815
:10524400F0810820FBE700BF7885002020020804D5
:1052540000212DE9F04102680579C2F800151C22ED
:10526400244C034602FB054252689AB10268224963
:10527400C2F8081302680120C2F34241C2F30432A7
:10528400904001F120021D4941F82200BFF34F8FE5
:10529400BFF36F8F4FF0FF311A68D2F80406D2F8CB
:1052A4000C86D2F81066D2F80876C2F80416C2F852
:1052B4000C161B688842C3F81016C3F8081601D0F0
:1052C400FFF728FFB8F1FF3F02D04046FFF722FF67
:1052D4007A1C02D03846FFF71DFF731C02D03046FB
:1052E400FFF718FF1C2303FB05440023E3766360E8
:1052F400BDE8F081788500202002080400E100E088
:105304001C210279034B01FB0233987D003818BF3E
:10531400012070477885002001F06043B3F1005FFD
:105324002DE9F04104460F46904637D1FFF7E8FFD8
:10533400002835D11C2326791A4D03FB0656B0826A
:10534400B76086F816802279216803FB0253C1F8FE
:105354006801D1F8681121689E7DC1F83001D1F847
:1053640030119F6821685B68C1F83C77C1F84067D9
:10537400012621680E657BB92168D1F86831D1F81E
:1053840030010343F9D01C23002803FB02554FF0DE
:10539400000318BF0F20AB75BDE8F0811020FBE7B8
:1053A4001120F9E77885002001F06043B3F1005F34
:1053B400F0B574D11C2504793A4B05FB04356E68AD
:1053C40095F817C03EB9BCF1000F12D02D7E002D08
:1053D40046D01120F0BD344E0768C7F80863BCF10D
:1053E400000F06D02D7E002D3AD00368C3F8046365
:1053F400EFE71C26002506FB0436F275F16075768E
:105404002E461C2707FB0434257600250468C4F8BF
:105414004C51D4F84C410468C4F82451D4F82441C4
:105424000468C4F80417C4F808270268FEB9012107
:105434009162027901681C2000FB0230406848BB7D
:10544400D1F84C41D1F82451D1F814012C4315D191
:105454000028F5D01C2101FB02320320D475B9E7E2
:105464001C2505FB0435012629611546C9E7D2F838
:10547400001241F02001C2F80012DAE71C2101FBFE
:1054840002330022904218BF0320954218BF0F2018
:10549400DA759FE7044B0020C1F804339AE7102023
:1054A40098E700BF788500202000080070470000BE
:1054B4007FB5374BD3F81451002D47D00022C3F8E1
:1054C4001421D3F8141102218DF80010D3F880149C
:1054D4006846C3F880140391D3F80C378DF808306C
:1054E4002C4BD968DA7501911A76D3E900129047EA
:1054F400274BD3F8242172B10021C3F82411D3F827
:105504002421244AD07D30B1D175D3F80C07D16859
:10551400C0B2FFF7A1FD1E4AD2F86831A3B1002141
:10552400C2F86811D2F868311A4B987D60B1D2F88C
:10553400442768468DF808209A688DF80010019277
:105544009975D3E90012904704B070BDD3F84C218B
:10555400002ACDD0C3F84C51D3F84C210D4AD3F8CE
:105564000C17D07DC9B28842C2D1147ED16864B10F
:10557400D3F8006226F02006C3F800621369D475DC
:10558400D3601576FFF768FDB2E7D475FAE700BF7C
:1055940000600C507885002049010028C9B213DB53
:1055A40000F1604303F5614383F80013012300F025
:1055B4001F024009800000F16040934000F5614003
:1055C400C0F8803103607047024B00F00F0019549B
:1055D400704700BF14ED00E00129F8B50D461446EC
:1055E4001E4607D0032912D00CB32046BDE8F8406C
:1055F400FFF70CB80E4B1B78052BF5D10D4B1B6830
:10560400002BF1D03246214604209847ECE7084F9E
:105614003B78022BE8D1084B5B689847054B3D70FB
:105624001B68002BE0D0324621462846EDE7F8BD42
:105634006C860020A0850020948500200122094B5F
:1056440000B51A70052389B08DF8083008AB13E94A
:1056540003008DE8030002AB0FCBFDF70FF809B090
:105664005DF804FBB085002000B589B002AB1822B8
:105674000021184600F02DFD032203468DF8082072
:105684000B4A1288ADF80A200A4A516803919168BE
:10569400D2680491059208AA12E903008DE8030078
:1056A4000FCBFCF7EBFF002009B05DF804FB00BF53
:1056B400D485002058860020012300B589B08DF8D8
:1056C40008300D4B1B88ADF80A304FF400430693A5
:1056D4000A4B5A6803929A68DB680492059308ABF4
:1056E40013E903008DE8030002AB0FCBFCF7C6FF00
:1056F400002009B05DF804FBD48500205886002002
:1057040000B589B002AB18220021184600F0E1FC74
:10571400042203468DF8082008AA12E903008DE844
:1057240003000FCBFCF7AAFF09B05DF804FB0000EF
:1057340030B5182589B002AC2A460021204600F075
:10574400C8FC2A4600250021204600F0C2FC0A4B72
:105754008DF808501B88ADF80A30084BDB680593B8
:1057640008AB13E903008DE8030094E80F00FCF78D
:1057740085FF284609B030BDD48500205886002016
:10578400022273B5144B154D154E1D60154B1A703E
:10579400FCF720F9044680B128463168FEF740FB47
:1057A400042804D1FCF74CFB0528FBD1F4E780B1B5
:1057B40002B0BDE87040FEF729BF4FF400403168E5
:1057C400FCF742F823462246032128460094FFF7BB
:1057D40003FF02B070BD00BFA4850020A88500208F
:1057E400688600206C86002010B50B4B1B788BB9A3
:1057F4000A48FEF739FE08B1FEF708FF00224FF40D
:1058040034010648FEF7E6FD044608B1FEF7FEFE45
:10581400204610BD0824FBE7B0850020B485002095
:10582400064A08B5904206D9401AFFF7F9FF002846
:1058340008BF062008BD0620FCE700BF00A81D0025
:105844007FB50024154B164E0193164B31461C7040
:10585400154B01A8CDE902441C80FEF7BFFA0546AA
:10586400B8B94FF400430146104A11487360FEF77B
:105874009FFD08B1FEF7CAFE00224FF434010D4823
:10588400FEF7A8FD08B1FEF7C1FE002201240A4B71
:105894001A602846094B1C7004B070BDDD55000029
:1058A400A8850020D6850020D4850020415600001C
:1058B400B8150000B4850020708600206C86002096
:1058C400014B1860704700BFA085002070B5204CC4
:1058D40043680FCB84E80F002278510701D5930762
:1058E4002FD163689E072CD1A1688D0729D1E06868
:1058F400840726D1174E0B440344B1F5004F33609F
:1059040021D815498B421ED8D30718D412F0020FA0
:10591400124A134B08BF1346124D134A2A60134A06
:10592400C5E90123124B1B78012B0ED1FFF75CFF55
:10593400044610B92B6830689847204670BD0D4B5B
:10594400EAE70624F9E70C24F7E70824F5E700BFA3
:10595400588600206886002000101C00355700007F
:105964006D560000948500208557000005570000FF
:105974006C860020BD5600002DE9F7430746002839
:1059840054D083689B0753D12C4B1B78052B51D1E2
:105994002B4E42683368DFF8AC8003EB820395003A
:1059A400D8F80020934207D94FF0FF330C2433601A
:1059B400204603B0BDE8F083FFF716FF0446002835
:1059C400F6D1BF68FCF706F8DFF87C9080B12A4670
:1059D40039463368D9F80000FEF712FA042804D1D6
:1059E400FCF72EFA0528FBD1F1E788B10446DFE77E
:1059F400306823462A46394600F50040FBF754FF39
:105A040000953B4622460121D9F80000FFF7E4FD4A
:105A140033681D44D8F8003035609D420CD1FBF743
:105A2400D9FF0028C4D1FBF721FFC1E70E24BFE74B
:105A34001024BDE70824BBE70924B9E76C860020DD
:105A44007086002068860020A485002070B50B4B6A
:105A54001D6885B90A4E3378042B0CD1094C0A4BC6
:105A640021781A780948FBF7F3FD10B90523337040
:105A740070BD2570FCE70820FAE700BF708600209F
:105A84006C860020D685002058860020D78500200B
:105A9400F8B5144B05461A78032A04D0042A04D016
:105AA40008242046F8BD04221A700F4B1B68002BF3
:105AB400F6D1FFF799FE04460028F2D10B4E6B682D
:105AC40030789F0000EB8303802B09D8084B3A46BB
:105AD4001844A96800F0D8FA33783B443370E0E7FF
:105AE4000924DEE76C86002070860020D68500201D
:105AF400D785002038B50D4C2378052B14D10C4BD9
:105B04000C4D1A682B689A420ED106232370FFF7B6
:105B14006BFE40B9084B29681B685868FBF7D4FD35
:105B240008B90723237038BD0820FCE76C860020E1
:105B34007086002068860020A485002010B5084BDC
:105B44001B78072B0AD10748FEF78EFC08B1FEF735
:105B54005DFDBDE81040044B9B681847082010BD4C
:105B64006C860020B48500209485002000B589B09F
:105B740002AB18221846002100F0ABFA06228DF879
:105B840008200D4A03461278052A13D10B4A0C4902
:105B940012680968521A18BF01228DF81C2008AA3D
:105BA40012E903008DE803000FCBFCF767FD09B091
:105BB4005DF804FB0022F0E76C860020708600206C
:105BC4006886002000B589B001A8FCF7B3FE0498EC
:105BD400F0B1079B00F5ED1202F500629A4216D966
:105BE4004FF4EE12D2F80828904210D80A49A3F5CF
:105BF400ED13A3F5006301EA5301480000F5ED102D
:105C040000F5006009B05DF804EBFFF709BE06205B
:105C140009B05DF804FB00BF00F0FFFF00B589B0D8
:105C240001A8FCF787FE0598002818BF062009B0D4
:105C34005DF804FB00B589B001A8FCF77BFE05986C
:105C4400002818BF062009B05DF804FB00B589B030
:105C540001A8FCF76FFE0498F0B1079B00F5ED1264
:105C640002F500629A4216D94FF4EE12D2F80828CF
:105C7400904214D80B49A3F5ED13A3F5006301EA90
:105C84005301480000F5ED1000F5006009B05DF81F
:105C940004EBFFF7C5BD062009B05DF804FB0E2038
:105CA400FAE700BF00F0FFFF19491A4A1A4B00F047
:105CB40010F81A491A4A1B4B00F00BF81A491B4AF0
:105CC4001B4B00F006F81B491B4A1C4B00F001F863
:105CD40006E0521A03DD043A98588850FBDC7047FA
:105CE4001749184A00F009F81749184A00F005F84E
:105CF4001749184A00F001F806E00020521A02DDA4
:105D0400043A8850FCDC7047FCF7ACFAFBF768FEF9
:105D1400004800202C480020586100002C48002036
:105D24002C480020846100002C4800202C480020CE
:105D3400846100002C4800202C480020846100006D
:105D44002C4800207486002074860020748600206D
:105D54007486002074860020FEE7FEE7FEE7FEE777
:105D6400FEE7FEE7FEE7FEE7FEE7FEE7FEE700BF2D
:105D740053B94AB9002908BF00281CBF4FF0FF31AE
:105D84004FF0FF3000F07EB9ADF1080C6DE904CEA0
:105D940000F006F8DDF804E0DDE9022304B0704702
:105DA4002DE9F04F099D0C46002B4DD18A420F4638
:105DB40084469646B2FA82F360D94BB102FA03FEE6
:105DC400C3F120029F4000FA03FC20FA02F21743B9
:105DD4004FEA1E461FFA8EF44FEA1C42B7FBF6F157
:105DE40006FB117701FB04F042EA0742904208D90E
:105DF4001EEB020201F1FF3702D2904200F22D8124
:105E04003946121A1FFA8CFCB2FBF6F006FB10227C
:105E140000FB04F44CEA024C644508D91EEB0C0C5C
:105E240000F1FF3202D2644500F21A81104640EAC2
:105E34000140ACEB040C002125B12CFA03F3002241
:105E4400C5E90032BDE8F08F8B4205D90DB1C5E933
:105E5400000100210846F5E7B3FA83F100294DD18A
:105E6400A342C0F0F280904280F0EF8006462346C1
:105E74000846002DE6D0C5E90063E3E7002B40F0B7
:105E8400A2808A1A4FEA1E471FFA8EF60121B2FB3E
:105E9400F7F407FB14204FEA1C4242EA004206FBD7
:105EA40004F090420FD91EEB020204F1FF382CBF1C
:105EB4004FF001094FF00009904203D9B9F1000FE6
:105EC40000F0C8804446121A1FFA8CFCB2FBF7F0AB
:105ED40007FB102200FB06F64CEA024C664508D983
:105EE4001EEB0C0C00F1FF3202D2664500F2BB80BF
:105EF4001046ACEB060C40EA04409DE7C1F12006D5
:105F04008B4004FA01FE22FA06F720FA06FCF4405C
:105F14008A401F434EEA0C0300FA01FE4FEA174879
:105F24004FEA13491FFA87FCB4FBF8F008FB10444E
:105F340049EA044400FB0CF9A1450ED93C1900F1CF
:105F4400FF3A2CBF4FF0010B4FF0000BA14503D9D2
:105F5400BBF1000F00F093805046A4EB09041FFA34
:105F640083F9B4FBF8F308FB134403FB0CFC49EA84
:105F74000444A44506D93C1903F1FF3801D2A445D1
:105F84007AD8434643EA0040A4EB0C04A0FB0298F1
:105F94004445CC46434602D306D1CE4504D201380B
:105FA400B9EB020C68EB07035DB1BEEB0C0264EBCA
:105FB400030404FA06F622FA01F3CC401E43C5E9B1
:105FC400006400213EE702FA03FEC3F1200104FA53
:105FD40003F200FA03FCCC404FEA1E4720FA01F119
:105FE4001FFA8EF6B4FBF7F00A4307FB1044110CBA
:105FF40041EA044100FB06F48C420ED91EEB010178
:1060040000F1FF382CBF4FF001094FF000098C421A
:1060140002D9B9F1000F2CD04046091B92B2B1FB52
:10602400F7F407FB141142EA014204FB06F1914222
:1060340007D91EEB020204F1FF3801D2914215D8B0
:106044004446521A44EA004121E7861A64EB0303EA
:1060540001200EE7023C724435E702397244D0E66F
:10606400F4440238E3E6F444023842E7023C724462
:10607400E7E702387144D0E7023B3C4482E7023848
:106084003C446AE7704700BF0A44431E914200D172
:10609400704710B511F8014B914203F8014FF9D143
:1060A40010BD034613F8012B002AFBD1181A01383E
:1060B40070470139024410B5904201D1002005E037
:1060C400037811F8014FA34201D0181B10BD013011
:1060D400F2E702440346934200D1704703F8011BE0
:1060E400F9E700001000000000000000017A5200EF
:1060F400027C0E011B0C0D001000000018000000B3
:0C610400A2FFFFFF1000000000000000E0
:1061100058610000004800200B000000846100006E
:106120002C48002000000000846100002C48002062
:1061300000000000846100002C48002000000000E6
:106140002C480020920F0000748600200000000000
:0861500074860020000000002D
:1061580000A81D00FFFFFFFFF8FF03200090D003F9
:10616800FF00000032000000FFFF0000E1480000CF
:0C6178007148000000600C5000000000A6
:107C0000F1109E1E797A222003000000640000001B
:107C1000CC00000000D01F00CD00000000000800D4
:107C2000D200000020000000000000000000000062
:107C30000000000000000000000000000000000044
:087C400000000000000000003C
:0400000300005CADF0
:00000001FF
