:020000040015E5
:1000000000000420DD4115008D4215008F421500CF
:100010009142150093421500954215009742150034
:10002000000000000000000000000000B105150005
:100030009B421500000000009D421500E90E1500CE
:1000400000000000000000000000000000000000B0
:1000500000000000000000000000000000000000A0
:100060000000000000000000000000000000000090
:100070000000000000000000000000000000000080
:100080000000000000000000000000000000000070
:100090000000000000000000000000000000000060
:1000A0000000000000000000000000000000000050
:1000B000852C1500B10C1500A1421500A1421500B8
:1000C0000000000000000000000000000000000030
:1000D0000000000000000000000000000000000020
:1000E0000000000000000000000000000000000010
:1000F0000000000000000000000000000000000000
:1001000000000000000000000000000000000000EF
:1001100000000000000000000000000000000000DF
:1001200000000000000000000000000000000000CF
:1001300000000000000000000000000000000000BF
:10014000A1421500A14215000000000000000000BF
:100150000000000000000000A1421500A1421500AF
:10016000A142150000000000B5401500A142150095
:10017000A142150000000000000000000000000087
:100180000000000000000000A14215000000000077
:10019000A1421500A142150000000000000000006F
:1001A000000000000000000000000000000000004F
:1001B000000000000000000000000000000000003F
:1001C000000000000000000000000000000000002F
:1001D000000000000000000000000000000000001F
:1001E000000000000000000000000000000000000F
:1001F00000000000000000000000000000000000FF
:1002000000000000000000000000000000000000EE
:1002100000000000000000000000000000000000DE
:1002200000000000000000000000000000000000CE
:1002300000000000000000000000000000000000BE
:10024000A1421500000000000000000000000000B6
:1002500000000000A142150000000000A1421500AE
:100260000000000000000000A1421500A14215009E
:10027000000000000000000000000000000000007E
:10028000000000000000000000000000000000006E
:10029000000000000000000000000000000000005E
:1002A000000000000000000000000000000000004E
:1002B000000000000000000000000000000000003E
:1002C000000000000000000000000000000000002E
:1002D000000000000000000000000000000000001E
:1002E000000000000000000000000000000000000E
:1002F00000000000000000000000000000000000FE
:1003000000000000000000000000000000000000ED
:1003100000000000000000000000000000000000DD
:1003200000000000000000000000000000000000CD
:1003300000000000000000000000000000000000BD
:10034000A1421500000000000000000000000000B5
:100350000000000000000000A1421500A1421500AD
:10036000A1421500A1421500C12B1500A1421500A4
:10037000A1421500A1421500A14215000000000095
:10038000A1421500A1421500A1421500A14215008D
:10039000A1421500A1421500A1421500A14215007D
:1003A0000000000000000000A1421500A14215005D
:1003B000A1421500A142150000000000000000004D
:1003C000A1421500A1421500A1421500A14215004D
:1003D000A1421500A142150000000000000000002D
:1003E000000000000000000000000000000000000D
:1003F00000000000000000000000000000000000FD
:1004000000000000000000000000000000000000EC
:1004100000000000000000000000000000000000DC
:1004200000000000000000000000000000000000CC
:1004300000000000000000000000000000000000BC
:10044000A1421500000000000000000000000000B4
:10045000A1421500A1421500A142150000000000B4
:10046000A1421500A142150000000000000000009C
:08047000A1421500A142150094
:1004780000000000000000000338FDD870470000AD
:1004880000A0105000820D5000040550000000002C
:1004980000000000000000000338FDD8704700008D
:1004A80000000000000000000338FDD8704700007D
:1004B800FC5A0020416461444655005365656564F3
:1004C800005849414F206E524635344C313520533F
:1004D800656E73650076302E312E302073313435D9
:1004E80020392E302E3000000000000000000000EF
:1004F8000000000000000023D1BCEA5F782315DE6D
:10050800EF121200000000002C0000002B00000079
:10051800FFFFFFFFFFFFFFFF010000000000D60103
:1005280054850020FFFFFFFFFFFFFFFFFFFFFFFFD6
:10053800FFFFFFFF00000000000000000000D601E0
:100548000701000000A0105000820D500004055063
:04055800DC8500201E
:08055C00404600000100000010
:1005640010B50C46E0B90968C1B10E48814207D004
:10057400431A3B2B0ED83C23CA5CC254013BFBD22A
:1005840000223C21074802F05AFE074B1880002342
:10059400236010BD3C2204F073FCF1E70E23F7E75F
:1005A4000123F5E72A480020284800206FF00203C1
:1005B400064A9E4502D1EFF3098101E0EFF3088179
:1005C4008869A0F102000078104700BF6505150096
:1005D40038B50446A8B13C2100220C4802F02FFE95
:1005E4000B490B8883420ED1084A02F13C0052F8B1
:1005F400045B824244F8045BF9D1002001330B8090
:1006040038BD0E20FCE70B20FAE700BF2A48002083
:10061400284800200B2970B50446154608462BD9F6
:1006240023892044053304EB4301431ADAB2012A37
:1006340022D9814220D8134804F022FC2388542B69
:100644001CD1AB0704D04DF2633362889A4215D1B2
:1006540000234FF6FE704FF4405534F8081F9942BA
:1006640001D80B2070BD34F8022F824208D0AE8925
:10067400964205D00133F2E70920F3E70F20F1E7B2
:100684000020EFE76848002008B5002202F0D7FDFB
:10069400034B1B88834214BF0B20002008BD00BFFE
:1006A40068480020024AD2F80034002BFBD070477F
:1006B40000B0045010B5ADF5805D4FF4805204468F
:1006C400FF21684604F001FCFFF7ECFF6B460022B3
:1006D40053F8041BA1500432B2F5805FF8D1FFF740
:1006E400E1FF0DF5805D10BD70B500264C1E20F4B1
:1006F4007F65240B25F00F05013405EB0630013628
:10070400FFF7D8FFA642F8D370BD000038B5104CEF
:10071400054621684B1C1AD04FF480520D4804F052
:10072400C4FB88B115B12068FFF7C4FF2168FFF747
:10073400B9FF0023074A52F8040BC8500433B3F539
:10074400805FF8D1FFF7AEFF4FF0FF33236038BD71
:1007540000480020D04800202DE9F84F05460F46F8
:1007640014469846DFF850B0DFF85090DFF850A0F8
:100774000CB9BDE8F88FD9F8003005EA0B06B3428E
:100784000AD04046FFF7C2FF4FF48052314650462C
:10079400C9F8006004F074FBC5F30B00C0F5805683
:1007A400A64228BF264639463246504404F068FB28
:1007B400A41B35443744DBE700F0FFFF004800206A
:1007C400D048002008B50003FFF774FF002008BDDF
:1007D400FFF770BF10B51446FFF764FF01EB840404
:1007E400401AA14203D1BDE81040FFF75BBF431894
:1007F40051F8042B1A60F4E7BFF34F8F0549064BF9
:10080400CA6802F4E0621343CB60BFF34F8F00BFAA
:10081400FDE700BF00ED00E00400FA0510DF7047BB
:1008240011DF704712DF704718DF704749DF7047E8
:100834008DDF704760DF70476ADF704761DF7047A4
:1008440068DF70471FB50023CDE90133039302230A
:1008540068460093FFF7E8FF05B05DF804FB00234A
:1008640007B50DF107008DF80730FFF7DBFF9DF8A2
:100874000730012B01D1FFF7D3FF03B05DF804FB70
:1008840008B54FF0E023D3F8F03DDB0700D500BEF8
:10089400FFF7B2FF014B1878704700BFD358002010
:1008A4004FF480722DE9F04F534B89B0C3F84025C3
:1008B40000F080FA00F06AFD002000F01BFB00F05D
:1008C400E5FD48B1052000F015FB00F0F1FD00F056
:1008D4001FFE062000F00EFB484BDFF84491D3F8CE
:1008E4000055DFF84081B12D0CBF01220022444F96
:1008F40089F800203BD0A82D39D0002288F80020A8
:10090400D3F800464E2D04F0010438D1C3F8002575
:1009140000F06EFC01234FF40052516802F1A3422F
:1009240002F5471202F2DB52914209BF4FF44052E2
:100934004FF49052926802F500721168314A914264
:1009440000F05081002B7CD100287AD03B68002C29
:1009540075D02D4A2D481A602D4B2E4A1B68B3FBC7
:10096400F2F358432C4B43F00103984767E001220C
:1009740088F80020D3F8004614400022C6E73968FE
:1009840008682149884200D18CBB6D2D4CD10022CE
:100994001A4BC3F8002500F0F1FC044600F054FAA9
:1009A400E4B900F025FCC8B100F070FDB0B94FF413
:1009B40000535A6803F1A34303F5471303F2DB53CF
:1009C4009A4206D199F800300BB9FFF73BFFFFF7C5
:1009D40046FF00223B681A6000F024FD0F4B1B7891
:1009E4001BB1A822054BC3F80025FFF705FF6D2DA9
:1009F400C3F80025CFD08BE700C00C5000E01050A6
:100A0400044800207CB0EE87D51A5A0020A10700C4
:100A14000848002040420F0080041500D1580020EF
:100A2400D0580020D358002000F0E2FB002800F04A
:100A3400D7803B681A68714B9A4240F0D1800023FA
:100A440001204FF40052DFF8C8B152686C4E5A4589
:100A54000ABF4FF440524FF490529268396808BF6D
:100A640002F500721468654AB44218BF00220A6095
:100A74000BB900288FD198F80030002B00F0B48017
:100A8400082000F037FA99F800300BB9FFF7DAFEC6
:100A94004FF4A81201264FF0E02389F800600024E7
:100AA400C3F8082D4FF40433564901A8CDE90134A5
:100AB400FFF7B4FE4FF00052534B1A60534B0C2215
:100AC400214605A8009304F000FA40F20113009AAD
:100AD40005A940200593FFF7AFFE0C22214605A887
:100AE40004F0F3F99DF81430009A334305A9A020CB
:100AF4008DF81430FFF7A0FE0C22214605A804F05F
:100B0400E4F9F7234FF00C0A009A05A92320ADF865
:100B140016308DF81460FFF78FFE0C22214605A8CD
:100B240004F0D3F9009A05A920208DF814608DF8FB
:100B34001660ADF818A0FFF77FFE5246214605A8BF
:100B440004F0C3F9009A05A922208DF814608DF8E9
:100B540016A0FFF771FE5246214605A804F0B5F928
:100B64008DF814600226009A05A921208DF81660DC
:100B7400FFF762FE6846FFF75DFE214608220DEB93
:100B84000A0004F0A2F99DF80C30304643F001034A
:100B94000DEB0A018DF80C30FFF752FE4FF40053B1
:100BA4005B68174A5B450ABF4FF440534FF49053B8
:100BB4009B6898F8000008BF03F500731B68934214
:100BC40001D04E2D17D1012240F6B83100F0F6FBCA
:100BD40098F80030002B3FF4DEAEFFF740FEDAE673
:100BE400002398E601232CE7022000F083F901207A
:100BF40000F080F9D2E700221146E7E77E67E54E70
:100C04007CB0EE878508150000E100E00048002074
:100C1400DBE5B1514FF4FA7310B5FEB0ADF8023014
:100C240000230DF1020101A8ADF80430FFF706FE20
:100C3400044640B9BDF80430102B07D0112B15D051
:100C440001A800F007FF20467EB010BDADF80000FB
:100C54006946BDF80800FFF7EBFD01230720054AAC
:100C64001370054A137000F045F9E9E7014B187059
:100C74000820F8E7D2580020D1580020002313B5EB
:100C840001A80193FFF7D2FD044610B9019801F0C1
:100C940039FE204602B010BD08B5FFF7BBFF05289A
:100CA400FBD1FFF7EBFF0528F7D108BD0021024A6D
:100CB400084602F019BA00BF9D0C1500036803F042
:100CC4001F025F2B02604FEA53129ABF024B53F884
:100CD40022000020704700BF880415007047704749
:100CE40000234FF0FF32C0F80035C0F86025C0F88B
:100CF4006425C0F86825C0F86C2540F2FF32C0F8BE
:100D04000C35C0F80435C0F80825054AC0F810357C
:100D1400C0F81435C0F80427C0F80837704700BF7E
:100D2400D45A002073B500251F4C0646C4F800555C
:100D340001A80191FFF7C2FF019B019100EB830021
:100D4400D0F88020194B06F5AC76134043F003032A
:100D5400C0F8803001A8FFF7B1FF0122019B02FA1D
:100D640003F34360042344F82610C4F80C35FF232E
:100D7400C4F80455C4F808350223C4F810350C4BE4
:100D8400C4F81455C4F804370823C4F80837C4F861
:100D94002855C4F82C55C4F80025C4F81051D4F8CB
:100DA400103102B070BD00BF00200D50F0F0FCFF08
:100DB400CC5A002038B500251A4B1B4CC3F84054BC
:100DC40020681A4BB0FBF3F064235843184B43F0EC
:100DD4000103984740212846FFF7A4FFFFF77EFF51
:100DE4001E210820134A02F05BF908B102F00EFA42
:100DF40002F09CF8E0204FF47A720F4981F8230046
:100E04002368B3FBF2F3013BB3F1807F08D24FF0C8
:100E1400E0225361002381F82300936107231361C7
:100E240038BD00BF00E010500848002040420F00C9
:100E3400A0041500D458002000ED00E00148FFF79D
:100E44004FBF00BF00200D5013B54FF0E023002426
:100E54001C61FFF7F3FF02F017F921460B4C01A8C0
:100E64000191FFF72BFF019B013100EB8300D0F8C8
:100E74008030232903EA040343F00203C0F88030DE
:100E8400EDD1FFF72CFF02B010BD00BFF0F0FCFF66
:100E94000022054B23F81010044BC3F81021D3F89B
:100EA400102101221A617047CC5A002000200D50F5
:100EB4000A4A0B4B11681B680020B1FBF3F203FBD9
:100EC4001211B1EB530F4FEA530288BF591A4F2343
:100ED4005943B1FBF2F189B2FFF7DABFD85A0020C7
:100EE400C85A0020024A136801331360FFF7E0BFB9
:100EF400D85A00201A490A6808281FD8DFE800F0E9
:100F04000F050F1E1E161A23290040F6B830154B84
:100F140018604FF480539A4218BF0B6070474FF427
:100F24009670104B18604FF48013F4E764220D4B55
:100F34001A60704740F6B8300A4B186002F010335C
:100F440023F08053E7E740F6B830064B18601023CF
:100F5400E1E74FF49670034B18604FF01013DAE793
:100F6400C45A0020C85A0020064BD3F840231C2A38
:100F740005D1D3F84403431E58425841704700201A
:100F8400704700BF00C0FF0003689A070CD50368D0
:100F9400DB070DD50922074BC3F80C250F22C3F834
:100FA400042501221A60FEE7034B0360EF3B036054
:100FB400704700BF00801050F000FA5008B50123BC
:100FC400454A4648C2F80038454AD2F840231C2A0C
:100FD40004BF444AC2F80C34FFF7D6FF0830FFF7C9
:100FE400D3FF0830FFF7D0FF0830FFF7CDFF00F53F
:100FF400F470FFF7C9FF3C4AD2F88C3043F44063E5
:10100400C2F88C300022D30003F57F0303F540437C
:10101400D3F8001401310AD0D3F8001439B1D3F84D
:1010240000140132D3F80434402A0B60EBD12A4B6C
:10103400D3F84024002A4BD0FFF796FF48B1284B41
:10104400D3F83423294B9A429EBF234B284AC3F832
:101054004026FFF789FF18B1264B274AC3F8AC276F
:10106400FFF782FF48B134221B4BC3F82426D3F880
:101074003C2622F40022C3F83C26204BD3F8002659
:10108400D20744BF6FF00102C3F800261C4BD3F80B
:10109400182522F00302C3F81825D3F8182542F0C6
:1010A4000302C3F81825104AD2F88C1041F44061A9
:1010B400C2F88C10D2F8881041F47001C2F888107C
:1010C400BFF34F8FBFF36F8F0022C3F8A02508BD75
:1010D400C822C3F84024AFE70000125000C50D50E9
:1010E40000C0FF000030055000ED00E0001D0A18AC
:1010F40040E0A91E00A0085078000A0400E0105047
:1011040000B0045018DF7047064B10461A78012AC5
:1011140003D1012904BF02221A7008B102F076B883
:10112400704700BF1C5B002070B50F4C0F4D104E74
:10113400D4F80034DB070FD5C4F80056C4F80456BD
:10114400C4F80856C4F80C56C4F81056C4F814561B
:10115400C4F81856C4F81C5602F02AF83378023B37
:10116400032BE5D870BD00BF009010503546526E79
:101174001C5B002038B5FFF78DFB10B3184C1C2105
:10118400204601F04DFC042804D1FFF777FD052823
:10119400FBD1F4E708B102F039F8124C104D0023EA
:1011A4001C222146284601F02BFC042804D1FFF719
:1011B40065FD0528FBD1F2E788B1BDE8384002F0AF
:1011C40025B80948FFF704FB072206490648FFF73C
:1011D40001FB064B1A78012A04BF02221A7038BD9B
:1011E400205B0020DC5A002000F017001C5B00206C
:1011F4004FF4005313B55A6803F1A34303F547139F
:1012040003F2DB539A420ABF4FF440534FF4805425
:101214009C6801A800F0AEF92368013302D1636829
:10122400013311D0019B1A88012A0DD1588820B1AD
:1012340000222046996802F002F8019B5B881B1A81
:101244005842584102B010BD0020FBE784B02DE99C
:10125400F34108AC84E80F009DF8204001A80F4634
:1012640016461D46BDF8228000F084F964B90122B7
:10127400FF21354BA3F802809D601A809980334B7F
:101284001A70FFF777FF48E0013C052C45D8DFE8EA
:1012940004F00323154C39552B4BBA192A449A6090
:1012A400A5221A80FF22C3E903769A800C9AA3F838
:1012B40002805D619A610122244BE1E7019A224B8D
:1012C400118819805188926859809A60AA22C3E9CA
:1012D40003769A805D61EEE7019A1B4B1188A5297C
:1012E4000AD100229A60FF221A60FF229A8000220B
:1012F400C3E903225A61DEE7198051889268598054
:101304009A60F2E7FFF7C6FA60B100F0BBFD08B1DE
:1013140001F07CFF03220D4B1A7002B0BDE8F041CE
:1013240004B0704700F028FAF1E70022064B9A60F7
:10133400FF221A60019A92889A80A2E79DF83430BD
:10134400024A04331370E8E7DC5A00201C5B0020D7
:1013540000B5094B89B01B785BB905238DF80830BB
:1013640008AB13E903008DE8030002AB0FCBFFF7D2
:101374006DFF09B05DF804FBF85A0020024B1878A1
:10138400431F5842584170471C5B00201FB500237F
:10139400CDE90233064B019301F002FB28B905495C
:1013A400054B01A84B6001F019FB05B05DF804FB87
:1013B4000D111500205B002000F0170070B50546E4
:1013C4000E4603F0DBF8044628B935B100F0B6FC4C
:1013D4000446FFF7A9FE204670BDBEB10D4B294659
:1013E4000D4A0E481D704FF4004401F0E1FD4FF426
:1013F400FA7029464FF47A720023E6FB040103F0E5
:10140400B3FB2A460146064801F0E4FD00F090F9DA
:10141400DEE700BFF85A002055131500B804150084
:10142400FC5A00201FB54FF0FF32174BC3F8802041
:10143400C3F880214FF400535A6803F1A34303F522
:10144400471303F2DB539A420BD14FF4405398688D
:101454004FF0E023C3F8080D04B0BDE8104000F0DD
:10146400B5B800234FF48054CDE90233062368460F
:10147400CDE90034FFF746FE10B14FF000531C6075
:101484004FF48050E8E700BF00E100E007B501A891
:1014940000F070F8019B1A88A52A07D09888A0F15B
:1014A400AA035842584103B05DF804FB0120FAE74F
:1014B40010B503F027FBD8B1114B124A1B68124830
:1014C400B3FBF2F35843114B43F00103984703F085
:1014D40047FA08B101F09AFE03F014FB08B101F0D9
:1014E40095FE03F089FA044630B101F08FFE04E062
:1014F40003F0AAFA0028DFD10024204610BD00BF63
:101504000848002040420F00A0860100B0041500E6
:1015140000B589B002AB18220021184603F0D5FCAF
:10152400022203468DF8082008AA12E903008DE878
:1015340003000FCBFFF78AFEFFF7F6FD002009B08A
:101544005DF804FB13B5044601A800F013F8019BF1
:101554001A8822805A8862809A68A2609A88A28037
:10156400DA68E2601A6922615A6962619B69A3615F
:1015740002B010BD014B0360704700BF00F01700BC
:101584000346F0B5002585F3148885F3108885F3A8
:10159400118885F31388186880F308885868FF2435
:1015A40064B2EFF30585002D01D1A6460047254618
:1015B400064621273FBAF0B4002400250026002760
:1015C400F0B4F92040B20047F0BD00BFFFF7D8BF28
:1015D4000023F7B50DF1020101A8ADF80230019323
:1015E40002F07EFA0346019C204613B15CBB03B0B3
:1015F400F0BD26783EB3174A92F83010032922D062
:101604004FF00C0C0CFB03F551595719C1B992F862
:10161400303056510133DBB282F83030BDF802303D
:1016240008469B08013B0C4A04347B60BC6001F013
:101634005BFD034601980028D9D0002BD7D002E0E7
:101644000133042BDED102F067FA0028CFD001F079
:10165400DDFDCCE7285B0020A5161500084609B17E
:1016640001F0D4BD704700000C2310B543430B4A6E
:10167400D158D418A06879B192F8301004380139DF
:10168400C9B282F830100021C4E90111D15002F02E
:1016940043FA08B101F0BAFD002010BD285B002018
:1016A4000122214B70B5214E1A7096F8303003B9DF
:1016B40070BD00251D4C236883B1013B042B07D862
:1016C400DFE803F01C0612032800204603F012F89A
:1016D400E8B2FFF7C9FF08B101F098FD0135042D08
:1016E40004F10C04E7D1E0E7A3682046636002F04C
:1016F4009BFF0028ECD001F089FDE9E7204603F0C8
:1017040095F803F071F808B101F080FD0520FFF7AA
:10171400F1FBDDE703F0BCF803F0DEF8BDE8704050
:101724000620FFF7E7BB00BFF85A0020285B002023
:101734000022114608B50D4B83F830200132042AEB
:10174400C3E90111196003F10C03F7D1084802F051
:1017540065FF02F05DF908B101F058FD054802F09B
:1017640043F908B101F052FD002008BD285B0020B8
:1017740061161500D515150008B50020FFF774FF94
:101784000120FFF771FF0220FFF76EFF0320FFF730
:101794006BFFBDE8084002F083B9006870476CDF56
:1017A40070476DDF70476FDF704770DF704773DF1E
:1017B400704774DF704775DF704776DF704777DFF7
:1017C400704778DF70477BDF70477DDF704780DFCD
:1017D400704787DF70478DDF70478EDF7047B4DF57
:1017E4007047B5DF7047B6DF7047B7DF7047BADFC1
:1017F400704765DF704767DF70470C280AD8DFE859
:1018040000F00709090909090B091409090F0D005A
:10181400012070470620704703207047042070475A
:10182400042914BF0620052070470220704701F0E8
:10183400EDBC10B5044608460321FFF7DEFF02465F
:10184400204600F021FE18B1BDE8104001F0DEBCD6
:1018540010BD00000346032B10B50846144620D0E3
:10186400042B23D169B1124B18884FF6FF739842A9
:101874001CD01321FFF7A3FFC0B1BDE8104001F055
:10188400C5BC104601F036FD08B101F0BFFC094BA0
:101894001B689C420AD101220321074800F0F4FD91
:1018A400EAE70121FFF7A9FF0246F6E710BD00BFF2
:1018B40014480020945B0020EC5B0020F8B50A4D2E
:1018C4001446AB889E181D2E0DDC2F6802F1010C06
:1018D400FE1807F803C07070B01C03F0D1FAAB888F
:1018E40002331C44AC80F8BD7C5B0020F0B54D4E47
:1018F40093B03478002C40F091804B4D1022214657
:10190400284603F0E2FA494B182221460CA82B6022
:1019140003F0DBFA01238DF8303028230E93444B77
:101924001B78002B7CD0434B02AC03F110052246FC
:1019340018685968083303C2AB421446F7D1102221
:101944003D4802A903F0B1FA002869D03B483C4C59
:1019540001210460FFF727FF08B101F057FC06AA34
:101964001746354B03F1100C1546186859680833AF
:1019740003C563452A46F7D12068A288A3790A9053
:101984003048ADF82C20002101228DF82E3007605C
:10199400FFF70BFF08B101F039FC03238DF8443045
:1019A40004238DF8063041F23053ADF80830264B4D
:1019B40006AA9B790DF1070102A88DF80A30FFF7FA
:1019C40018FF01220DF106011046FFF777FF1F48AB
:1019D40003F063FA1D49C2B20920FFF76FFF10221A
:1019E400062006A9FFF76AFF0F4919480CAAFFF75A
:1019F400DEFE08B101F00AFC154C04220120217816
:101A0400FFF7DFFE08B101F001FC01212078FFF7A8
:101A1400D0FE08B101F0FAFB0123337013B0F0BD1E
:101A24000623BEE7D65B00207C5B00205C5B0020C5
:101A3400985B0020EF041500A15B0020905B002060
:101A44009A5B00208C5B0020EC5B0020BC0415003A
:101A54000C480020F0B504460146AFB0AD4800F094
:101A64004FFD2388262B3BD80F2B04D8012B00F0E5
:101A7400D9802FB0F0BD103B162BFAD801A252F832
:101A840023F000BF111B15003D1B1500771A15002C
:101A94006F1B1500651C1500771A1500771A1500C1
:101AA400771A1500771A1500771A15007B1C150094
:101AB400771A1500771A1500771A1500771A15008A
:101AC400771A1500771A1500ED1C1500771A150002
:101AD400DF1C1500771A1500771A1500E51B150091
:101AE400513B9AB2052AC4D8052BC2D801A252F898
:101AF40023F000BF351C15007B1C1500771A150058
:101B0400771A1500FF1C1500CB1B15000022824B11
:101B1400A0880EA91880814B1A7023690E930423A0
:101B2400ADF83C30E38AADF83E30FFF746FE0028BE
:101B34009FD001F06BFB9CE780233222764CADF8FA
:101B44002030774B20881A600EA9012308AAFFF7DA
:101B54004CFE08B101F05AFB724B1B780BB9FFF72E
:101B6400C5FE4FF6FF73238083E702AC26466E4B17
:101B74009A79186899888DF81E200690DA1DADF8B8
:101B84001C101733254610685168083203C59A4261
:101B94002C46F7D10EAA1546644B03F118071446D8
:101BA40018685968083303C4BB422246F7D1186841
:101BB4000521206058485E4A08AB0088CDE90B56E1
:101BC400FFF705FEB3E7A379002B7FF452AF524B26
:101BD40013211888FFF7F3FD00283FF44AAF77E09C
:101BE400237A012B7FF445AF00224C4B1A704C4BE7
:101BF40019680139196081B90EAB1822184603F02F
:101C040064F905220346DDE912018DE803008DF82D
:101C140038200FCBFFF71AFB2BE72FB0BDE8F040BD
:101C2400FFF764BE3C4B00211888FFF7E4FDD3E7BF
:101C3400A379002B3FF41DAFA27B043A022A3FF69E
:101C440018AF022B18BF01238DF838304FF4C1733D
:101C5400ADF83C30304B0EA91888FFF7C2FD66E79B
:101C64003149228A4B8D18319A4218BF0021A0882D
:101C7400FFF7AFFDB0E74FF6FF75274C2088A84269
:101C840025D02C4B1B78EBB1012308222A49FFF7FE
:101C9400AAFDE8B90246014602232088FFF7A3FD06
:101CA400B0B92A460C212088FFF799FDA0F54053CE
:101CB400023B012B7FF6DDAE08283FF4DAAE112893
:101CC4008AD1D6E61A461946FFF78DFD84E7082027
:101CD4002FB0BDE8F04001F099BA00220E4B114636
:101CE4001888FFF77AFD77E70023ADF838300A4B00
:101CF4000EA91888FFF76FFDBBE6E188064BF729AC
:101D040028BFF72121F00301188841F00301FFF7F0
:101D14006EFD61E7EC5B002014480020D65B0020D8
:101D240010480020D85B00209A5B0020B25B0020A2
:101D34001C5C0020985B0020CE5B0020002330B5A3
:101D4400414A42481370424A95B0137002F066FC4F
:101D540001F090FA0446002860D13E48FEF738FCB2
:101D640000285ED101223C4B1A7011233B488DF8A8
:101D7400043003F092F8394982B201A8FFF725FD37
:101D840008B101F043FA0822002104A803F09DF8E9
:101D9400334A344B04A8CDE90423FFF714FD08B1FA
:101DA40001F034FA00210C2201A803F08EF8082374
:101DB400ADF804302C4B2D4802932D4B01A903930D
:101DC40000F0C8F908B101F021FA2A4D402200219F
:101DD40004A803F07AF8284603F05FF80595264D29
:101DE400ADF81000284603F058F80795234DADF8D8
:101DF4001800284603F051F81123ADF8300004A868
:101E0400ADF84C300D9500F08FFC30221C4B1A704D
:101E140007225A7010229A70FFF768FD204615B009
:101E240030BD04A8FFF7BDFC08B101F0EFF99DF83F
:101E3400113004A801338DF81130FFF7B0FC0028ED
:101E440093D001F0E3F990E7D85B0020591815000E
:101E5400E95B00209A5B0020985B0020BC0415001D
:101E64000C00180004002003D91E1500EC5B0020B0
:101E740033181500C3041500C9041500DD0415004A
:101E84001C5C0020012210B50E4B1A700E4B1888F2
:101E94004FF6FF73984207D01321FFF790FC08B167
:101EA40001F0B4F9002010BD084C2378002BF9D0C0
:101EB400074B1878FFF77FFC08B101F0A7F900235E
:101EC4002370EFE7D85B002014480020D65B002085
:101ED4000C480020F0B50B7805460C4689B0092B58
:101EE40035D8DFE813F02D00360041000A00190050
:101EF4002600080111014400160102F0C9FC042166
:101F0400FFF77BFC0246284600F0BEFAF8B109B0A0
:101F1400BDE8F04001F07AB9FFF7B4FF08B101F071
:101F240075F902F0D9FC90B109B0BDE8F04002F0B7
:101F3400EBBCFFF7A7FF0028F6D001F067F9F3E741
:101F44000122764B1A704B681A78754B1A7009B0D7
:101F5400F0BD0226714B1E704B681B78012BF6D125
:101F640002F042FC3146CBE703226C4BEEE705203E
:101F7400FEF7C0FF694B1E78022E38D0032E5AD0CC
:101F8400012EE4D104AB10221846002102F09DFF7B
:101F9400634A237A12780C2B8DF810204FF000023C
:101FA40003924FF00302CDE9012008D031462846C0
:101FB40000F06AFA0028CAD001F028F9C7E763687C
:101FC4001846FFF7EAFB0590181DFFF7E6FB06909D
:101FD40003F10800FFF7E1FB079001A802F024FBDE
:101FE4000028B4D03146FFF708FC0246DFE7237A25
:101FF40013F0030011D019464FF0000CC0F1040295
:102004001A44D2B20E4601316768C9B2914207F848
:1020140006C0F7D11B1A04332372012304936368A7
:1020240004A80693237A9B08059302F0FFFB00287B
:102034008DD00221D7E7207A830702D03246314679
:1020440061E7384E0190314601F02AF9014618B192
:102054002846FFF7EEFB7AE76168019A306802F0E0
:102064000FFF019801F082F901460028F0D101A97F
:10207400304601F08BF901460028E9D1042304938A
:10208400019B04A89B0805933368069302F032FB76
:10209400074640B9244A237A11680B441360326816
:1020A400224B1A6053E709281BD11F4B217A1A6867
:1020B400114419601E4B1B78002B3FF448AF1D4C94
:1020C4002388013B9BB22380002B7FF440AF28463A
:1020D40000F092F908B101F099F8174B1B8823809E
:1020E40035E7306801F006F9014610B12846FFF7DC
:1020F400A0FB3946ACE701220D4B1A700E4A8B88BF
:1021040013800C4A138022E70023094A13700A4AF9
:10211400F8E7054B196800F025F9F7E6E95B0020BC
:10212400E85B0020DC5B0020E45B0020945B002083
:10213400D75B0020E05B0020E25B0020ADDF70474E
:10214400AFDF7047B2DF7047B3DF7047B5DF70476A
:1021540062DF70472DE9F0430E46054695B000282E
:1021640000F0F980002900F0F6804B68002B00F0A5
:10217400F2804FF6FF7304AA17460380774B03F1EE
:10218400100C144618685968083303C46345224682
:10219400F7D141F2305338460DF10A010293FFF7AB
:1021A400D7FF0446002840F0D28001202A1D02A94E
:1021B400FFF7C4FF0446002840F0C9809DF80A30A8
:1021C40001461C22AB710DA802F07FFE9DF834304D
:1021D4004FF4885923F00C0343F00C038DF834308A
:1021E400AB7901AF8DF80E3041F232532146032210
:1021F4003846CDE91044CDE912440E94ADF80C30C4
:1022040002F063FE9DF80630214623F01F0343F0DD
:102214000303142208A88DF80630ADF8049002F0E8
:1022240054FEF423A888ADF82C300DF10C0805F108
:10223400080308AA0DA90A940C94CDE90887FFF7AE
:102244007FFF0446002840F0828001461C220DA82E
:1022540002F03BFE9DF83430214623F0180343F08E
:1022640018038DF83430AB7903228DF80E3041F227
:1022740031533846CDE91044CDE912440E94ADF8FB
:102284000C3002F022FE9DF80630214623F01F0395
:1022940043F01303142208A88DF80630ADF8049017
:1022A40002F013FE1723A888ADF82C3008AA05F114
:1022B40010030DA90A940C94CDE90887FFF740FF99
:1022C4000446002843D101461C220DA802F0FDFD5E
:1022D4009DF83430214643F002038DF83430AB7955
:1022E40003228DF80E3041F234533846CDE91044C0
:1022F400CDE912440E94ADF80C3002F0E6FD112342
:10230400ADF804309DF80630214623F01F0343F056
:102314000303142208A88DF8063002F0D6FD022328
:10232400A8880A93ADF82C3008AA05F120030DA95A
:10233400CDE908870C96FFF703FF044638B97368A4
:10234400AB62B36803B1EB620122054B1A702046FD
:1023540015B0BDE8F0830E24F9E700BFFF041500B3
:10236400285C00202DE9F04F0E46054687B0002872
:1023740039D04FF6FF7302889A4236D01C4B1B7833
:102384009BB34FF0100A1B4CC1F30729C1F3074854
:102394000F0E07234FF0010B1022002102A86370D7
:1023A400ADF8063084F800A084F802B0E67084F832
:1023B400049084F80580A77102F087FD2B8A288891
:1023C400ADF80830002302A9ADF80C300DF1060376
:1023D400CDE904348DF80AB0FFF7B6FE1328D8D03F
:1023E40007B0BDE8F08F0E20FAE70820F8E700BF39
:1023F400285C0020215C00202DE9F04F0E460446A5
:1024040087B0002837D04FF6FF7302889A4234D041
:102414001B4B1B788BB34FF0110B0027194DC1F3E5
:10242400072AC1F307494FEA116805231022002146
:1024340002A8ADF8063085F800B06E7085F802A0E9
:1024440085F8039085F8048002F03FFD238A2088F4
:10245400ADF80830012302A98DF80A300DF1060306
:10246400CDE90435ADF80C70FFF76EFE1328DCD00F
:1024740007B0BDE8F08F0E20FAE70820F8E700BFA8
:10248400285C0020215C00202DE9F0410F4616460F
:10249400044686B060B34FF6FF7302889A4229D08F
:1024A400154B1B7833B34FF01008144D032310223F
:1024B400002102A8ADF8063085F800806F70AE7078
:1024C40002F003FD238A2088ADF8083001238DF83B
:1024D4000A30002302A9ADF80C300DF10603CDE952
:1024E4000435FFF731FE1328E0D006B0BDE8F081D3
:1024F4000E20FAE70820F8E7285C0020215C002081
:1025040070B50D46044688B050B149B1826A3AB1FB
:102514000B88502B49D005D8102B43D0112B53D006
:1025240008B070BD512BFBD18E79022EF8D10A89E7
:10253400038A9A42F4D18B7B043B022BF0D99DF899
:102544001630082243F001038DF816300B8A01A8D7
:10255400ADF818304B8A8DF81060ADF81A3001F1DF
:1025640014030021079302F0B0FCA18A208801AA79
:102574000196CDF808D0FFF7E5FD40B3E36A03B157
:10258400984740F2FD13208804A9ADF81430FFF7F2
:10259400DDFD0028C4D0E36A002BC1D008B0BDE83B
:1025A400704018478B882380BAE7C9880389994209
:1025B400B6D108238DF810302B8A12358DF81830D7
:1025C400059504A99047ABE74FF6FF73EBE7BDF819
:1025D40000302088DB07D4D5002604A9ADF81460A8
:1025E400FFF7B4FD0028D6D1297D4B1E072B3ED81A
:1025F400DFE803F004192226282A3B2C6B8A8DF885
:102604000460012B05D8062201212046FFF73CFF78
:10261400BFE7012315358DF80C3002952046A36AD7
:1026240001A998477CE701236A8A8DF804309A420D
:10263400F0D806220221E8E702238DF80430EDE702
:102644000323FAE70423F8E70523F6E76B8A022B52
:1026540002D803220821D8E7B5F81530002BADF8CD
:10266400083014BF06230723E7E70923E5E703221D
:10267400CBE7ADDF7047AFDF704700002DE9F041D5
:10268400804615461F460E468EB011B9084600F026
:10269400BDFD15B9284600F0B9FD1C2200210DEB43
:1026A400020002F012FC9DF81C30002443F00203E7
:1026B4008DF81C3001232146032268468DF806302C
:1026C400CDE90A44CDE90C440894ADF8048002F045
:1026D400FCFB3B7821468DF800307B7814228DF882
:1026E40001309DF8023002A823F01F0343F00203D7
:1026F4008DF8023002F0E9FB0A4801AB029302AA0A
:10270400149B07A90088CDF80CD0ADF81050ADF893
:102714001240ADF814500696FFF7ADFF0EB0BDE8B9
:10272400F08100BF4A5C002030B541F60A0304463C
:10273400012087B02C4A03A98DF80E00ADF80C30A7
:10274400FFF797FF0546D8B92288E2B922894AB132
:10275400264B42F624200093E16804F13C03FFF782
:102764008DFFD8B9228C4AB1214B42F62620009322
:10277400616A04F13C03FFF781FF78B9A36B7BB96D
:10278400284607B030BD1B4B42F6292000936168F0
:1027940004F13C03FFF772FF0028D7D00546EFE7AA
:1027A4001A7842F650208DF810205A8804A98DF822
:1027B4001120120A8DF812209A88DB888DF81320D4
:1027C4008DF815301B0A8DF816300B4B120A8DF854
:1027D40014200093072204F13C03FFF74FFF002865
:1027E40018BF0546CCE700BF4A5C00203A5C0020D5
:1027F400325C0020425C00202A5C002029DF704704
:102804001822064B02FB0030002304220371C0E9A6
:10281400042383608361C360704700BF645C00204D
:1028240013B5024608464368C9680093044B53F83D
:102834002140436910F80C1BA04702B010BD00BF33
:10284400545C0020182238B5174C237802FB03434C
:102854000122A2701A795869012A05D0032A1BD0D3
:102864000F200023A37016E0104A996915689A682E
:10287400DB68A2EB0532B2F5805F184428BF4FF441
:10288400806201EB053100EB053038BF9208FFF799
:10289400B5FF0028E5D138BD044B1B6803EB1030AD
:1028A400FDF790FFF5E700BF645C00204C5C00205E
:1028B40070B5134D6C78122C1FD02E783444182622
:1028C400E4B2112C84BF123CE4B206FB0454A261AE
:1028D400207103C9A360049B04F11002E360AB7888
:1028E40082E8030023B100206B7801336B7070BD64
:1028F400FFF7A8FF1128F7D1F5E70420F7E700BF99
:10290400645C002038B5831E012B44D8224CA37884
:10291400002B40D0002303282578A37035D018223B
:1029240002FB05421D4992680B680133B2EB033F79
:102934000B6018D80020086018216B1C01FB0541AE
:10294400DBB26278112B88BFA5F1110302F1FF32CB
:10295400D2B288BFDBB2043162702370FFF760FF2C
:102964002846FFF74DFF6378ABB1A3789BB9FFF717
:1029740069FF80B111280ED01823217803FB01418F
:102984000431BDE83840FFF74BBF182303FB054172
:102994000D200431F5E738BD645C00204C5C002058
:1029A400002108B5094B1960094B19809970084634
:1029B4000131FFF725FF1229F9D10020054B1860DA
:1029C400054BC3E90000C3E9020008BD4C5C0020CC
:1029D400645C0020505C0020545C0020064A0346DE
:1029E4001068042807D00860411C11601A68034B62
:1029F40043F8202000207047505C0020545C0020E5
:102A040013B5CC180C43A40708D1009313460A4607
:102A140001460120FFF74CFF02B010BD1020FBE778
:102A240007B500220B46009201460320FFF740FF42
:102A340003B05DF804FB00000122034B5A64D3F891
:102A4400440520F07F40704700A00C50094B5A7891
:102A540099780132D2B2914208BF0022197891428A
:102A64001FBF182102705A7801FB023014BF0430D2
:102A7400002070472C5E0020082910B5044602D0BF
:102A8400002000F0C3FBD4E90030BDE81040184733
:102A940073B5002405460DF107000E468DF8074076
:102AA40000F0C2FB0DF10600FFF7D0FF30B99DF82E
:102AB400070000F0C1FB042002B070BD9DF80620A1
:102AC400074B067045609DF807005A7000F0B4FB90
:102AD4004FF08052034B2046C3F80021ECE700BFBF
:102AE4002C5E002000E100E0204B21491A682F23CE
:102AF40000BF00BF00BF00BF00BF00BF00BF00BFDA
:102B04008A422FD000BF00BF00BF00BF00BF00BF7C
:102B140000BF00BF00BF00BF00BF00BF00BF00BFB9
:102B240000BF00BF00BF00BF00BF00BF00BF00BFA9
:102B340000BF00BF00BF00BF00BF00BF00BF00BF99
:102B440000BF00BF00BF00BF00BF00BF00BF00BF89
:102B540000BF00BF00BF00BF00BF00BF00BF00BF79
:102B640000BF00BF013BC3D1704700BF084800202D
:102B74000024F4004FF480620C4B10B5C3F8982085
:102B8400BFF34F8FBFF36F8F4FF480330124084896
:102B9400C0F808334460FFF7A7FFC4600020054B6A
:102BA4001860FFF7A1FF044B187010BD00E100E0AE
:102BB40000A00C50245E0020195E00202DE9F34192
:102BC4000025274BC3F84051D3F84021C3F84451A2
:102BD400D3F84421C3F84851D3F84821C3F84C51E1
:102BE400D3F84C311F4B1968002934D0FFF724FF68
:102BF4002F461D4BDFF884801C68041B24F07F449F
:102C04000B68A34212D8E41A1D440B7CCE6963B14D
:102C14004B690F7400938B694246082168460193FF
:102C240000F062FA08B100F0F1FABEB90F4A104B95
:102C340011781B788B4205D10133DBB2022B08BF1C
:102C44000023137012780B4B43F822504FF080523C
:102C5400094BC3F8002102B0BDE8F0813146CFE74B
:102C640000A00C50285E0020245E00201A5E002084
:102C74001B5E00201C5E002000E100E07D2A1500A0
:102C84002DE9F74F9E499F4A0B7812789E4C9A4241
:102C94003CD00133DBB2022B08BF00239B4A0B70EC
:102CA4009B49176851F823003B1823F07F431360B6
:102CB4000022164615469446236813B942B1236090
:102CC40006E0196881420FD902B12360091A19601C
:102CD4004FF001094FF0000A2368DFF84C8200939B
:102CE400BEB94FF0180B5EE0401A0D44D968D3F812
:102CF4001CE0C3F800C031B1DE611E467A1922F02F
:102D04007F42C3E9012173460122D6E70026B1467A
:102D1400E0E73046F6697D4B476819687D4A7D1ABD
:102D240025F07F459542836800F2A5802B44012558
:102D3400002105742568C0E901110360C161002DFB
:102D440040F0A1802060CBE798F802004B1CDBB276
:102D5400984208BF00230BFB018188F800300B79EF
:102D64008868022B256877D0032B00F08180012B23
:102D740019D1057CBDB9CF6847600B6983604B6985
:102D8400C3608B698361644B1B78002B18BF2F468B
:102D94004760C0E7B84200F092803946FF69002FCF
:102DA400F8D10023037498F8001098F801308B428E
:102DB400CAD12368BAF1000F05D1009A9A4202D110
:102DC400B9F1000F42D0002B76D01F68FFF734FE14
:102DD4004E4B524E1C6805463378001B20F07F4052
:102DE400033093B94FF480324FF480614C4BC3F8F5
:102DF40004234C4AC2F8981191614FF00108C3F8BA
:102E04000080FFF771FE86F8008087422CBFE1192D
:102E14002118434C21F07F41C4F84015FFF70CFE04
:102E2400431B23F07F43491B033321F07F418B4233
:102E34000CD9FFF701FE20F07F40C4F84005FFF7EE
:102E440053FE4FF48062374BC3F818210022324BF3
:102E54001A7003B0BDE8F08F2F4629469FE701237F
:102E64002974ED69002DFAD1002B9CD025609AE7D6
:102E740000231946F6E7C91B21F07F418B4294BF1A
:102E840000235B1A53E72968994213D3C91A2960AE
:102E9400C56157E7DB1BCF690D463FB139460F6863
:102EA400BB42F7D8FF1A0F600F4629460360C7617B
:102EB400C86115E72946F2E7FFF75CFEC6E78842DA
:102EC40011D1EB69236073B90122DFF854E0019159
:102ED400CEF80C20DFF834E0CEF800300E4B1A7038
:102EE400FFF702FE01993B68FF69CF6117B13A68A9
:102EF40013443B602368AB4218BF4FF0010A50E70C
:102F04001B5E00201A5E0020285E0020245E002044
:102F14001C5E0020FEFF7F00185E0020195E00206A
:102F240000A00C5000E100E02C5E002010B5FFF77B
:102F340021FE00210B22174BE02419809A70164BB6
:102F440016481960164B1970164B19704FF08053C0
:102F5400C0F8803180F81C4303600122124B5A6090
:102F6400DA60D3F8082522F0030242F00202C3F823
:102F740008250C22C3F81025D3F8042522F00302F7
:102F8400C3F8042580F8CA43FFF756FD074B1860C1
:102F9400084610BD2C5E0020285E002000E100E001
:102FA4001B5E00201A5E002000A00C50245E00204E
:102FB400074B9B784BB132B128B10368187C20B918
:102FC40059745A617047072070470820704700BF42
:102FD4002C5E00202DE9F347DFF88890064699F827
:102FE40002300F469046C3B3B8B3042933D94369BA
:102FF4009BB30024437C0DF10700012B0CBF8A46D0
:10300400A2468DF8074000F00FF90DF10600FFF716
:103014001DFD054638B99DF8070000F00DF90420A0
:1030240002B0BDE8F087012346600370FFF704FD9A
:103034009DF80630C5E90207C5E904A89DF8070014
:1030440089F8013000F0F8F84FF08052044B204624
:10305400C3F80021E4E70720E2E70820E0E700BF27
:1030640000E100E02C5E0020064A92783AB130B1CB
:10307400426922B1002202210274FFF709BD08202F
:10308400704700BF2C5E0020044B9B781BB10321CA
:103094000020FFF7FDBC0820704700BF2C5E002015
:1030A4004B1C30B5DB00044612F003009BB20DD17B
:1030B400074D2A601A44074B1A60074B1870074BD8
:1030C4001870074B1C80074B198030BD0720FCE7A4
:1030D400445F0020405F00203C5F00203D5F0020F3
:1030E4003A5F0020385F00202DE9F347DFF8B48011
:1030F4000646B8F800300C468B42174649D30025E3
:103104000DF107008DF8075000F08EF8224B234A8A
:10311400DFF894C01B78BCF800C01078DBB26045BF
:10312400C1B23CBF0131CDB2AB429DF8070005D11D
:1031340000F082F8042002B0BDE8F0871578117819
:10314400DFF868908C45CBB292BF00230133DBB229
:10315400137000F071F8D9F80030EDB24FEAC50AE7
:1031640003EBC50243F8357086B17CB10C4BB8F85B
:1031740000001B68224605FB0030314601F080FE4A
:10318400D9F8003053449C800020D4E70023938076
:10319400FAE70920CFE700BF3D5F00203C5F002035
:1031A400405F00203A5F0020385F0020445F002029
:1031B40070B5104C104D22782B789A4200D170BD16
:1031C4000E480F4A06880F4823781268006802EBFD
:1031D400C30103FB060052F83320898890470A494B
:1031E40022780988D3B2914292BF00230133DBB223
:1031F4002370E0E73D5F00203C5F00203A5F002041
:10320400445F0020405F0020385F00201FB500218C
:1032140001AACDE9021044F20100ADF80410FDF753
:103224002FFB05B05DF804FBEFF3108372B6003B8F
:1032340018BF01230370704700B962B67047034694
:103244002AB110881A4619448A4203D170474FF6AE
:10325400FF70F7E743BA12F8010B9BB25840C0F372
:103264000313434083EA0333580100F4FF509BB235
:103274005840E9E70020064B064A1870064B1A60CE
:103284001022C3E90300C3E90120C3E90500704724
:1032940024850020645F0020485F002000207047E0
:1032A40030B50446E9B10020114B08605A68D2B128
:1032B400B4F5167F19D84FF41775013A5A60DA68D5
:1032C4001C680132DA601A6905FB02440C600124AF
:1032D400996994400132214302F00F0299611A6105
:1032E40030BD0E20FCE70420FAE70C20F8E700BF0D
:1032F400485F0020F0B51C498A6892B34D694FF4C9
:103304001777AC1A04F00F0423460E6807FB036C0E
:10331400604510D1012588699D406840886100207E
:103324004FF0010E4E6873440025D1F818C01644BE
:1033340003F00F030AE0013303F00F039D42E5D1CC
:103344001020EDE74AB11C460125013A0EFA04F4B7
:1033540014EA0C0FA6EB0207F4D00DB1C1E9017217
:10336400F0BD0420FCE700BF485F00204FF4177154
:10337400054A13691268013B03F00F0301FB0323A1
:10338400C3F8580200207047485F002030B5C0B130
:10339400B9B10E4BDA68B2B14FF41775013ADA607D
:1033A4009A681C6801329A605A6905FB02440460F9
:1033B400D4F8580201320860002002F00F025A616A
:1033C40030BD0E20FCE70420FAE700BF485F002070
:1033D4003FB40C49086890B10B4B1C687CB10023C6
:1033E4000A4A8DF8043015680B60CDE90250136069
:1033F40004AB13E90700234604B030BC184704B0FB
:1034040030BC70472885002040850020308500208E
:10341400DC2810B509D0DD2810D0C02816D1FFF75C
:10342400D7FF0E4B0E4A1A6010BD0E4A0E4B196898
:103434001368581C1060C022CA54F2E7094A0A4BA8
:1034440019681368581C1060DB22F5E7064B054A1F
:10345400196813685C1C1460C854E2E71C48002017
:10346400A13415002885002030850020C02802BF23
:10347400014B024A1A6070471C480020A134150011
:1034840008B5DB2000F0CCFB10B9024B024A1A60ED
:1034940008BD00BF18480020C1351500C02810B46D
:1034A40009D0DB280BD0094B094A196813685C1C46
:1034B4001460C85406E05DF8044BFFF789BF054B60
:1034C400054A1A605DF8044B704700BF3085002040
:1034D400288500201C4800201534150010B5064A24
:1034E400064C12682368D05C00F09AFB10B923687C
:1034F4000133236010BD00BF3C85002034850020CB
:1035040008B5C02000F08CFB28B9034B1B6813B925
:10351400024B034A1A6008BD348500201848002075
:10352400E13415007FB51C4C1C4E1D4D22683368D8
:103534009A4219D31B4B2B60FFF7E2FF002829D1D5
:103544000122194B1A70194B1B681BB38DF8042008
:10355400174A126802922268039204AA12E9070029
:1035640004B0BDE870401847114B22681B689A5C90
:10357400C02A03D022689B5CDB2B05D10D4B2A6843
:103584009A4204BF0C4B2B602B689847042801D047
:103594001128CBD104B070BD3485002038850020BB
:1035A400184800200535150044850020408500207A
:1035B4003C850020E13415008534150010B50C4A13
:1035C4000C4C12682368D35CC02B03D0DB2B0DD0CA
:1035D400042010BDDC2000F023FB0028F9D123686F
:1035E400054A01332360054B1A60F2E7DD20F2E758
:1035F4003C85002034850020E13415001848002063
:103604001FB503780446032B05D1164B1B78022BF8
:1036140025D1FFF787FF2378042B20D1124B1A689A
:1036240062B1124B1968124B1B68994206D2114BB6
:1036340020791B6804B0BDE8104018470E4B1B6886
:103644006BB102210292094A8DF8041012680392A8
:1036540004AA12E9070004B0BDE81040184704B0FA
:1036640010BD00BF4485002030850020288500203F
:103674002C8500201C48002040850020014B186048
:103684000020704740850020F0B50C4E87B0377895
:1036940097B96C460A4D0FCD0FC495E80300072374
:1036A40084E80300074A3946684600F06BFA08B913
:1036B4000123337007B0F0BD0020FBE744850020F0
:1036C40010051500053615000022024B1A7000F093
:1036D400BBBA00BF4485002010B5C0B10D4B1A78A9
:1036E400012A04D0022A0CBF0420082010BD0024A3
:1036F400094A1460094A1160094A106002221A70CA
:10370400084B094A1A60FFF70DFF2046EEE7102028
:10371400ECE700BF44850020348500203885002074
:103724003C8500201848002005351500054B064A45
:1037340018600020054B1960054B1860054B1A6092
:10374400704700BF30850020713415002C8500209F
:10375400288500201C4800200022064B06481B68D0
:103764000421DB00DBB203705B4242708270C370E1
:10377400FFF7B2BF848500204585002010B52B4C8F
:103784002378012B04D0022B1ED003B958B310BDEB
:103794000128FCD1264B1968264B06311868FFF71F
:1037A4009BFF08B1FFF732FD022323700022224B56
:1037B40041F6E12121481A60FFF70CFC0028E6D00D
:1037C400BDE81040FFF722BD02281BD0032802D019
:1037D4000028DCD1EAE71A4A1368013303F007032F
:1037E4001360002323701548FFF73EFC08B1FFF770
:1037F4000DFD144B1B68002BC9D0BDE81040124AC4
:10380400107818470C4A1368052B0AD0013313604B
:10381400074BBDE810401968064B06311868FFF7DE
:103824005BBF0122084B1A70DBE700BF94850020C0
:10383400788500207C850020508500205485002058
:1038440080850020908500204E850020F0B585B04D
:1038540004AB03E907009DF804000D46164603284F
:1038640076D8DFE800F00802A8AB012005B0BDE877
:10387400F040FFF783BF032A524C40F283804B7819
:1038840013F00F0269D00E2A7CD1042E59D00A7885
:10389400500656D5110654D51A44AB781A44EB7821
:1038A4001A4412F0FF024CD1B71E39462846FFF7DE
:1038B400C6FCEB5B834244D143492A780B6802F08F
:1038C4000702D8B282422FD1013303F007030B6001
:1038D400FFF742FF01223D4B30461A70FFF746FDC9
:1038E40008B1FFF793FC4FF416703649FFF7D8FC84
:1038F400B0B1042810D105213548FFF717FF08B1EE
:10390400FFF784FC334B1B68002B59D04FF00000A9
:1039140005B0BDE8F04018470020FFF777FCEAE760
:103924004FF416712068E8E74FF416712068FFF72A
:10393400FDFE08B1FFF76AFC05B0BDE8F040FFF7F3
:103944000BBF4FF416712068FFF7F0FE002837D044
:1039540005B0BDE8F040FFF759BC0A7889781344F4
:103964000B44E9780B44DBB263B91B4B1B6801338E
:1039740083EAD20313F0070304D1184A0320137017
:10398400FFF7FCFE25681DB14FF416712846DBE7EE
:103994004FF416700B49FFF783FC18B94FF41671F6
:1039A4002068D1E7042802D105210948CCE728463C
:1039B400FFF72CFCF8E705210548C5E70320C7E716
:1039C40005B0F0BD88850020848500207485002022
:1039D400498500208C850020808500204E850020AC
:1039E4000220FFF7CBBE0000074B10B50446186059
:1039F4000648FFF743FE08B1FFF708FC002C0CBF94
:103A04000E20002010BD00BF8C8500205138150009
:103A140000230121174A10B51360174A1748136091
:103A2400174A1360174A1370174A1370174B184A32
:103A34001960184B1960184B1970FFF7B9FA08B1DF
:103A4400032010BDFFF716FC0028FAD1FFF71CFE77
:103A54000028F6D1114C4FF416702146FFF720FCD4
:103A64000028EDD120684FF41671BDE81040FFF72F
:103A74005DBE00BF7C8500207885002028051500E8
:103A840050850020748500209485002084850020C2
:103A9400E5391500808500204E85002088850020AA
:103AA40008B500230B4A13600B4A1360FFF7F6FBBB
:103AB40008B1FFF7ABFBFFF707FE08B1FFF7A6FB62
:103AC4000648FFF7D1FA042802D10020FFF79EFB35
:103AD400002008BD908500208C850020548500209E
:103AE40037B50D46044698B191B10022094B0192B5
:103AF400197859B101A91A70FFF748FC019B063BDC
:103B04002B8023680433236003B030BD0420FBE71B
:103B14000E20F9E7748500200438FFF7EBBB0000A2
:103B240013B50478012C13D104238DF800304368B5
:103B340022461B780F4910488DF8043000F034FAFF
:103B44000E4B1C700E4B68461B68984702B010BDA4
:103B5400022C09D1C3680122064907488DF80040A8
:103B6400019300F021FAEDE7002CEFD103238DF847
:103B74000030E7E79D850020204800209C85002038
:103B840098850020F0B589B06D4604461E4E174650
:103B94009C460FCE0FC596E80F0085E80F006369B9
:103BA40000220693237C8DF81CC0003B18BF012320
:103BB4008DF81430637C6946002B0CBF00230E2360
:103BC4008DF81530E36811480293A36803932368C2
:103BD4000193636800930E4B1F600E4B1A700E4ADC
:103BE40000F0B6F868B9236801330AD09DF81D3097
:103BF40013B9064800F05AFA01220849034800F0B4
:103C0400D3F909B0F0BD00BF2C05150020480020F1
:103C1400988500209C850020253B15009D8500206B
:103C2400074908B501220870064800F075F9112803
:103C340003D0002818BF032008BD0420FCE700BF00
:103C44009E8500202048002008B5024800F000F9B5
:103C5400002008BD204800201FB501238DF8003046
:103C6400054B8DF8080001916846D3E9001290478E
:103C740005B05DF804FB00BFA08500205F2800F0BC
:103C84001F034FEA50110BD8084A52F8212002EBC7
:103C94008303D3F88010064A0A40C3F88020704793
:103CA4000022203352F82330FFDE00BF4C051500FC
:103CB400F0F0FCFF5F284FEA501208D8054B00F0E3
:103CC4001F0053F8222001238340536070470023D0
:103CD4005B60FFDE4C0515005F2800F01F034FEA10
:103CE40050110DD8094A52F8212002EB8302D2F870
:103CF4008010074B0B4043F00303C2F88030704739
:103D04000022203352F82330FFDE00BF4C0515009B
:103D1400F0F0FCFF5F2800F01F034FEA50110DD8AC
:103D2400094A52F8212002EB8302D2F88010074B93
:103D34000B4043F00203C2F8803070470022203366
:103D440052F82330FFDE00BF4C051500F0F0FCFFF5
:103D54001C232DE9F0413C4E90F80480054603FBFA
:103D64000863DB7E0C461746002B6AD10868431CA7
:103D740004D0FFF79FFF0868FFF7AEFF6068411C9F
:103D840001D0FFF77BFF2A68A169237D607DC2F81B
:103D940024152A680343C2F86C352B68D4E9001251
:103DA400C3F80416C3F80C26237D012B13D1A06895
:103DB400421C01D0FFF762FFE068431C04D0FFF708
:103DC40079FFE068FFF788FFD4E902212B68C3F884
:103DD4001016C3F808261C2303FB08F3F2185760D7
:103DE4002269F250F7B100232A68217FC2F84C31CE
:103DF400D2F84C212A68C2F86831D2F868212A68BE
:103E0400C2F81431D2F814212A68C2F82431D2F845
:103E140024312B680D4AC3F804232868C0F3073003
:103E240000F0BAF908222B680020C3F800251C23EF
:103E340003FB08664FF48073F08230767383BDE829
:103E4400F0810820FBE700BFA085002020020804C1
:103E540000212DE9F04102680579C2F800151C2201
:103E6400244C034602FB054252689AB10268224977
:103E7400C2F8081302680120C2F34241C2F30432BB
:103E8400904001F120021D4941F82200BFF34F8FF9
:103E9400BFF36F8F4FF0FF311A68D2F80406D2F8DF
:103EA4000C86D2F81066D2F80876C2F80416C2F866
:103EB4000C161B688842C3F81016C3F8081601D004
:103EC400FFF728FFB8F1FF3F02D04046FFF722FF7B
:103ED4007A1C02D03846FFF71DFF731C02D030460F
:103EE400FFF718FF1C2303FB05440023E3766360FC
:103EF400BDE8F081A08500202002080400E100E074
:103F04001C210279034B01FB0233987D003818BF52
:103F140001207047A085002001F06043B3F1005FE9
:103F24002DE9F04104460F46904637D1FFF7E8FFEC
:103F3400002835D11C2326791A4D03FB0656B0827E
:103F4400B76086F816802279216803FB0253C1F812
:103F54006801D1F8681121689E7DC1F83001D1F85B
:103F640030119F6821685B68C1F83C77C1F84067ED
:103F7400012621680E657BB92168D1F86831D1F832
:103F840030010343F9D01C23002803FB02554FF0F2
:103F9400000318BF0F20AB75BDE8F0811020FBE7CC
:103FA4001120F9E7A085002001F06043B3F1005F20
:103FB400F0B574D11C2504793A4B05FB04356E68C1
:103FC40095F817C03EB9BCF1000F12D02D7E002D1C
:103FD40046D01120F0BD344E0768C7F80863BCF121
:103FE400000F06D02D7E002D3AD00368C3F8046379
:103FF400EFE71C26002506FB0436F275F1607576A2
:104004002E461C2707FB0434257600250468C4F8D3
:104014004C51D4F84C410468C4F82451D4F82441D8
:104024000468C4F80417C4F808270268FEB901211B
:104034009162027901681C2000FB0230406848BB91
:10404400D1F84C41D1F82451D1F814012C4315D1A5
:104054000028F5D01C2101FB02320320D475B9E7F6
:104064001C2505FB0435012629611546C9E7D2F84C
:10407400001241F02001C2F80012DAE71C2101FB12
:1040840002330022904218BF0320954218BF0F202C
:10409400DA759FE7044B0020C1F804339AE7102037
:1040A40098E700BFA08500202000080070470000AA
:1040B4007FB5374BD3F81451002D47D00022C3F8F5
:1040C4001421D3F8141102218DF80010D3F88014B0
:1040D4006846C3F880140391D3F80C378DF8083080
:1040E4002C4BD968DA7501911A76D3E900129047FE
:1040F400274BD3F8242172B10021C3F82411D3F83B
:104104002421244AD07D30B1D175D3F80C07D1686D
:10411400C0B2FFF7A1FD1E4AD2F86831A3B1002155
:10412400C2F86811D2F868311A4B987D60B1D2F8A0
:10413400442768468DF808209A688DF8001001928B
:104144009975D3E90012904704B070BDD3F84C219F
:10415400002ACDD0C3F84C51D3F84C210D4AD3F8E2
:104164000C17D07DC9B28842C2D1147ED16864B123
:10417400D3F8006226F02006C3F800621369D475F0
:10418400D3601576FFF768FDB2E7D475FAE700BF90
:1041940000A00450A085002049010028C9B213DB07
:1041A40000F1604303F5614383F80013012300F039
:1041B4001F024009800000F16040934000F5614017
:1041C400C0F8803103607047024B00F00F001954AF
:1041D400704700BF14ED00E019491A4A1A4B00F069
:1041E40010F81A491A4A1B4B00F00BF81A491B4ADB
:1041F4001B4B00F006F81B491B4A1C4B00F001F84E
:1042040006E0521A03DD043A98588850FBDC7047E4
:104214001749184A00F009F81749184A00F005F838
:104224001749184A00F001F806E00020521A02DD8E
:10423400043A8850FCDC7047FCF7C0FEFCF730FB06
:104244000048002028480020504F1500284800202E
:1042540028480020784F15002848002028480020CE
:10426400784F15002848002028480020784F150072
:10427400684800209C8600209C8600209C860020A4
:104284009C8600209C860020FEE7FEE7FEE7FEE712
:10429400FEE7FEE7FEE7FEE7FEE7FEE7FEE700BF18
:1042A40018DF70470129F8B50D4614461E4607D09D
:1042B400032912D00CB32046BDE8F840FEF7A6BF90
:1042C4000E4B1B78052BF5D10D4B1B68002BF1D041
:1042D4003246214604209847ECE7084F3B78022BEE
:1042E400E8D1084B5B689847054B3D701B68002B71
:1042F400E0D0324621462846EDE7F8BD94860020FA
:10430400C8850020BC8500200122094B00B51A7025
:10431400052389B08DF8083008AB13E903008DE854
:10432400030002AB0FCBFCF791FF09B05DF804FB6F
:10433400D885002000B589B002AB182200211846A8
:1043440000F0C3FD032203468DF808200B4A1288AF
:10435400ADF80A200A4A516803919168D268049121
:10436400059208AA12E903008DE803000FCBFCF7BD
:104374006DFF002009B05DF804FB00BFFC85002040
:1043840080860020012300B589B08DF80830144BD5
:104394001B88ADF80A304FF400535A6803F1A34365
:1043A40003F5471303F2DB539A420ABF4FF4405319
:1043B4004FF480539B6806930A4B5A6803929A6899
:1043C400DB680492059308AB13E903008DE803004E
:1043D40002AB0FCBFCF73AFF002009B05DF804FBF9
:1043E400FC8500208086002000B589B002AB18222D
:1043F4000021184600F069FD042203468DF80820C8
:1044040008AA12E903008DE803000FCBFCF71EFF96
:1044140009B05DF804FB000030B5182589B002AC82
:104424002A460021204600F050FD2A46002500219E
:10443400204600F04AFD0A4B8DF808501B88ADF861
:104444000A30084BDB68059308AB13E903008DE8D9
:10445400030094E80F00FCF7F9FE284609B030BDCC
:10446400FC8500208086002037B502221A4B1B4DA4
:104474001B4C1D601B4B1A70FCF70CFA80B12846CC
:104484002168FEF7CDFA042804D1FCF7F7FB0528D0
:10449400FBD1F4E7F0B103B0BDE83040FEF7B6BE9F
:1044A4004FF400535A6803F1A34303F5471303F28F
:1044B400DB539A420ABF4FF440534FF4805098683C
:1044C4002168FCF711F9002303211A4603480093DD
:1044D400FFF7E8FE03B030BDCC850020D085002076
:1044E400908600209486002010B50B4B1B788BB966
:1044F4000A48FEF7B9FD08B1FEF788FE00224FF422
:1045040034010648FEF766FD044608B1FEF77EFE58
:10451400204610BD0824FBE7D8850020DC85002058
:10452400F0B51F46032385B00546CDE90030960853
:1045340068460C4602910396FFF7B2FEE0B1B4F56B
:10454400805F11D801236846CDE90035CDE90246E4
:10455400FFF7A6FE80B903236846CDE90035CDE90F
:104564000246FFF79DFE07E03B463A46E11BE81B87
:10457400FFF7D6FF0028E5D005B0F0BD30B5002424
:104584001D4B85B001931D4B1D491C701D4B01A88B
:10459400CDE902441C80FEF721FA054630BB4FF4F6
:1045A40000535A6803F1A34303F5471303F2DB53A3
:1045B4009A420ABF4FF440534FF480539B68104A09
:1045C400002153601048114AFEF7F2FC08B1FEF7CF
:1045D4001DFE00224FF434010D48FEF7FBFC08B128
:1045E400FEF714FE002201240A4B1A6028460A4BE7
:1045F4001C7005B030BD00BFA9421500FE85002027
:10460400D0850020FC850020580515000D431500B9
:10461400DC8500209886002094860020014B1860D9
:10462400704700BFC885002070B5284C43680FCB85
:1046340084E80F002278510701D593073FD16368BE
:104644009E073CD1A1688D0739D1E068840736D133
:104654001F4E0B440344B1F5383F336031D84FF457
:104664000051486801F1A34101F5471101F2DB5102
:10467400884205BF4FF4405189681649C1F5A3111A
:104684008B421ED8D30718D412F0020F124A134BD0
:1046940008BF1346124D134A2A60134AC5E9012381
:1046A400124B1B78012B0ED1FFF71EFF044610B9E5
:1046B4002B6830689847204670BD0D4BEAE7062406
:1046C400F9E70C24F7E70824F5E700BF808600200B
:1046D40090860020005014001D4415003943150035
:1046E400BC8500206D441500ED4315009486002020
:1046F400894315002DE9F3470746002864D08368F1
:104704009B0763D1344B1B78052B61D1334E426830
:104714003368DFF8CC8003EB82039500D8F80020DF
:10472400934207D94FF0FF330C243360204602B084
:10473400BDE8F087FFF7D8FE04460028F6D1D7F885
:1047440008A0FCF7A7F8DFF89C9080B12A465146F0
:104754003368D9F80000FEF753F9042804D1FCF7B4
:104764008DFA0528FBD1F1E700B30446DEE74FF4E8
:1047740000535A6803F1A34303F5471303F2DB53D1
:104784009A420ABF4FF440534FF4805098683768F8
:1047940000232A4651463844FBF7DEFF0095534672
:1047A40000220121D9F80000FFF77CFD33681D4485
:1047B400D8F8003035609D420CD1FCF76BF8002826
:1047C400B4D1FBF7A3FFB1E70E24AFE71024ADE7A4
:1047D4000824ABE70924A9E79486002098860020E2
:1047E40090860020CC85002070B50B4B1D6885B9E0
:1047F4000A4E3378042B0CD1094C0A4B21781A78D1
:104804000948FBF707FF10B90523337070BD257005
:10481400FCE70820FAE700BF988600209486002071
:10482400FE85002080860020FF850020F8B5144B0B
:1048340005461A78032A04D0042A04D00824204602
:10484400F8BD04221A700F4B1B68002BF6D1FFF73A
:104854004BFE04460028F2D10B4E6B6830789F0063
:1048640000EB8303802B09D8084B3A461844A96807
:1048740000F006FB33783B443370E0E70924DEE7BD
:104884009486002098860020FE850020FF85002065
:1048940038B50D4C2378052B14D10C4B0C4D1A68EC
:1048A4002B689A420ED106232370FFF71DFE40B9F0
:1048B400084B29681B685868FBF7E6FE08B907230C
:1048C400237038BD0820FCE79486002098860020D9
:1048D40090860020CC85002010B5084B1B78072B50
:1048E4000AD10748FEF7C0FB08B1FEF78FFCBDE80C
:1048F4001040044B9B681847082010BD9486002084
:10490400DC850020BC85002000B589B002AB1822EC
:104914001846002100F0D9FA06228DF808200D4A25
:1049240003461278052A13D10B4A0C491268096808
:10493400521A18BF01228DF81C2008AA12E903009C
:104944008DE803000FCBFCF781FC09B05DF804FB94
:104954000022F0E7948600209886002090860020AC
:10496400F0B58DB005A8FCF7EDFD089C002C3ED0F9
:104974000B9E04F58053B3422DD91E4DA6F58053EA
:1049840005EA53054FF440539B689C420BD86900D9
:104994002B46A4EB450201F5805106EB4500FFF7D9
:1049A400BFFD0DB0F0BD012705F5805301A8CDE989
:1049B4000173CDE90337FFF773FC0028F1D14FF4FD
:1049C400805301A8CDE9023301970497FFF768FCEF
:1049D4000028E6D1DBE70123CDE901364FF480530B
:1049E400A40801A803930494FFF75AFCD9E72046CE
:1049F400D7E700BF00F0FFFF00B58DB005A8FCF7B6
:104A0400A1FD0998B8B1089BC3B94FF400535A6883
:104A140003F1A34303F5471303F2DB539A4210D186
:104A24004FF440539B6800228008039001A8CDE90D
:104A34000123FFF735FC0DB05DF804FB0B9A13441A
:104A4400F1E74FF48053EEE700B591B009A8FCF705
:104A540079FD0D9A1AB9002011B05DF804FB0C9B86
:104A6400002B44D14FF40053596803F1A34303F5D9
:104A7400471303F2DB5399423CD14FF440539B68F4
:104A840003204FF4A8119208CDE9010101A8039372
:104A94000492FFF705FC0028DDD00C9B6BBB4FF4A0
:104AA40000535A6803F1A34303F5471303F2DB539E
:104AB4009A4215BF4FF480534FF4405319469B68F4
:104AC40011BF0F4A5942C3F5A312C1F30C01521A84
:104AD40003EB520303214FF4A81207930D9B05A87F
:104AE4009B08CDE905120893FFF7DAFBB4E70F99A9
:104AF4000B44C5E74FF48053C2E70F9A1344E9E728
:104B04000050140010B58CB005A8FCF71BFD0898E4
:104B1400B8B10B9C00F58053A34214D94FF4405311
:104B24009B6898421BD80F4BA4F5805203EA5203AA
:104B34005900A0EB430201F5805104EB4300FFF759
:104B4400EFFC0CB010BD03224FF480538008049096
:104B540001A8CDE901230394FFF7A2FBF1E70E209E
:104B6400EFE700BF00F0FFFF53B94AB9002908BFBF
:104B740000281CBF4FF0FF314FF0FF3000F07EB92A
:104B8400ADF1080C6DE904CE00F006F8DDF804E0A0
:104B9400DDE9022304B070472DE9F04F099D0C466E
:104BA400002B4DD18A420F4684469646B2FA82F3D0
:104BB40060D94BB102FA03FEC3F120029F4000FA10
:104BC40003FC20FA02F217434FEA1E461FFA8EF442
:104BD4004FEA1C42B7FBF6F106FB117701FB04F028
:104BE40042EA0742904208D91EEB020201F1FF3764
:104BF40002D2904200F22D813946121A1FFA8CFC1F
:104C0400B2FBF6F006FB102200FB04F44CEA024C63
:104C1400644508D91EEB0C0C00F1FF3202D2644546
:104C240000F21A81104640EA0140ACEB040C00216A
:104C340025B12CFA03F30022C5E90032BDE8F08F58
:104C44008B4205D90DB1C5E9000100210846F5E7FD
:104C5400B3FA83F100294DD1A342C0F0F28090420F
:104C640080F0EF80064623460846002DE6D0C5E9CD
:104C74000063E3E7002B40F0A2808A1A4FEA1E4744
:104C84001FFA8EF60121B2FBF7F407FB14204FEA5A
:104C94001C4242EA004206FB04F090420FD91EEB8C
:104CA400020204F1FF382CBF4FF001094FF0000954
:104CB400904203D9B9F1000F00F0C8804446121A9B
:104CC4001FFA8CFCB2FBF7F007FB102200FB06F680
:104CD4004CEA024C664508D91EEB0C0C00F1FF327D
:104CE40002D2664500F2BB801046ACEB060C40EAEB
:104CF40004409DE7C1F120068B4004FA01FE22FA2C
:104D040006F720FA06FCF4408A401F434EEA0C03DF
:104D140000FA01FE4FEA17484FEA13491FFA87FCCD
:104D2400B4FBF8F008FB104449EA044400FB0CF916
:104D3400A1450ED93C1900F1FF3A2CBF4FF0010BED
:104D44004FF0000BA14503D9BBF1000F00F0938095
:104D54005046A4EB09041FFA83F9B4FBF8F308FBEB
:104D6400134403FB0CFC49EA0444A44506D93C194A
:104D740003F1FF3801D2A4457AD8434643EA004000
:104D8400A4EB0C04A0FB02984445CC46434602D352
:104D940006D1CE4504D20138B9EB020C68EB070307
:104DA4005DB1BEEB0C0264EB030404FA06F622FACE
:104DB40001F3CC401E43C5E9006400213EE702FA3A
:104DC40003FEC3F1200104FA03F200FA03FCCC4011
:104DD4004FEA1E4720FA01F11FFA8EF6B4FBF7F0F2
:104DE4000A4307FB1044110C41EA044100FB06F49A
:104DF4008C420ED91EEB010100F1FF382CBF4FF09D
:104E040001094FF000098C4202D9B9F1000F2CD0EE
:104E14004046091B92B2B1FBF7F407FB141142EAB6
:104E2400014204FB06F1914207D91EEB020204F190
:104E3400FF3801D2914215D84446521A44EA00413F
:104E440021E7861A64EB030301200EE7023C724457
:104E540035E702397244D0E6F4440238E3E6F44418
:104E6400023842E7023C7244E7E702387144D0E773
:104E7400023B3C4482E702383C446AE7704700BF87
:104E84000A44431E914200D1704710B511F8014BFA
:104E9400914203F8014FF9D110BD034613F8012BD9
:104EA400002AFBD1181A013870470139024410B5A1
:104EB400904201D1002005E0037811F8014FA3428C
:104EC40001D0181B10BD0130F2E70244034693429F
:104ED40000D1704703F8011BF9E70000100000003F
:104EE40000000000017A5200027C0E011B0C0D0030
:104EF4001000000018000000A2FFFFFF10000000D7
:044F040000000000A9
:104F0800504F1500004800200A000000784F150097
:104F18002848002000000000784F1500284800208D
:104F280000000000784F150028480020000000000D
:104F3800684800208D0F00009C86002000000000BB
:084F48009C860020000000001F
:104F5000FFFFFFFFF84700200090D003FF00000094
:104F600032000000FFFF0000E1341500713415002D
:084F700000A004500000000045
:107C0000F1109E1E797A222003000000640000001B
:107C1000CC00000000001800CD00000000000400AF
:107C2000D200000020000000000000000000000062
:107C30000000000000000000000000000000000044
:087C400000000000000000003C
:020000041000EA
:0410140000001500C3
:0410180000E01700DD
:04000005001541DDC4
:00000001FF
